:020000040800F2
:1000000040500020F1020008E73800087330000873
:10001000E538000829090008D9550008000000004B
:100020000000000000000000000000003102000895
:10003000810A0008000000008D020008BD39000898
:100040000B0300080B0300080B0300080B03000858
:100050000B0300080B0300080B0300080B03000848
:100060000B0300080B0300080B0300080B03000838
:100070000B0300080B0300080B0300080B03000828
:100080000B0300080B0300080B0300080B03000818
:100090000B0300080B0300080B0300080B03000808
:1000A0000B0300080B0300080B0300080B030008F8
:1000B000953A00080B0300080B0300080B03000827
:1000C0000B0300080B0300080B0300080B030008D8
:1000D0000B0300080B0300080B0300080B030008C8
:1000E0000B0300080B0300080B0300080B030008B8
:1000F0000B0300080B0300080B0300080B030008A8
:100100000B0300080B0300080B0300080B03000897
:100110000B0300080B0300080B0300080B03000887
:100120000B0300080B0300080B0300080B03000877
:100130000B0300080B0300080B0300080B03000867
:100140000B0300080B0300080B030008E938000844
:100150000B0300080B0300080B0300080B03000847
:100160000B0300080B0300080B0300080B03000837
:100170000B0300080B0300080B030008000000003D
:100180000B0300080B03000800F002F800F040F831
:100190000AA090E8000C82448344AAF10107DA45E2
:1001A00001D100F035F8AFF2090EBAE80F0013F0F4
:1001B000010F18BFFB1A43F001031847906B0000B2
:1001C000B06B0000103A24BF78C878C1FAD8520743
:1001D00024BF30C830C144BF04680C6070470000C1
:1001E0000023002400250026103A28BF78C1FBD840
:1001F000520728BF30C148BF0B6070471FB506F0DB
:1002000077FC9DE8030000F01DFA1FBD10B510BD7E
:1002100000F074FA1146FFF7F1FF05F0F5F900F070
:1002200092FA03B4FFF7F2FF03BC00F0C3FA000038
:100230002C4B19680868B0E8F04F80F30988BFF3C9
:100240006F8F4FF0000080F31188704700000000AE
:1002500008480068006880F308884FF0000080F3C9
:10026000148862B661B6BFF34F8FBFF36F8F00DFA4
:1002700000BF00BF08ED00E0DFF80C00016841F4AA
:1002800070010160704700BF88ED00E0EFF3098066
:10029000BFF36F8F134B1A681EF0100F08BF20EDCD
:1002A000108A20E9F04F106009B44FF0500080F33D
:1002B0001188BFF34F8FBFF36F8F05F0F1FE4FF042
:1002C000000080F3118809BC19680868B0E8F04F95
:1002D0001EF0100F08BFB0EC108A80F30988BFF33E
:1002E0006F8F704760000020EFF3058070470000BB
:1002F0000948804709480047FEE7FEE7FEE7FEE7BA
:10030000FEE7FEE7FEE7FEE7FEE7FEE704480549F5
:10031000054A064B70470000853A0008890100082D
:10032000404A002040500020404C0020404C00201B
:1003300070B5064600F06AF9056806F10B0020F07A
:100340000704B4429CBF002070BD2B466A68BAB156
:100350001068A04210D304F1080188423CBF5068E5
:10036000586007D35168101941601168091B01607A
:1003700058601460101D70BD13465268002AE7D102
:100380002146284600F04AF90028DED170BD70B53C
:100390000446051F00F03AF90068002C14BF4468B9
:1003A00070BD002C18BFAC423CBF20466468F8D337
:1003B00001680A18AA4218BF456003D12A68054699
:1003C0001144016028684119A1421CBF6C6070BDD6
:1003D0006168696021680844286070BD53EA020CB6
:1003E00000F069802DE9F04B4FF00006002B1FBF95
:1003F000B3FA83F503FA05F424FA05F65E4012BF5A
:100400001643B2FA82F502FA05F4C5F120051EBFC3
:1004100022FA05FC44EA0C04203556EA044C4FEA63
:10042000144418BF641C4FF000084FF000099042BC
:1004300071EB030C39D3002919BFB1FA81F701FA26
:1004400007F6B0FA80F700FA07F6C7F120071EBFDB
:1004500020FA07FC46EA0C062037B6FBF4FCA7EBB3
:100460000507103F07F01F0BCBF120060CFA0BFB22
:100470002CFA06F644BFB3460026202FA4BF5E46E2
:100480004FF0000B5BEA060C08BF4FF0010B19EBB5
:100490000B09ABFB027C48EB0608C01B06FB02CC39
:1004A0000BFB03CC71EB0C01C1E70B460246414646
:1004B0004846BDE8F08B13B54FF000004FF0000147
:1004C000AFF30080BDE81C407047032A40F2308043
:1004D00010F0030C00F0158011F8013BBCF1020F85
:1004E000624498BF11F801CB00F8013B38BF11F806
:1004F000013BA2F1040298BF00F801CB38BF00F81D
:10050000013B11F0030300F02580083AC0F0088099
:1005100051F8043B083A51F804CBA0E80810F5E77D
:10052000121D5CBF51F8043B40F8043BAFF3008060
:10053000D20724BF11F8013B11F801CB48BF11F8D5
:10054000012B24BF00F8013B00F801CB48BF00F8A5
:10055000012B704710B5203AC0F00B80B1E818505D
:10056000203AA0E81850B1E81850A0E81850BFF49D
:10057000F5AF5FEA027C24BFB1E81850A0E818503C
:1005800044BF18C918C0BDE810405FEA827C24BF90
:1005900051F8043B40F8043B08BF7047D20728BF1E
:1005A00031F8023B48BF11F8012B28BF20F8023B6D
:1005B00048BF00F8012B70474FF0000200B513460A
:1005C00094469646203922BFA0E80C50A0E80C5073
:1005D000B1F12001BFF4F7AF090728BFA0E80C5024
:1005E00048BF0CC05DF804EB890028BF40F8042B1D
:1005F00008BF704748BF20F8022B11F0804F18BF8A
:1006000000F8012B704770477047704700487047EB
:10061000E8490020704770477047704738B5044676
:100620000A4600206946AFF30080002808BF38BDA5
:1006300002460099204600F03FF8012038BD012015
:1006400000F054B8F8B5AFF30080054600200C4622
:10065000102000BF0646A819A0420DD932466946AF
:100660000020AFF30080070008BF00F03FF80098BB
:10067000A04218BF0546C419FFF7C8FF056007462A
:10068000F01D20F007004619284600F00AF8B44291
:1006900008BFF8BDA21B31463868BDE8F84000F03D
:1006A0000BB800210160C0E90110704710207047AD
:1006B00000487047E0490020034640688C46002807
:1006C00018BF88423CBF03464068F8D318681844F6
:1006D000884207D00CF1030020F00700001D411AEA
:1006E000521A0146081D0A60FFF751BE10B500F00E
:1006F00039F8BDE8104000F02FB870477546FFF795
:10070000D7FFAE4605006946534620F007008546F0
:1007100018B020B5FFF7FAFDBDE820404FF0000605
:100720004FF000074FF000084FF0000B21F00701D9
:10073000AC46ACE8C009ACE8C009ACE8C009ACE81C
:10074000C0098D46704710B50446AFF300802046BF
:10075000BDE81040FFF765BD002801D000F02AB8C1
:100760007047000010B5012805D0002103A000F05B
:1007700027F8012010BD09A1F8E7000053494752AE
:10078000544D454D3A204F7574206F662068656161
:1007900070206D656D6F7279000000003A20486529
:1007A0006170206D656D6F727920636F7272757004
:1007B0007465640001491820ABBEFEE72600020004
:1007C00070B505460C460A2000E06D1C00F011F8DB
:1007D00035B128780028F8D102E0641C00F009F84F
:1007E00014B120780028F8D1BDE870400A20AFF39A
:1007F000008008B569468DF800000320ABBE08BD37
:10080000464910B54A6822F440324A604A68436853
:100810001A434A6001684A6822F480724A6001689B
:100820004A68036942EA03224A6001684A6822F082
:1008300040724A6001684A6883681A434A600168E6
:100840008A6822F400628A6001688A68C3681A4371
:100850008A60816A6FF07062D14201688A6822F012
:1008600070628A6001688A680CD0836A1A438A6061
:1008700001688A6822F040528A6001688A68C36A07
:100880001A4301E022F040528A6001688A6822F02F
:1008900002028A6001688A68037E42EA43028A6033
:1008A00090F82010002901684A680FD042F40062D5
:1008B0004A6001684A6822F460424A6001684A68F6
:1008C000174C436A04EB43331A4301E022F40062FD
:1008D0004A600168CA6A22F47002CA620168CA6A80
:1008E000838B104C04EB03531A43CA6201688A6875
:1008F00022F400728A6001688A6890F8303042EA17
:1009000043228A6001688A6822F480628A600168F2
:100910008A68406942EA8020886010BD0023014057
:1009200000E0FFFF0000F0FFFEE770B50546D0F8DD
:100930007C030426C46994F84E0003281AD00428C6
:1009400020D1217B284603F06AFF01281AD1217BA0
:10095000284603F04FFFA16A814214D0628B824285
:1009600011D2091AA162216A08442062032084F886
:100970004E000EE0237B628B2846216A03F058FA72
:1009800084F84E6070BD002084F84E00284603F0C5
:10099000B3FBC5F8E0633146D5F8D803BDE8704035
:1009A000002204F0C5BE0000F8B50546D0F87C036F
:1009B0000127C46994F84D0001280ED002281AD1ED
:1009C000617B284603F02BFF0426012814D002285F
:1009D00011D100BF84F84D7020E0228B606A00972F
:1009E000637B904200D882B22846E16903F030FA76
:1009F000022084F84D00F8BD208B616A00228142FC
:100A000006D9091A6162E3691844E061E2D100E0A5
:100A1000626284F84D20284603F071FBC5F8E0635C
:100A20003146D5F8D803BDE8F840002204F080BE76
:100A300010B500224FEA020100EB8203521CC3F8FA
:100A40008413102AF8D300224FF400738418521C28
:100A500084F81C119A42F9D301704170012282700E
:100A6000C0F8C413027640238371417680F81C13CA
:100A700080F81D2380F81F1380F81E13002010BD7E
:100A8000704772B6FEE7A12202742122427400224E
:100A9000428282820722C28203F055BB78B50024CD
:100AA000009490F83C20012A19D0012280F83C20C3
:100AB0000A6807230568092A13D9EE680A3A02EB87
:100AC000420293409E43EE600B788A680A3B03EB38
:100AD00043039A400368DD682A43DA6010E002208D
:100AE00078BD2E6902EB420293409E432E610B7843
:100AF0008A6803EB43039A4003681D692A431A611D
:100B00004A681F23072A13D205686E6B521E02EB38
:100B1000820293409E436E630B790A885B1E92B2F9
:100B200003EB83039A4003685D6B2A435A6327E013
:100B300005680D2A12D22E6BD21F02EB820293405F
:100B40009E432E630B790A88DB1F92B203EB83036B
:100B50009A4003681D6B2A431A6311E0EE6A0D3A4E
:100B600002EB820293409E43EE620B790A880D3BB2
:100B700092B203EB83039A400368DD6A2A43DA6288
:100B8000164B0568144A9D4206D10D68122D03D1FB
:100B9000556845F48005556005689D4218D10B687D
:100BA000102B01D0112B13D1536843F40003536071
:100BB000096810290CD10A490A4A0968B1FBF2F107
:100BC00001EB8101490000E0491E00910029FBD1A1
:100BD00080F83C40002078BD002301400020014007
:100BE0005C00002040420F0070B504004FF000058B
:100BF00003D0206C002610B107E0012070BD204614
:100C000000F01CF8666484F83C60206CC00610D4C8
:100C1000206C20F4885040F0020020642046FFF74A
:100C2000EFFD6664206C20F0020040F001002064BB
:100C300000E0012584F83C60284670BD30B587B0DF
:100C4000044614216846FFF7B7FC1949206888421A
:100C50002CD118480024016841F4807101600068BB
:100C600000F48070059013481438016841F00101C8
:100C70000160016801F001010591016841F0020184
:100C800001600068032500F0020005900A20CDE90C
:100C9000000569460294084800F024F80120CDE9D7
:100CA000000569460294054800F01CF807B030BD05
:100CB000002001404438024000000240000402408D
:100CC00070B5044600F00CF90546601C02D00448DB
:100CD0000078044400F004F9401BA042FAD370BD30
:100CE000500000202DE9F84FDFF8BCA100220125BB
:100CF00003264FF00F090AF1040BAAF1040E00BFFE
:100D00000B6805FA02F42340A34270D10F7907F073
:100D10000307012F01D0022F16D187684FEA42083E
:100D200006FA08FC27EA0C07D1F80CC00CFA08FCFC
:100D30004CEA070CC0F808C04768A7430C79C4F315
:100D4000001494403C4344600C79E443A4070AD067
:100D5000C4684FEA420C06FA0CF7BC438F6807FAE6
:100D60000CF72743C7600C7904F00304022C12D15E
:100D7000D40800EB840CDCF820405707FF0E09FA7A
:100D800007F824EA0804D1F8108008FA07F848EABE
:100D90000408CCF8208004684FEA420C06FA0CF7ED
:100DA000BC430F7907F0030707FA0CF727430760E6
:100DB0004C6814F4403F70D03C4C276847F480479F
:100DC0002760246822F0030704F480440094384C20
:100DD00007EB040CDCF8084897074FEA177809FA84
:100DE00008F7BC43334FB84202D1002724E054E057
:100DF000314FB84201D101271EE0304FB84201D136
:100E0000022719E02E4FB84201D1032714E02D4FDD
:100E1000B84201D104270FE02B4FB84201D105277A
:100E20000AE02A4FB84201D1062705E0284FB84210
:100E300001D1072700E0082707FA08F72743CCF875
:100E40000878DAF800405746D1F804C09C435FEABE
:100E5000CC2C00D51C433C60DBF800405F46D1F849
:100E600004C09C435FEA8C2C00D51C433C60DEF838
:100E700000407746D1F804C09C435FEA8C3C00D523
:100E80001C433C60084F083F3C68D1F804C09C43B9
:100E90005FEACC3C00D51C433C60521C102AFFF496
:100EA0002FAFBDE8F88F0000083C014044380240F5
:100EB00000300140000002400004024000080240EF
:100EC000000C0240001002400014024000180240D2
:100ED000001C02400AB1816170470904FBE7000071
:100EE000014880687047000050000020D0F80003DF
:100EF00003F043BCD0F8000303F050BC006804F0DA
:100F000089B8006804F08AB801EB410202EBC10124
:100F100000EB810090F86000704701EB410202EBAA
:100F2000C10100EB8100006D704710B5044690F8D8
:100F3000F802012809D0012084F8F802206804F0A2
:100F400078F8002084F8F80210BD022010BD2DE9C9
:100F5000FE430546DDE90B7095F8F842DDF828C040
:100F6000012C1ED001EB410404EBC1044FF0010938
:100F700005EB840485F8F892002684F83D6084F837
:100F80003830A4F8400084F8391084F83F7002F03B
:100F90007F0884F83A805FEA026805D584F83B90C0
:100FA00004E00220BDE8FE8384F83B6084F83CC086
:100FB000CDF800C0CDE90170286804F09DF885F8EF
:100FC000F862EFE7D0F8000303F064BC2DE9F0030A
:100FD00001EB4104DDE906C9DDE9087504EBC10454
:100FE00000EB8404022684F83B2084F83F30BCF1F7
:100FF000000F0AD084F8426000256BB1012B2FD07E
:10100000022B12D0032B16D10FE04FF0030884F807
:10101000428084F83D50EFE7BCF1010F0BD152B98B
:10102000DFB9012284F8552003E0B2B194F85420CE
:10103000B2B184F84260C4F84490E76484F8605028
:10104000256584F8391084F86150027C04F1380178
:101050000068BDE8F00304F0D8B894F85520E7E73D
:1010600084F84250E7E72DE9F0410668044630462F
:1010700003F0DBFF012875D1206804F0EAF90028AD
:1010800070D0206804F0E5F9800203D521684FF4A0
:1010900000104861206804F0DCF9C00203D5216823
:1010A0004FF480104861206804F0D3F9400103D563
:1010B00021684FF080604861206804F0CAF9800719
:1010C00002D5216802204861206804F0C2F980003E
:1010D00015D521684FF000504861D6F84004C0078C
:1010E0000DD11021304603F075FF304603F054FF58
:1010F0000121206804F092F92046FFF7FBFE2068EA
:1011000004F0A7F9C00102D5204601F022FF2068B3
:1011100004F09FF9000705D5204600F0D0F82168BB
:1011200008204861206804F094F9C043C0060CD43C
:101130002068816921F010018161204601F053FF90
:101140002068816941F010018161206804F081F913
:10115000800123D5206804F054F8074600254FF09D
:10116000010814E01AE005F00F0108FA01F0384216
:101170000CD006EB4510D0F80005E9B2000420467B
:1011800002D501F0E3FC01E001F0D5FD6D1CA06883
:10119000A842E8D821684FF000704861BDE8F081AE
:1011A00070B58AB0040005D094F8F90225680026CD
:1011B00018B107E001200AB070BD84F8F86220463B
:1011C00000F028F8032084F8F902E86BC00500D489
:1011D0002661206803F0ACFE04F1100128220D46C0
:1011E0006846FFF7B7F994E80F0003F047FE0121C6
:1011F000206804F06AF9282229466846FFF7AAF910
:1012000094E80F0004F0A2F8012084F8F90200200D
:10121000D1E7000030B587B0044614216846FFF7D7
:10122000CBF92068B0F1A04F38D11D4800240168E7
:1012300041F00101016000681A4D00F001000590C5
:101240004FF40070CDE90004694628460294FFF788
:1012500049FD4FF4E05000900220CDE901040A203E
:10126000CDE9034069462846FFF73CFD0C48001DC8
:10127000016841F08001016009481430016841F4BF
:10128000804101600068002200F480400590052143
:10129000432000F0E3FB432000F0D2FB07B030BD59
:1012A0003038024000000240D0F8000303F00BBBCE
:1012B000D0F8000303F00BBB006804F0EDB8D0F8E1
:1012C000000303F0B0BA10B5044690F8F802012804
:1012D0000DD0012084F8F8020121206803F040FEBF
:1012E000206803F053FE002084F8F80210BD0220AD
:1012F00010BD10B5044690F8F802012809D001206D
:1013000084F8F802206804F00EF9002084F8F8024E
:1013100010BD022010BD000070B5040025D094F867
:101320003D00002520B984F83C50204600F0B8F874
:10133000242084F83D002068016821F0010101604B
:101340002068016841F4004101602068016821F4CF
:101350000041016000F03AFD4D4A6168914201D8B8
:101360004C4900E04C49884201D2012070BD4B49F4
:101370002368B0FBF1F15E6826F03F060E435E6025
:101380006368934206D94FF4967359434FF47A73C6
:10139000B1FBF3F12368491C1E6A26F03F06314376
:1013A00019626168914210D84900401EB0FBF1F209
:1013B000521CC2F30B02042A01D2042022E0B0FB2B
:1013C000F1F0401CC0F30B001CE0A268F2B301EB8B
:1013D000C10303EB0116431EB3FBF6F35B1C43F49E
:1013E00080431B0549D092B301EBC10202EB01110E
:1013F000401EB0FBF1F0401CC0F30B0040F48040F5
:1014000040F400402168CA694CF6FF739A431043C8
:10141000C861D4E9071001432068026822F0C002C5
:1014200011430160D4E9030101432068826848F256
:10143000FF339A4311438160D4E9050108432168D1
:10144000CA6822F0FF021043C86001E00EE016E017
:101450002068016841F0010101602564202084F8C2
:101460003D00256384F83E50002070BD01EB41062D
:10147000431EB3FBF6F35B1CB3E70120C2E701EBAD
:101480004101401EB0FBF1F0401CC0F30B00B7E778
:10149000A086010080841E0000093D0040420F002C
:1014A00010B586B0044614216846FFF785F8144944
:1014B0002068884221D113480021026842F00202CC
:1014C0000260006800F0020005904FF41070009078
:1014D000122001900120CDE9020104200490694608
:1014E0000948FFF7FFFB07481030016841F400117D
:1014F0000160006800F40010059006B010BD000007
:101500000054004030380240000402402DE9FF4101
:1015100004460068816800917749784E4FF0402773
:10152000884201D1324600E03A4692680192406812
:101530008846029001D1304600E03846406803906A
:1015400060684FF00105B0F5007F1CD0D8B190075E
:1015500005D50398000602D5204601F0BBFD009892
:10156000C0070FD0029840067FD521682046CA6880
:10157000E16A8B1CE3620A80618E491E6186618E7E
:10158000002967D071E00098800719D502980006FD
:1015900016D5616A20468A1C626222680988D16079
:1015A000618D491E6185618D51B901684A6822F0DB
:1015B000A0024A60418E19B980F8415000F0A0F8AD
:1015C0000198C00705D00398400602D5204601F0D7
:1015D00051FD0198400622D5039880061FD5216849
:1015E000414501D1304600E03846406820F06001B6
:1015F00001D1304600E0384641602068416821F062
:10160000A00141602068C1688068019084F8415061
:10161000606C40F002006064204600F072F80098B0
:10162000000767D50298800664D52068416821F0DC
:10163000A00141602168414501D1304600E03846B3
:10164000406820F0600000D03E46706020688068EE
:10165000009043E001684A6822F060024A60418DD0
:1016600019B980F8415000F04BF8009840061ED59B
:10167000029880061BD52068416821F06001416016
:101680002168414501D1304600E03846406820F0ED
:10169000A00101D1304600E03846416084F8415055
:1016A000606C40F002006064204600F02AF8019867
:1016B00000071FD5039880061CD52168414501D13C
:1016C000304600E03846406820F0A00000D03E469A
:1016D00070602068416821F06001416084F84150E9
:1016E000606C40F00400606404B02046BDE8F04146
:1016F00000F007B8BDE8FF8100380040003400402A
:10170000704770472DE9F047040005D094F8410078
:101710004FF0000818B109E00120BDE8F08784F817
:10172000408051486063204600F0A6F8022684F805
:1017300041602068C16940F6BF77B943C161206844
:10174000066260694FF4007902282FD0E06870B11A
:101750002025A068202800D86D00012000F0B0F9F5
:10176000216949451FD1E16819B1A90002E010259E
:10177000EFE7E900B0FBF1F000EB800061694000A9
:10178000B0FBF1F0401D0A21B0FBF1F000F00101C7
:10179000401A40080902821EFE2A09D3606C40F0FC
:1017A00010006064B8E7B0FBF5F0E5E70220002127
:1017B00022690843024320680262D4E90101084318
:1017C000A269E168114308432168CA69BA4310431A
:1017D00040F40060C861206A01283AD12348606360
:1017E00023482168234A4FF04023814201D111460A
:1017F00000E01946C96921EA070101D1154600E058
:101800001D46E9612168814201D1114600E0194677
:101810000E622568854201D1114600E01946C9696A
:101820008EB2616849451BD0D1B100212789B4F837
:101830000CC047EA0C07B4F818C04CEA010C47EAA0
:101840000C07B9B2314341F40061854200D01A4619
:10185000D161C4F84480012084F8410000205CE795
:101860004FF48071E2E70000353100080D150008E3
:10187000003800400034004070B58AB0054614219D
:101880006846FEF799FE0024059406940794089490
:101890002149286888423CD101200590C0200225BA
:1018A000CDE9060505A800F039F908B1FFF7E9F818
:1018B0001A48016841F400410160006800F40040EA
:1018C000099016481038016841F001010160016873
:1018D00001F001010991016841F004010160006813
:1018E000062600F00400099010200090CDE9015474
:1018F000CDE9034669460A48FFF7F4F94FF4A450CE
:101900000090CDE90154CDE9034669460548FFF74B
:10191000E9F90AB070BD0000003C004040380240C8
:10192000000002400008024070477047024881688A
:101930000278114481607047500000200B4810B5B8
:10194000016841F400710160016841F48061016047
:10195000016841F480710160032000F09FF80F20BE
:1019600000F006F800F050F8002010BD003C0240E6
:1019700030B50546204887B00024016841F00101D8
:101980000160006806A900F00100009001A800F0C5
:10199000FDF90498B0B100F019FA400017494FF072
:1019A0008042B0FBF1F11648491E026040F2E73276
:1019B000C0E90324C0E90114846100F0C9FD0400FA
:1019C00003D015E000F002FAE8E70D4800F0EEFD64
:1019D00004000DD11C2000F033F8102D07D2002296
:1019E00029461C2000F03AF80648056000E0012472
:1019F00007B0204630BD00004038024040420F0092
:101A0000C0050020540000200C4882B0016841F459
:101A100080410160006800F4804000900748001F8A
:101A2000016841F0805101600068002200F08050A0
:101A300000900F21901E02B000F010B84438024010
:101A4000002809DB00F01F020121914040098000BD
:101A500000F1E020C0F8001170470000F0B40E4B18
:101A60001B680C46C3F30223C3F10705042D00D9FC
:101A70000425191D072901D2002300E0DB1E0126E1
:101A800006FA05F1491E214099409E40761E1640F7
:101A90003143F0BC03F0A1BD0CED00E0064900F0BD
:101AA000070208684FF6FF03184040EA0220034A85
:101AB00010430860704700000CED00E00000FA05DC
:101AC00001460020012907D11049096811F40001DD
:101AD00003D0012900D10E4870470C48001F01684F
:101AE0000068490200F03F0001D50A4900E00A49B8
:101AF000064AB1FBF0F07C321168C1F38811414312
:101B00001068C0F30270B1FBF0F070470838024073
:101B10000080BB0000127A000024F4002DE9F84395
:101B2000054600684FF00109C1074FF0000601D1DA
:101B3000400727D5DFF80C81C8F86860FFF7D0F9B7
:101B40000746414C05E000BFFFF7CAF9C01B022859
:101B500057D820680001F7D468688101287A41EAE3
:101B60000070394984310860C8F86890FFF7B8F907
:101B7000074604E0FFF7B4F9C01B022841D82068EB
:101B80000001F7D52878800752D52F4840300168EA
:101B900041F08051016000682C4C00F080500090B2
:101BA000206840F480702060FFF79AF9074604E04F
:101BB000FFF796F9C01B022823D82068C005F7D587
:101BC000214C7034206810F4407020D0A98901F4B1
:101BD000407181421BD020681D4920F44070C1F83B
:101BE00000900E6020602068C00710D0FFF778F9E1
:101BF000064641F2883707E0FFF772F9801BB842CA
:101C000002D90320BDE8F88320688007F4D5E9688D
:101C10000D48C1F301220830032A0BD0016821F4DA
:101C2000F81101602068A989C1F30B010843206005
:101C30000020E7E70268074B22F4F81219400A4334
:101C40000260EFE7000047420038024000700040A9
:101C5000400E4742FFFCFF0F2DE9F0470E460500FE
:101C600065D0DFF81481D8F80000F7B200F0070063
:101C7000B04207D288F80070D8F8000000F00700E2
:101C8000B04254D128683D4C810712D5400703D596
:101C9000206840F4E05020602878000703D52068D1
:101CA00040F4604020602068A96820F0F0000843FC
:101CB00020602878C0072DD030496868083901288D
:101CC00012D0022813D0032811D0096889070029EF
:101CD0002DDA216821F0030101432160FFF700F9AB
:101CE000814641F2883A0EE009688903EFE7096806
:101CF0008901ECE7FFF7F4F8A0EB0901514502D99F
:101D00000320BDE8F0872068696800F00C00B0EBA4
:101D1000810FEFD1D8F80010404601F00701B14221
:101D200007D90770006800F00700B04201D0012019
:101D3000E7E72878400705D52068E96820F4E050F7
:101D4000084320602878000706D52068296920F418
:101D5000604040EAC100206000F058F82168084A5D
:101D6000C1F30311515CC840064908600648006889
:101D7000FFF7FEFD0020C4E7003C024008380240A7
:101D8000646C00085C000020540000200F220260F8
:101D90000C4A136803F003034360136803F0F00375
:101DA0008360136803F4E053C36012684FF4E05398
:101DB00003EAD20202610448006800F007000860EC
:101DC0007047000008380240003C024004480549C2
:101DD00000680968044AC1F38221515CC840704719
:101DE0005C00002008380240746C00080448054973
:101DF00000680968044AC1F34231515CC840704729
:101E00005C00002008380240746C0008154810B5CA
:101E1000006810F00C02144813D04110042A0FD0AF
:101E2000082A0ED10F4C241F2268236802F03F02BB
:101E30005B0207D52068C0F38810A0FB010106E013
:101E4000084610BD2168C1F38811A1FB00010023E1
:101E5000FEF7C4FA2168C1F30141491C4900B0FBF7
:101E6000F1F010BD083802400024F4002DE9F84FCD
:101E700004006ED02078DFF84C93C007A9F1040568
:101E80004AD009F104000168C1F38101012908D099
:101E90000068C0F3810002280AD1D9F8000040028E
:101EA00006D52868800337D560680028E1D033E084
:101EB0006068B0F5803F10D0B0F5A02F286810D032
:101EC00020F480302860286820F480202860606832
:101ED000A8B1FFF705F806460DE0286840F4803009
:101EE000F4E740F480202860F7E700BFFEF7F8FF32
:101EF000801B642873D828688003F7D50CE0FEF7B0
:101F0000EFFF064605E000BFFEF7EAFF801B6428EE
:101F1000F0D828688003F7D42078DFF8AC828007F7
:101F20004FF0000A3ED5A748001D016811F00C0FC4
:101F300008D00068C0F3810002280BD1D9F8000056
:101F4000400207D42868800716D5E068012800D130
:101F500012E033E1E068B8B10120C8F80000FEF7F4
:101F6000BFFF064605E000BFFEF7BAFF801B022850
:101F7000C0D828688007F7D52868216920F0F800C4
:101F800040EAC10028600DE0C8F800A0FEF7A8FFF5
:101F9000064604E0FEF7A4FF801B02281FD828682D
:101FA0008007F7D42078000722D5864F87486169DB
:101FB000703771B101210160FEF792FF064604E01F
:101FC000FEF78EFF801B022809D838688007F7D5F6
:101FD0000EE0C0F800A0FEF783FF064605E082E0B1
:101FE000FEF77EFF801B02287DD838688007F7D473
:101FF0002078400768D5DFF8CCB100270BF13C0B07
:10200000DBF80000C0000BD4DBF8001041F0805179
:10201000CBF80010DBF80000012700F080500090A2
:102020006B4E3068C00510D4306840F4807030606A
:10203000FEF756FF009005E0FEF752FF0099401AA8
:10204000022850D83068C005F6D55E4EA0686C36C0
:1020500001280FD00528306810D020F00100306032
:10206000306820F004003060A068B8B1FEF738FF97
:1020700000900FE0306840F00100F4E740F0040009
:102080003060F7E7FEF72CFF0099411A41F28830E3
:10209000814266D830688007F4D50EE0FEF720FF55
:1020A000009007E0FEF71CFF0099411A41F28830CA
:1020B000814256D830688007F4D42FB1DBF8001085
:1020C00021F08051CBF80010A069C8B33D49091D2B
:1020D0000968C1F3810102294AD00228504607D07D
:1020E000C8F8600000E03CE0FEF7FAFE04463BE082
:1020F0004746C8F86000FEF7F3FE064605E000BF5D
:10210000FEF7EEFE801B02282BD828688001F7D44A
:10211000D4E907010843A16A2E4A490802EB0141AC
:10212000626A41EA8211084394F82C1040EA016186
:10213000C9F8001001203866FEF7D2FE044606E01A
:102140003EE000BFFEF7CCFE001B022809D828683D
:102150008001F7D534E000BFFEF7C2FE001B022865
:1021600002D90320BDE8F88F28688001F4D427E065
:102170000128F7D0D9F80000E26900F4800191420B
:102180001CD1226A00F03F01914217D147F6C0717D
:10219000626A0140B1EB821F10D1A26A4FF0FF3397
:1021A00000F4403103EB5202B1EB024F06D194F838
:1021B0002C1000F07060B0EB016F01D00120D1E76E
:1021C0000020CFE70438024000004742800E47421B
:1021D000007000400000FFFF10B5040002D0607FD7
:1021E00010B106E0012010BD00202077204600F04D
:1021F00039F8022060772168CA204862216853209C
:102200004862204601F076FB30BB20688168144AA2
:10221000114081602168886862681043D4E9042312
:102220001A43104388602168E068086120680169EA
:10223000228941EA02410161204601F07FFB58B941
:1022400021680A6C22F480220A6421680A6CA3695E
:102250001A430A64012161772268FF21516210BD8F
:10226000BFFF8FFF1FB500210091019102910391E3
:102270000068084988420CD10220009000020390B7
:102280006846FFF74BFC08B1FEF7FBFB0249012053
:1022900008601FBD002800403C0E474270B5044650
:1022A0000068C16821F0A001C160FEF719FE054673
:1022B0004FF47A7607E000BFFEF712FE401BB042F3
:1022C00001D9032070BD2068C0688006F4D50020C5
:1022D00070BD70B5040009D0606A002540B1256169
:1022E0006561A56294F8510040B10CE0012070BD19
:1022F0006068B0F5827FF4D0E561F2E784F8505071
:10230000204600F045F8022084F85100206801685A
:1023100021F040010160A088218900F4827001F45D
:1023200004410843A18901F400610843217C01F0C4
:1023300002010843217D01F001010843218B01F4D2
:1023400000710843217F01F03801084394F8201000
:1023500001F080010843218D01F4005108432168F8
:102360000860A069042101EA104094F8241001F0EB
:1023700010010843216848602068C16921F40061A8
:10238000C1616565012084F85100002070BD000026
:10239000F0B587B0044614216846FEF70DF92C4AC3
:1023A000216800242B480225052691421AD129498B
:1023B00014310A6842F480520A60096801F48051BD
:1023C0000591016841F0010101600068694600F073
:1023D00001000590E0200090CDE90154CDE90346CD
:1023E0001D4830E01D4A91422FD11A4910310A6828
:1023F00042F480420A60096801F480410591016855
:1024000041F004010160016801F0040105910168D7
:1024100041F0020101600068032700F0020005900E
:102420000420CDE90005CDE90247694604960C4831
:10243000FEF758FC4FF42040CDE90005CDE90247F6
:10244000694604960748FEF74DFC07B0F0BD000052
:1024500000300140303802400000024000380040A7
:1024600000080240000402407047704710B590F821
:102470003C20012A22D0012280F83C20CA688C68C6
:1024800022F4407222434C6822F4806222430C689A
:1024900022F4006222430C6922F4805222434C69E8
:1024A00022F400522243C969002322F480420A43E5
:1024B00001684A6480F83C30002010BD022010BD45
:1024C00070B590F83C20012A32D0012480F83C40BD
:1024D000022280F83D2003685A689D6822F0700649
:1024E0000A6832435A60134B02689A4214D0B2F120
:1024F000804F11D0104B9A420ED0104B9A420BD005
:102500000F4B9A4208D00F4B9A4205D00E4B9A427D
:1025100002D00E4B9A4204D1496825F0800319433A
:10252000916080F83D40002180F83C10084670BD65
:10253000022070BD0000014000040040000800407F
:10254000000C004000040140004001400018004021
:1025500010B5040003D094F83D0010B107E001204D
:1025600010BD002084F83C00204600F01EF8022038
:1025700084F83D00211D206801F092FA012084F8C2
:10258000460084F83E0084F83F0084F8400084F858
:10259000410084F8420084F8430084F8440084F841
:1025A000450084F83D00002010BD704790F83D10B4
:1025B000012901D001207047022180F83D100168F7
:1025C000CA6842F00102CA6000681149884214D00A
:1025D000B0F1804F11D00F4988420ED00E49884289
:1025E0000BD00E49884208D00D49884205D00D49CC
:1025F000884202D00C49884204D1816801F0070169
:10260000062903D0016841F00101016000207047F4
:10261000000001400004004000080040000C0040A1
:10262000000401400040014000180040704770B5B0
:102630000446006801694FF00005C943890715D4B5
:10264000C168C943890711D4E91E016101202077BF
:10265000206880698007204602D0FFF7E7FF04E08A
:1026600000F0EBF8204600F0BFF9257720680169FB
:10267000C943490717D4C168C943490713D46FF048
:1026800004010161022020772068806910F4407FF6
:10269000204602D0FFF7CAFF04E000F0CEF8204643
:1026A00000F0A2F9257720680169C943090716D40B
:1026B000C168C943090712D46FF008010161042001
:1026C00020772068C0698007204602D0FFF7AEFF60
:1026D00004E000F0B2F8204600F086F92577206883
:1026E0000169C943C90617D4C168C943C90613D4CF
:1026F0006FF010010161082020772068C06910F494
:10270000407F204602D0FFF791FF04E000F095F8EB
:10271000204600F069F9257720680169C943C90797
:1027200008D1C168C943C90704D1891E0161204687
:1027300000F05BF920680169C943090609D4C16842
:10274000C943090605D46FF0800101612046FFF7F7
:102750008BFE20680169C943490609D4C168C94391
:10276000490605D46FF040010161204600F044F9AC
:1027700020680169C94389060BD4C168C943890629
:1027800007D46FF0200101612046BDE87040FFF7DB
:102790006CBE70BD10B586B0044614216846FDF7C6
:1027A0000BFF0E492068884216D10D4800210268AF
:1027B00042F010020260006800F0100005904FF433
:1027C000D44000900220CDE901010120CDE90310A1
:1027D00069460448FEF786FA06B010BD00000140C5
:1027E000303802400010024070B5044690F83C00BA
:1027F000002501280FD0012084F83C006AB1042A8A
:102800000FD0082A11D00C2A13D00125002084F8FB
:102810003C00284670BD022070BD206801F0A4F97C
:10282000F4E7206801F0D0F9F0E7206801F002FA3F
:10283000ECE7206801F032FAE8E7704710B50400D1
:1028400003D094F83D0010B107E0012010BD002036
:1028500084F83C00204600F01EF8022084F83D0079
:10286000211D206801F01CF9012084F8460084F83D
:102870003E0084F83F0084F8400084F8410084F86A
:10288000420084F8430084F8440084F8450084F84A
:102890003D00002010BD704770B5044690F83C0024
:1028A00000260D4601280FD0012084F83C006AB1B3
:1028B000042A1DD0082A2FD00C2A3FD00126002040
:1028C00084F83C00304670BD022070BD206801F0E5
:1028D0004BF92068816941F00801816120688169B4
:1028E00021F004018161206881692A69114311E0A6
:1028F000206801F069F92068816941F40061816113
:102900002068816921F480618161206881692A6978
:1029100041EA02218161D2E7206801F08BF9206849
:10292000C16941F00801C1612068C16921F0040159
:10293000C1612068C1692A69114311E0206801F072
:10294000ADF92068C16941F40061C1612068C169C5
:1029500021F48061C1612068C1692A6941EA0221CC
:10296000C161ACE710B5040003D094F83D0010B18C
:1029700007E0012010BD002084F83C00204600F054
:102980001FF8022084F83D00211D206801F088F81E
:10299000012084F8460084F83E0084F83F0084F863
:1029A000400084F8410084F8420084F8430084F831
:1029B000440084F8450084F83D00002010BD00006C
:1029C00008B500680649884208D10648016841F008
:1029D00001010160006800F00100009008BD0000E6
:1029E000000001404438024070470068B0F1804F59
:1029F00001D1FEF79BBF7047704770B5040004D04B
:102A000094F83D00002510B106E0012070BD84F867
:102A10003C50204600F022F8242084F83D00206835
:102A2000C16821F40051C160204601F05FF92068BF
:102A3000016921F4904101612068416921F02A0176
:102A400041612068C16841F40051C16025642020C3
:102A500084F83D0084F83E00002070BD2DE9F0416F
:102A600086B0044614216846FDF7A6FD3248314B76
:102A70002268002430491038022503260727DFF892
:102A8000BC809A4223D10A6842F400320A60096885
:102A900001F400310591016841F001010160016814
:102AA00001F001010591016841F008010160006831
:102AB00002AA00F0080005900420CDE9000582E894
:102AC000D00069461E48FEF70DF9402026E01D4B58
:102AD0009A422CD10A6842F480220A60096801F403
:102AE00080210591016841F002010160016801F057
:102AF00002010591016841F008010160006802AA25
:102B000000F008000590D814CDE9000582E8D00057
:102B100069460D48FEF7E6F84FF48070CDE90005F0
:102B200002AA694682E8D0004046FEF7DBF806B00C
:102B3000BDE8F0810044004040380240000C0240F3
:102B40000000024000480040000402402DE9F04728
:102B5000074600680D4600EB4116D6F8080501EB64
:102B60004103420703EBC5014FF006004FF0040894
:102B70004FF0050A07EB810401D541463CE0D6F849
:102B80000815C90507D54FF48070C6F80805072059
:102B900084F861001CE0D6F80815890603D52020CA
:102BA000C6F8080518E0D6F808150A074FF008011E
:102BB00004D5C6F8081584F861A009E0D6F8082500
:102BC000520514D54FF48060C6F8080584F86110EA
:102BD0002946386802F02DFAD6F8080580050ED58A
:102BE0002946386802F025FA4FF40070A0E0D6F8C4
:102BF00008150906F0D58021C6F80815C8E7D6F8EB
:102C000008054FF00001C0074FF010094FF0010216
:102C10003BD0386930B1A06CD6F81035C3F312033D
:102C2000C01A206584F86120E165C6F8082594F88B
:102C30003F0030B1022804D0032809D0012807D072
:102C400012E02946386802F0F4F9C6F808950BE05E
:102C5000D6F8000540F00050C6F8000584F8602062
:102C600029463846FEF7AEF93869012806D1B4F88E
:102C70004010A06CB0FBF1F0C00704D014F8540F62
:102C800080F001002070BDE8F087D6F808058007C5
:102C900035D594F86100022301280AD005280BD00D
:102CA00006280CD008280AD003280FD0072818D0EF
:102CB0001CE084F8602019E084F860A016E0E06D64
:102CC000401CE065022801D9E1650DE084F8603020
:102CD000D6F8000520F0804040F00040C6F800051E
:102CE00004E0E06D401CE06584F86080C6F80835BB
:102CF00094F8602029463846FEF764F9C3E7D6F811
:102D00000805C006BFD594F83F00032803D020B1C2
:102D1000022802D00BE0E16505E0E165386930B9D1
:102D2000032084F861002946386802F082F9484699
:102D3000C6F80805A7E72DE9F047026802EB411441
:102D4000D4F8082501EB4103550703EBC1034FF00D
:102D500004024FF0060A00EB830304D5C4F80825EB
:102D600083F861A051E0D4F808554FF00007AD0694
:102D70004FF0020C0BD52022C4F8082593F83D2013
:102D8000012A33D183F83D7083F860C03DE0D4F868
:102D90000855AD0504D54FF40072C4F8082534E099
:102DA000D4F808554FF001065FEAC5784FF04005AA
:102DB0000DD0DF65D4F80825520603D583F83D60B1
:102DC000C4F80855C4F8086583F861601DE0D4F8BC
:102DD00008855FEA48680BD583F8612083F83D6079
:102DE000DF65006802F025F9C4F80855BDE8F087F2
:102DF000D4F808554FF008095FEA05784FF005054B
:102E000008D5C4F8089583F861500068BDE8F0471C
:102E100002F00FB9D4F808855FEAC86810D503221C
:102E2000DF6583F8612093F83D2022B993F83C20B8
:102E30000AB983F83D60006802F0FBF810201AE040
:102E4000D4F808855FEA086818D5056955B1DD6DC5
:102E50006D1CDD65022D0BD9DF6583F86020FEF760
:102E6000B1F807E083F861A0006802F0E2F801E041
:102E700083F860C08020C4F80805B7E7D4F8088557
:102E80005FEA485807D583F86190006802F0D1F8EE
:102E90004FF48060EFE7D4F808855FEA8878A5D51D
:102EA00093F86180B8F1010F0FD0B8F1030F30D063
:102EB000B8F1040F2DD0B8F1050F2DD0B8F1060FE1
:102EC0002DD0B8F1080F2AD03CE083F8606093F869
:102ED0003F20022A01D0032A34D102692AB993F88B
:102EE000552082F0010283F855200269012A29D178
:102EF000DA6C3AB3B3F840502A44521EB2FBF5F2F2
:102F0000D2071FD093F8552082F0010283F8552094
:102F100018E083F860C015E083F8605012E0DD6DC2
:102F20006D1CDD65022D03D9DF6583F8602009E0A3
:102F300083F860C0D4F8002522F0804242F00042BD
:102F4000C4F80025C4F808C593F86020FEF73AF8E5
:102F50004CE77CB504680546D4F840040190D4F8E9
:102F6000400420F02E0000900198800709D50198B8
:102F7000C00702D02846FDF7B9FF009840F00200D4
:102F800000900198000724D5009840F008000090B8
:102F9000019840071AD5A869022803D0E8680128DB
:102FA0000CD00FE00198C0F341400228286803D0FC
:102FB000012102F033FA05E00221FAE74EF6602023
:102FC000C4F804042846FEF773F902E02846FEF729
:102FD0006BF901988006009802D540F0200000901F
:102FE000C4F840047CBD2DE9F04102460068064665
:102FF000016AC1F3434301F00F07C1F30A15022B25
:1030000031D1002D2FD007EB470101EBC70102EBB7
:103010008104616C002926D0226DE36C2A449A4217
:1030200023D82A4602F019FA606C28446064206DA7
:103030002844206506EB4710D0F81015B4F840205E
:10304000C1F3C941AA420ED100290CD0D0F8001515
:1030500021F0804141F00041C0F8001514F8540FF0
:1030600080F001002070BDE8F081042084F8600049
:10307000F9E7FEE770B515490268154B4FF040249B
:103080008A4201D11A4600E02246D568C26A961CDF
:10309000C6621580428E521E4286428E002A14D18C
:1030A00002688A4201D1194600E02146496821F0B0
:1030B000600100D023465960418D002905D14FF0B1
:1030C000010180F84110FEF71BFB70BD0038004085
:1030D0000034004070B5416A144B8A1C4262056896
:1030E0000988134A4FF040249D4201D1154600E063
:1030F0002546E960418D491E4185418D002914D145
:103100000168994201D1114600E02146496821F049
:10311000A00100D022465160418E002905D14FF018
:10312000010180F84110FEF7EBFA70BD0038004055
:10313000003400407CB5016804468868009094F82B
:1031400041000125042834D10098C00718D04868F0
:10315000C043400614D4C9682046E26A1180E16A7F
:10316000891CE162618E491E6186618E41B90168E8
:103170004A6822F060024A6080F84150FEF7D4FBB2
:103180000098400615D520684168C943890610D4C7
:10319000416821F0600141602068C1688068019049
:1031A00084F84150606C40F0020060642046FEF7F5
:1031B000A8FA94F84100032834D10098800719D563
:1031C00021684868C043000614D4626A2046128809
:1031D000CA60616A891C6162618D491E6185618D69
:1031E00041B901684A6822F0A0024A6080F8415063
:1031F000FEF79BFB0098000714D520684168C9437F
:1032000089060FD4416821F0A001416020688068E0
:10321000009084F84150606C40F0040060642046E7
:10322000FEF76FFA7CBD00007FB5002415480094BE
:10323000019402941249039401604FF48031C0E973
:1032400001140461047680F820400F49C0E90A1493
:103250000125C561C46080F830404561FDF7C4FCBC
:1032600008B1FDF70EFC0095CDE90154694605480B
:10327000FDF714FC002801D0FDF703FC7FBD000022
:10328000002001403C0300200100000F20B101227A
:1032900001210248FDF71EBE0022F9E700080240A6
:1032A00030B5E3B000255A9501215AA85B9502F08C
:1032B0006DFA624C0121E0635C955CA85D9502F0BB
:1032C00065FA20645E9501215EA85F9502F05EFAC2
:1032D00060646095012160A8619502F057FA584D2D
:1032E000A0640DF58C7C95E80F008CE80F000021A0
:1032F00046A802F0BFF91035A06295E80F000DF561
:10330000947C103D8CE80F0000214AA802F0B2F92D
:103310002035E06295E80F000DF59C7C203D8CE89F
:103320000F0000214EA802F0A5F93035206395E882
:103330000F000DF5A47C303D8CE80F00002152A851
:1033400002F098F94035606395E80F0056AD85E8C6
:103350000F00002156A802F08DF93949A0631C2204
:1033600050316846FDF7F6F80021684602F02DFA64
:10337000334920601C226C3107A8FDF7EBF80021CF
:1033800007A802F022FA2E4960601C2288310EA89C
:10339000FDF7E0F800210EA802F017FA2849A06016
:1033A0001C22A43115A8FDF7D5F8002115A802F0BC
:1033B0000CFA2349E0601C22C0311CA8FDF7CAF8B2
:1033C00000211CA802F001FA1D4920611C22DC31F9
:1033D00023A8FDF7BFF8002123A802F0F6F9184949
:1033E00060611C22F8312AA8FDF7B4F800212AA850
:1033F00002F0EBF9A0611C22124931A8FDF7AAF8EE
:10340000002131A802F0E1F90E49E0611C221C31D3
:1034100038A8FDF79FF8002138A802F0D6F909492D
:1034200020621C2238313FA8FDF794F800213FA804
:1034300002F0CBF9606263B030BD000000000020F4
:10344000FC6A0008106C00082DE9F04F87B01421C9
:103450006846FDF7B1F868480024016841F01001A2
:103460000160016801F010010591016841F004015B
:103470000160016801F004010591016841F08001DB
:103480000160016801F080010591016841F00101CE
:103490000160016801F001010591016841F002013C
:1034A0000160016801F002010591016841F0080125
:1034B00001600068514F00F008000590002278215B
:1034C0003846FDF707FDDFF838A1012211465046C6
:1034D000FDF700FD4FF21009002249464948FDF76B
:1034E000F9FC49F287500325CDE9000569460294AD
:1034F0003846FDF7F7FB782000900126CDE90164FE
:10350000694638460394FDF7EDFB42F67230CDE98B
:103510000005694602945046FDF7E4FB0096CDE9AC
:103520000164694650460394FDF7DCFB08200090D7
:103530000227CDE901744FF00508CDE9034869463B
:103540005046FDF7CFFB4FF490100096CDE90104F3
:10355000DFF8B4B069465846FDF7C4FB45F2B21037
:10356000CDE90005DFF8A4A0694602945046FDF7B6
:10357000B9FB0420CDE90004694650460294FDF7EA
:10358000B1FBB0020090CDE90174CDE90348694672
:103590005046FDF7A7FB40F60160CDE900056946FE
:1035A00002941848FDF79EFBCDF80090CDE9016428
:1035B000694614480394FDF795FB4FF40140CDE9AB
:1035C0000005694602945846FDF78CFB8E2000905A
:1035D0004FF48810CDE9010469460A48FDF782FBE3
:1035E0002020CDE90004694606480294FDF77AFBE5
:1035F00007B0BDE8F08F00003038024000100240F4
:1036000000080240000C024000000240000402409A
:103610000D4810B50B4901600C49416000214FF481
:1036200080428160C0E9031241618161C161016230
:10363000FDF772FE002803D0BDE81040FDF721BA67
:1036400010BD00000054004084030020801A0600D2
:103650000B490C4810B54A15C0E9001200218160E1
:10366000C0E90312084AC0E90521C1610162FEF701
:1036700049F8002803D0BDE81040FDF702BA10BD9C
:10368000003C0040D8030020007701000C4810B532
:103690000A490160402141607F218160FF21C160B2
:1036A0000021016141618161FEF796FD002803D090
:1036B000BDE81040FDF7E5B910BD0000002800404E
:1036C00020040020104810B50E4901604FF48271AB
:1036D000416000218160C1604FF400720161C0E966
:1036E00005121822C0E90721416281620A21C162E4
:1036F000FEF7EFFD002803D0BDE81040FDF7C1B98B
:1037000010BD00000030014040040020104810B5FA
:103710000E4901604FF48271416000218160C160F7
:103720004FF400720161C0E905120822C0E90721C7
:10373000416281620A21C162FEF7CBFD002803D0FD
:10374000BDE81040FDF79DB910BD000000380040F5
:103750009804002030B591B000240F941C216846D5
:103760001094FCF729FF202107A8FCF725FF30481B
:103770002E49C0E900144FF6FF71C0E9024104610F
:1037800044618461FFF7EEF808B1FDF77AF9284843
:10379000FFF754F808B1FDF774F90F940FA9244806
:1037A0001094FEF78DFE08B1FDF76BF96025CDE9A9
:1037B00000540294039404940594002269461C4822
:1037C0000694FFF769F808B1FDF75BF90422694632
:1037D0001748FFF761F808B1FDF753F90822694669
:1037E00013480094FFF700F808B1FDF74AF90C22DE
:1037F00069460F480095FFF74FF808B1FDF741F90A
:103800000794089409944FF400500A94CDE90B40B2
:1038100007A907480E94FEF729FE08B1FDF731F914
:103820000348FEF7B7FF11B030BD000000000140B3
:10383000F00400200C4810B50A4901604FF4E13152
:103840004160002181600C22C160C0E904128161E5
:10385000C161FFF7D2F8002803D0BDE81040FDF7A2
:1038600010B910BD00440040380500200C4810B5C8
:103870000A4901604FF4E1314160002181600C226E
:10388000C160C0E904128161C161FFF7B6F8002888
:1038900003D0BDE81040FDF7F4B810BD004800406B
:1038A0007C05002010B501220B490C4800F022FFD6
:1038B00008B1FDF7E6F80A49084801F082FA08B1B4
:1038C000FDF7DFF8054801F0BFFA002803D0BDE896
:1038D0001040FDF7D6B810BD5D4E00080806002068
:1038E000C8000020FEE7FEE70148FDF7BCBB000072
:1038F000EC0900202DE9F041044600680025C1686C
:10390000490618D4C16841F08001C160FDF7E8FAAA
:1039100006464FF47A78042707E000BFFDF7E0FA87
:10392000801B404501D9677701252068C0684006A3
:1039300001D4002DF2D02846BDE8F08170B50446D0
:1039400000680025C16821F08001C160206880689E
:10395000800606D42046FEF7A1FC10B10420607753
:103960000125284670BDFFF79DFF012001F076FE7E
:10397000FBE7012001F072FEFBE7012001F06EFE83
:10398000FBE7012001F06AFEFBE7012001F066FE83
:10399000FBE7012001F062FEFBE7012001F05EFE83
:1039A000FBE7012001F05AFEFBE7012001F056FE83
:1039B000FBE7012001F052FEFBE7000010B55020AC
:1039C00080F31188BFF34F8FBFF36F8F02F042FF78
:1039D00018B104494FF080500860002080F311882E
:1039E00010BD000004ED00E030B593B03021684612
:1039F000FCF7E2FD14210CA8FCF7DEFD1F480025B2
:103A0000016841F080510160006800F08050119021
:103A10001B48016841F4804101600068022400F401
:103A200080401190092000904FF4803001900120D7
:103A3000CDE9050480050790082008904FF4A87090
:103A4000CDE9090407200B906846FEF70FFA08B18C
:103A500072B6FEE70CA90F2081E831004FF4A050A8
:103A60000F904FF48050109005210CA8FEF7F4F849
:103A7000002801D072B6FEE713B030BD40380240D6
:103A8000007000400248016841F470010160704715
:103A900088ED00E00148FEF7CABD0000C005002027
:103AA000F0B50268254C264D264E274F274B4FF088
:103AB000804CA04209D0604507D0A84205D0B04252
:103AC00003D0B84201D0984204D122F0700E4A6867
:103AD00042EA0E02A0421BD0604519D0A84217D07E
:103AE000B04215D0B84213D0984211D0184DA84218
:103AF0000ED0184DA8420BD0174DA84208D0174D34
:103B0000A84205D0164DA84202D0164DA84203D1B6
:103B100022F44075CA682A434D6922F080022A4384
:103B200002608A68C2620A688262A04201D098423A
:103B300001D10969016301214161F0BD000001402B
:103B40000004004000080040000C00400004014058
:103B5000004001400044014000480140001800407E
:103B6000001C004000200040F0B5026A22F0010273
:103B70000262036A42688469124E24F073050C687D
:103B80002C4323F002058B682B430D4DA84201D036
:103B9000B04205D123F00807CB683B4323F0040370
:103BA000A84201D0B04205D14D6922F440721543BC
:103BB0008A692A4342608461496841630362F0BDB7
:103BC0000000014000040140F0B5026A22F010023A
:103BD0000262026A436884690D6824F4E64444EA98
:103BE00005248D6822F0200242EA05120F4D104E86
:103BF000A84201D0B04206D1CF6822F0800242EA4A
:103C0000071222F04002A84201D0B04207D14D690C
:103C100023F4406343EA85038D6943EA85034360E7
:103C20008461496881630262F0BD000000000140C8
:103C300000040140F0B5026A22F480720262026A56
:103C40004368C46922F4007224F073050C68124EB4
:103C50002C438D6842EA05220E4DA84201D0B042A5
:103C600006D1CF6822F4006242EA072222F4806281
:103C7000A84201D0B04207D14D6923F4405343EA32
:103C800005138D6943EA05134360C4614968C16344
:103C90000262F0BD000001400004014030B5026A3C
:103CA00022F480520262046A4268C3690D6823F4F8
:103CB000E64343EA05238D6824F4005444EA0534BE
:103CC000084DA84202D0084DA84204D14D6922F403
:103CD000804242EA85124260C3614968016404621D
:103CE00030BD0000000001400004014070B50446F2
:103CF00000680169E26821F44051114301612169C2
:103D0000A068E26908436169114308432168CA68F1
:103D100049F20C639A430243CA6020684169A26970
:103D200021F440711143416131492068884202D039
:103D30003049884202D1FEF759F801E0FEF746F813
:103D4000E2690023192164253226B2F5004F62682A
:103D500028D0A0FB0101930F9200FCF73FFB014626
:103D6000B0FBF5F06FF01802504301EB800006EB5A
:103D70000010B0FBF5F000F0F002B1FBF5F002EB43
:103D80000012B1FBF5F06FF01803584301EB80000F
:103D900006EB0010B0FBF5F000F00F0021681044B6
:103DA000886070BDA0FB010192185B41FCF716FB17
:103DB0000146B0FBF5F00201B1FBF5F06FF018031E
:103DC000584301EB800006EBC000B0FBF5F000F0BB
:103DD000F80002EB4002B1FBF5F0584301EB800024
:103DE00006EBC000B0FBF5F000F00700D6E70000DE
:103DF000001001400014014010B500224FF6FF737F
:103E000000EB8204B4F8844324040BD49A4207D014
:103E100002F00F0300EB830041F40041C0F884136B
:103E2000D0B210BD521CD2B2102AE9D31A46F7E71D
:103E30007FB51C46012501AE0023009586E80E00E3
:103E400002232A46214600F07CFD04B0002070BD0C
:103E50007FB51D4690F81D33089C03B10024012353
:103E6000CDE90031CDE9022402230022294600F0E9
:103E700068FD04B0002070BD70B50446D0F87C0326
:103E8000C16920464031FCF7FEFD050004D1D4F89D
:103E9000D423022120469047284670BD70B50546C0
:103EA000D0F87C030026C469217839B1284600F097
:103EB00027F92178284600F0B9F92670217B39B11D
:103EC000284600F01DF9217B284600F0AFF9267343
:103ED000617B39B1284600F013F9617B284600F078
:103EE000A5F96673D5F87C03C06920B1FCF74FFAD9
:103EF000D5F87C03C661002070BDFEB502220546E0
:103F00000123114600F070F90646FF2841D0022E29
:103F10003FD20146284600F062FFD0BB5020FCF79C
:103F200007FAD5F87C130446C861200031D050212F
:103F3000FCF742FB06EB860000EBC60005EB4001F8
:103F400091F84E03020603D56070B1F8500360810A
:103F500061782846FFF750FF2070014695F81D0351
:103F6000638903228DE80D0095F81C33627828469A
:103F700000F0F8FC21780022284600F0BEFC002367
:103F80001A460A21284600F02FF9FF2801D00228FE
:103F900001D30220FEBD00EB800101EBC00005EB68
:103FA000400090F84E130A0604D5E173B0F85013A0
:103FB000618303E0A173B0F85013218390F8561386
:103FC0000A0604D5E173B0F85803608303E0A173D7
:103FD000B0F858032083A17B2846FFF70DFF6073DC
:103FE000E17B2846FFF708FF2073208B95F81D130F
:103FF00002260091CDE9016095F81C33A27B617B1C
:10400000284600F0AFFC608B95F81D130091CDE9B8
:10401000016095F81C33E27B217B284600F0A2FC6E
:10402000002084F84C000246617B284600F065FCC5
:10403000217B0022284600F060FC0020FEBD704776
:104040002DE9F0410546D0F87C0301270026C4691C
:104050004FF0040894F84C0005284AD2DFE800F03D
:104060000305163B4200002743E02122A16C2A747D
:1040700020226A746E82AE8207222846EA8200F00D
:1040800062F848B9022084F84C0032E004F14001A3
:104090002846FCF7F8FC20B101282AD084F84C808F
:1040A00027E084F84C60A06C94F8441002799142A7
:1040B0001FD194F84610827991421AD194F8451094
:1040C0004279914215D1216C0068814211D1284674
:1040D000FFF7B5FF0DE02846FCF766FC2846FCF725
:1040E00024FC06E00021284600F00FF808B984F807
:1040F0004C603846BDE8F08170470020704770473B
:1041000010B500F031FB002010BD8278012A07D1E4
:104110000222027401224274002242828182C282FF
:104120000022114600F00FB87FB51C46012501AEF4
:104130000023009586E80E002A46214600F001FC87
:1041400004B0002070BD2DE9F041044601258078BF
:1041500003262F46012802D002281DD105E0A160C8
:10416000A28127760220A0700EE0204600F026F9FA
:10417000050004D0032D02D0022D04D004E0A77066
:104180000020207600E0A770C4F8E06331460022EA
:10419000D4F8D80301F0CCFA2846BDE8F0817FB509
:1041A0001D4690F81D33089C03B100240123CDE97E
:1041B0000031CDE9022400231A46294600F0C1FB54
:1041C00004B0002070BD1FB500231446CDE90031B6
:1041D0000822CDE902231A46214600F0B2FB04B0C2
:1041E000002010BDFCF76CBD70B50546002005F53C
:1041F0004E7500BF00EB800404EBC00405EB4404E3
:10420000E67B0A348E4201D0FF2909D1A679964275
:1042100001D0FF2A04D1E4799C4206D0FF2B04D0C0
:10422000401CC0B20228E5D3FF2070BD102907D280
:1042300000EB8100B0F88413C1F30E01C0F88413C1
:104240000020704730B48578029C012D0FD141F0D9
:10425000800101740621417403214282B1EB122FC7
:1042600002D140F2094100E000218182C48222464D
:1042700030BC1946FFF767BF0A8803781A440A80E2
:10428000017808447047F8B50E4600F11C0400910F
:10429000054623464FF400720021FFF7D3FF0028A4
:1042A00006D1324621462846BDE8F84000F064BBFE
:1042B000F8BD38B50D460091044600F58E734FF4F5
:1042C00080720021FFF7BEFF010044D194F81C0169
:1042D00084F8260394F81D0184F82703B4F81E011E
:1042E000A4F8280394F8200184F82A0394F8210103
:1042F00084F82B0394F8220184F82C0394F823010A
:1043000084F82D03082806D0102804D0202802D0D5
:10431000402800D0402084F82D03082D1BD9B4F884
:104320002401A4F82E03B4F82601A4F83003B4F84D
:104330002801A4F8320394F82A0184F8340394F88D
:104340002B0184F8350394F82C0184F8360394F893
:104350002D0184F83703084638BDF8B51C461646CB
:10436000009341F4407200F58E731D460021FFF763
:1043700069FF002814D16978032911D129788A1E90
:10438000A24200D814460021A2B2AD1C04E06B5C2E
:10439000891C06F8013B89B29142F8D300213170A3
:1043A000F8BD01004FF0000004D0012901D002291E
:1043B00001D0022070470120704700002DE9F84F1E
:1043C0000126017E04460B27032530464FF00908DD
:1043D0004FF007094FF0050B4FF00D0A0C2919D2C9
:1043E000DFE801F0BC060E303C465265707F8BA2C0
:1043F000627904F110012046FFF7E5FE02202BE070
:104400006179204600F00BFA012804D0042817D067
:10441000022815D0A2E0207CE18A00F0800031B1B2
:10442000802801D1257676E084F818B073E08028E2
:1044300003D100BF84F818806DE084F818906AE01A
:10444000277668E0D4F8C403E0812379A289204666
:10445000A168FFF769FE042020767FE021792046DD
:1044600000F0DDF90128E5D005284ED1032652E001
:1044700000906379A2892046A168FFF790FED4F8E6
:10448000C403E0810620E7E76179204600F0C7F920
:104490000128D2D0052804D00228C5D0042803D092
:1044A0005CE00C202076E1E72776022633E000224C
:1044B000237911462046FFF737FED4F8C403E08184
:1044C0000820C9E72179204600F0A9F9012804D085
:1044D0000428B5D00528C9D040E084F818A00026EB
:1044E00019E000900022637911462046FFF757FE3D
:1044F000D4F8C403E0810A20AEE76179204600F0D9
:104500008EF9012804D0022894D0042898D025E000
:10451000002684F818A0C4F8E05329460022D4F8F5
:10452000D80301F005F919E0617E491CC9B2617632
:10453000022902D82076A07010E0D4F8D4230621F6
:10454000204690470025657661792046FFF76EFE8C
:1045500021792046FFF76AFE257002263046BDE825
:10456000F88F00002DE9FE4304460127407800251E
:104570000526B9464FF00D0804F58E7208280CD2B6
:10458000DFE800F0042A3D6A728892AA08212046DA
:10459000FFF78FFE10B103280DD0A8E094F82D038B
:1045A000A07184F8019094F81D130091CDE9015099
:1045B00094F81C3339E094F81E03401CC0B284F810
:1045C0001E03032818D861792046FFF72FFE2179B2
:1045D0002046FFF72BFE5BE012212046FFF769FE25
:1045E000B0BB02203EE000BF94F81E03401CC0B2E6
:1045F00084F81E03032842D984F8008077E0012163
:10460000204600F0F7FB10B1032822D06FE0022013
:10461000FFF7E8FD84F81C9303206070A07994F8FC
:104620001D13CDE900154B460290217980222046CA
:1046300000F098F9A07994F81D130091CDE901508C
:1046400094F81C3361790022204600F08BF94EE08B
:1046500010E084F8008033E009212046FFF713FEC4
:1046600040B90420607042E0B4F83A132046FFF7E6
:104670000AFE10B10328B7D039E0667037E06179DF
:104680002046FFF7D3FD21792046FFF7CFFD657067
:1046900025702CE094F83413062599B1FF232046A9
:1046A000FFF75BFE70B108E094F83513072549B1B8
:1046B000FF232046FFF751FE10B1032802D016E079
:1046C000657014E06570C4F8E06331460022D4F8E8
:1046D000D80301F02DF80AE094F8361331B1FF2326
:1046E0002046FFF73AFE08B1032800D100273846DC
:1046F000BDE8FE8370B58CB00E46040030D084F85F
:10470000CC230025C4F87C53C4F8805304F54874C6
:10471000FCF78EF9E57025706570A570A4F54874F6
:104720000EB1C4F8D4630F4B07AD0FCB85E80F0073
:10473000002107A800F09EFF0A49C4F8D8031C22F4
:1047400010316846FBF706FF2146684601F03DF848
:10475000C4F8DC03204600F075F800200CB070BDF2
:104760000220FBE77C6C000810B5D0F8D003FCF702
:10477000DCFBBDE81040FFF714BE10B5012180F846
:104780002013002280F8212380F82223C0F8E013B0
:10479000D0F8D80300F0CCFF002010BD70B5012583
:1047A000044680F82153002084F8200384F8230372
:1047B000204600F0BDF821792046FFF737FD6179EA
:1047C0002046FFF733FDC4F8E05300222946D4F811
:1047D000D80300F0ADFF002070BD10B590F8CC03F9
:1047E000012802D10846FEF751FDC820FCF768FAFF
:1047F000002010BDD0F8D003FCF78FBB10B501240A
:10480000D0F8D003FCF77DFB20B1012805D00228A9
:1048100003D101E0002400E00224204610BDD0F8BE
:10482000D003FCF771BBD0F8C413491CC0F8C41303
:1048300001780B2905D1D0F87C13002901D08969B2
:104840000847704710B5044690F8CC0301281CD1E6
:104850000F484FF0A0410022C0F80043C4F8D00335
:104860000160082181600121C0E903120221C0E931
:104870000612FCF795FC08B1FCF703F90448FCF7B5
:104880003DFB0146204600F035F8002010BD000039
:10489000EC09002010B50121C0F8E013D0F8D803CE
:1048A000002200F045FF002010BDFEB508AF97E8DC
:1048B00070008DE87000D0F8D003FCF748FBBDE82D
:1048C000FE40FFF76EBD002180F8231370470121E1
:1048D00080F82313C0F8E013D0F8D803002200F0CA
:1048E00027BF10B5D0F8D003FCF7E6FCBDE81040B8
:1048F000FFF757BDC0F8C4137047D0F8D00301EBE1
:10490000410303EBC10100EB810090F83B1011B1B2
:1049100080F8542001E080F855200020704710B541
:10492000D0F8D003FCF7CFFCBDE81040FFF739BD4D
:1049300010B5D0F8D003FCF7DCFCBDE81040FFF761
:1049400030BD2DE9FF410DF1280898E8F0008DE811
:10495000F000D0F8D003FCF739FB04B0BDE8F0411B
:10496000FFF71FBDFEB508AF97E870008DE8700037
:10497000FFF79BFF0020FEBD2DE9F74F82B00878BE
:10498000029D4FF0000B0C4685F83803487885F8F7
:1049900039034888D84605F54E75FF2801D94FF4EC
:1049A0008070688008792871487968718879A87161
:1049B000C879E871207A287229780920092900D05D
:1049C0002870092A7CD98146ADF800005FE069466D
:1049D0002046FFF751FC04464078042854D1207843
:1049E000092801D084F8009008EB880101EBC80089
:1049F00005EB400A20788AF80A0060788AF80B00F4
:104A0000A0788AF80C00E0788AF80D0020798AF8FE
:104A10000E0060798AF80F00A0798AF81000E0791A
:104A20000AF10A068AF81100207A307200271CE089
:104A300069462046FFF720FC04464078052814D13B
:104A40007079012802D1B079022830D02078072867
:104A500001D0072020700AEBC701224614310298CA
:104A600000F030F87F1C8346FFB23079B84204D999
:104A70006888BDF800108842DAD83079B84211D879
:104A800008F1010000F0FF08B8F1020F04D26888B5
:104A9000BDF8001088429AD82879022800D3022055
:104AA00040450DD9032005B0BDE8F08F08E0F0794E
:104AB0000028D0D120780928CDD084F80090CAE70A
:104AC0005846F0E7F0B513780B7053784B70937835
:104AD0008B70D478CC7095888D80064693790020B1
:104AE0008B71D5B16FF30A058D8092884FF40077F2
:104AF000C2F30A02BA4200D33A461543A1F8045061
:104B000096F81D13002904F0030108D001290BD0E9
:104B1000E143890700D153B1F0BD0320F0E701293B
:104B200002D0E1438907F7D10BB1102BF4D9032050
:104B3000F0BD2DE9FE43022104468DF8001094F8E3
:104B400021230020012A01D103222270227801268C
:104B5000052700254FF00D084FF008090C2A70D2E8
:104B6000DFE802F0061C3BFDFA70DE8C939EB3F486
:104B700094F82003002864D02670C820FFF732FB89
:104B80002046FFF7AEFE84F81C53C4F8E063C4F877
:104B9000C85300223146D4F8D8036CE094F82303BC
:104BA00001280ED0D4F8C803B0F57A7F0DD994F857
:104BB0001F03401CC0B284F81F0303286FD940466E
:104BC0006BE084F81F53217005E00A30C4F8C80375
:104BD0000A20FFF707FB314648E0D4F8D42312B18E
:104BE0000421204690476420FFF7FCFA2046FFF797
:104BF00005FE84F81D03277000212046FFF7FCF80E
:104C0000607180212046FFF7F7F820710146A079F6
:104C100094F81D230092CDE9015094F81C338022B2
:104C20002046FFF79FFEA07994F81D130091CDE96F
:104C3000015094F81C33617900222046FFF792FE60
:104C4000C9E71AE02046FFF78DFC8DF800009DF8BB
:104C50000000002811D184F8245394F83703012868
:104C600001D0072070E048466EE03946C4F8E013F2
:104C70000022D4F8D80300F05BFD6DE0D4F8D42313
:104C8000CAB3012120469047EDE794F83D13204632
:104C900000F0BEF800289ED1092020709BE712E0AA
:104CA00094F83F034FF00A0580060CD501212046F9
:104CB00000F0BCF88DF800009DF8000018B19DF8D8
:104CC0000000032887D1257085E7D4F880130029D8
:104CD000CBD0C4F87C5394F8471304EB8002D2F88D
:104CE000782312798A4207D104EB8000D0F8780348
:104CF000C4F87C0305E02FE0401C10F0FF00ECD06E
:104D0000284658B181682046884738B90620207067
:104D1000D4F8D423032120469047A6E7404613E069
:104D2000D4F87C030028F9D00169204688478DF823
:104D300000009DF8000030B19DF800000228EDD081
:104D400093E703E00BE00B2020708EE7D4F87C03A0
:104D500010B14169204688470020BDE8FE8384F8F1
:104D600021532046FBF764FED4F87C0320B1C168D0
:104D700020468847C4F87C53D4F8D42312B10521C7
:104D80002046904794F82203012803D02046FFF7DD
:104D9000C6FD20E784F82253204600F055F81AE7B4
:104DA0000EB504464FF0FF352A466846D4F8D813AE
:104DB00000F074FC00981028F6D12046FFF7B9FEE9
:104DC000F2E7002211B1D0F8803313B1022210466D
:104DD00070470123C0F88033C0F87813F7E7024624
:104DE000002092F83C338B4202D982F8241370479A
:104DF000022070478278012A06D10022027405231E
:104E0000437441828282C28200221146FFF79BB91D
:104E10008278012A06D10022027409234374418258
:104E20008282C28200221146FFF78DB98278012A60
:104E300006D1002202740323437441828282C2821B
:104E400000221146FFF77FB910B50446FFF767FD52
:104E500001212046FFF7C1FC002010BD01290AD026
:104E60000548022906D0042903D0052903D10321CE
:104E700000E00121017070474C00002070B504462D
:104E800006990A9E049D0D98012916D0E06840F00D
:104E90004000E060204600F02BF8A16B1EB321F427
:104EA0008031A163012D07D1A16841F00601A16005
:104EB000A16841F02001A16070BDA16B21F4803197
:104EC000A163E168094A1140E160E16821F4401101
:104ED000E160012803D1E06840F48010E0602046E2
:104EE00000F006F8DEE741F48031DAE7BFFFBDFFEE
:104EF00008B500220D490092009B5B1C00938B4279
:104F00000CD80369002BF7DA0092026942F0010223
:104F10000261009A521C00928A4201D9032008BD06
:104F20000269D207F5D1002008BD0000400D030042
:104F3000816821F0010181600020704700EB411081
:104F4000064AC0F81025D0F8001521F0804141F044
:104F50000041C0F8001500207047000000000880E4
:104F600008B5D0F8402422F02E020092D20405D4D5
:104F7000012909D1009941F4805103E021B9009938
:104F800021F48051C0F84014002008BD816841F030
:104F9000010181600020704708B500220C49009291
:104FA000009B5B1C00938B420AD80369002BF7DA45
:104FB000009210220261009A521C00928A4201D98A
:104FC000032008BD0269D206F5D4002008BD000008
:104FD000400D030018B500230D4A0093009C641C8B
:104FE000009494420CD80469002CF7DA0093202333
:104FF00043EA811101610099491C0091914201D954
:10500000032018BD01698906F5D4002018BD0000F1
:10501000400D0300D0F8080480B2704708B5D0F8FE
:1050200040040090C0F3414008BD406900F0010019
:10503000704718B5002200EB41110092D1F800250D
:10504000D1F80035C2F381428468DB0FA40600D595
:105050001BB34FF47A736AB1022A0BD0D1F8002542
:1050600042F08042C1F80025D0F8100410F47F0F00
:105070002BD00CE0D1F8002542F08042C1F8002589
:105080008268920609D4C06A10F47F0F07D0D1F865
:10509000000540F00040C1F80005002018BDD1F81F
:1050A000000520F00040C1F80005D1F8000540F0EF
:1050B0000040C1F800050098401C00909842ECD8D0
:1050C000D1F800050028F6DBE7E7D1F8000520F06D
:1050D0000040C1F80005D1F8000540F00040C1F8DB
:1050E00000050098401C00909842D6D8D1F80005E1
:1050F0000028F6DBD1E700002DE9F0431E46DDE98C
:105100000785002700EB41147B1EDDF82490C4F8CE
:10511000083505B3012D39D0022D1CD0032D2ED01A
:105120005FF00107D4F80C3543F00203C4F80C35E6
:10513000D0F8183401F00F0C012101FA0CF10B43E7
:10514000C0F81834816941F00071816111062AD5D7
:105150004FF4004128E040F29D43C4F80C3513069B
:1051600005D500BFD4F80C3543F4807318E0C36B49
:10517000DB05D7D5D4F80C3543F0600310E040F2DE
:105180009D63C4F80C351306ECD4CBE740F225231D
:10519000C4F80C351306C5D5D4F80C3543F4C073E8
:1051A000C4F80C35BEE70021FFF738FFB8F1020F55
:1051B00004D1022802D04FF4003000E000204FF06C
:1051C000FE5303EA86534FF4F04606EAC222134325
:1051D0004FF4402202EA85421343C9F30A02134303
:1051E0000B430343C4F80035032D01D0012D05D135
:1051F000D4F8000540F00050C4F800053846BDE87A
:10520000F083D0F8140480B27047F8B54C78C56BC1
:105210004FF48073ED0515D50D799DB9012A01D0A4
:105220006AB10FE0CD790DB1022D0BD100EB441521
:10523000D5F80C6526F07006C5F80C6502E04D79CE
:10524000012D0DD04E697EB10D8977197F1EB7FBF8
:10525000F5F7BFB29F4208D91F462B020B6104E04D
:105260002146FFF76BFE6EE00127CB781BB10B895F
:105270007B430B6101E033460E61C3F312056FF00F
:10528000604303EAC7431D438B7A4FF0C04606EAEA
:1052900043731D4300EB4413C3F8105512B1CC689F
:1052A000C3F81445D0F80844D3F8005544F300047B
:1052B00025F00055C3F80055D3F80055641C45EAA5
:1052C0004474C3F80045D3F8004524F080440094AA
:1052D000CC78002C009C02D044F4004401E024F47B
:1052E000004444F000440094C3F800455ABBCA7817
:1052F0004ABB4A693AB3CB7933B1012B0FD0022BA9
:1053000002D0032B17D10AE0D21CC36AC2F38F026A
:105310009BB293420FD2826942F020020AE0D21C73
:10532000D0F81034C2F38F029BB2934203D2826949
:1053300042F080628261002200928A8A93B24A78A7
:10534000C96800F035F90020F8BD00002DE9F041F2
:105350000025DDF81880174604462E46C0F8005E8A
:10536000806B40F40010A063A06B20F40020A063C9
:10537000A06B20F48020A063E06BC00501D5012B59
:1053800004D0D4F8000420F0040103E0D4F80004B1
:1053900040F004012046C4F800141021FFF71AFE63
:1053A00000B101252046FFF7F7FD00B101250020DF
:1053B000411E06E004EB4012C2F80815C2F80C6565
:1053C000401C8742F6D8A6616161E06BC00506D536
:1053D0004FF4007060620C48A0620C4804E080202A
:1053E00060620B48A0620B48C4F80001B8F1000FDE
:1053F00003D1A06940F01000A061A06906490843EC
:10540000A0612846BDE8F081000200010003E00031
:1054100080006000E0004000080020A3D0F80024D5
:1054200022F00302C0F80024D0F8002401F00303A6
:105430001A43C0F80024012902D0022903D006E053
:105440004BF6803101E041F27071C0F80414002085
:105450007047416980690840704730B50346084687
:10546000940802F00301002203F5805303E01D6855
:1054700040F8045B521CA242F9D300290BD01C68EF
:105480000022D50024FA05F3491E521C090400F835
:10549000013B090CF5D130BD38B50446D0F84004C5
:1054A00020F02E00009040F48070C4F84004642086
:1054B00004F58864FBF704FC009820F480702060F9
:1054C0000A20FBF7FDFB002038BD70B50446C0681C
:1054D000002520F0C040E060012901D079B120E032
:1054E000E06840F00050E0600120FBF7E9FB6069F4
:1054F0006D1C10F0010F10D1322DF5D30DE0E068D6
:1055000040F08040E0600120FBF7DAFB60696D1C31
:1055100010F0010F01D0322DF5D3322D01D0002033
:1055200070BD012070BD38B5002504460095806827
:1055300020F00100A06010212046FFF74BFD00B1D4
:1055400001252046FFF728FD00B10125002004EBCE
:105550004011D1F8002522F0802242F08042C1F8AB
:105560000025401C0F28F2D900204FF47A7304EB79
:105570004011D1F8002522F4004242F04042C1F827
:105580000025009A521C00929A4203D8D1F80025B7
:10559000002AF6DB401C0F28E9D94FF0FF30C4F891
:1055A00014046061A06840F00100A060284638BD86
:1055B00010B5029C74B9DB1C9C0800EB0230002380
:1055C00000F5805004E000BF51F8042B02605B1C22
:1055D000A342F9D3002010BDFEE70907090E0028F9
:1055E00004DB00F1E02080F80014704700F00F00A9
:1055F00000F1E02080F8141D7047EFF305800028CB
:1056000000D0012070470000FCF798F9FEF7ECF994
:10561000FDF71AFFFDF708FEFDF7FAFFFEF718F891
:10562000FEF734F8FEF74EF8FEF770F8FEF792F842
:10563000FEF700F9FEF71AF9012211030348FBF700
:1056400049FCFDF72DFE00F010F8FEE7000C0240CB
:1056500001460020842900D0C81C704710B500B94D
:10566000012000F093FC002010BD10B500F0DAFC22
:10567000002010BD38B5D0E9011204683AB1C36802
:105680002BB100200090204600F0D3FD38BD20460D
:10569000BDE83840002200F0ABBD00002DE9FF411D
:1056A0000D004FF00006CDE9016507461ED000242D
:1056B0000396501C1FD002B11446FFF79EFF6946A7
:1056C0004FF01008E8B103AA2846091D00F0D4FFE6
:1056D000012813D000960398E8B114494FF0805088
:1056E0000860BFF34F8FBFF36F8F14E08020314607
:1056F0002A46009011E04FF0FF34DEE7CDF800803D
:10570000E9E722462846091D00F01AFF012808D0C3
:1057100054B1402000909DE8070087E80700BDE8ED
:10572000FF81CDF80080F6E70020F3E704ED00E00C
:1057300037B5054682B000200090140000D1012446
:10574000FFF75BFF4FF0000388B16A4603A92846C4
:1057500000F096FE012811D1009890B10A494FF04F
:1057600080500860BFF34F8FBFF36F8F09E0224670
:1057700003A9284600F0D4FD012802D0FF2005B07F
:1057800030BD0020FBE7000004ED00E038B54368C1
:105790004BB1012909D103200022009011460120BC
:1057A00000F047FD38BD012901D0002038BD03229B
:1057B0000021012000F01CFD040004D000231A4643
:1057C000194600F0ADFD204638BD7FB50D460446B4
:1057D0004169B0F9080081B1A16971B1FFF738FFE3
:1057E000D4E905128DE80700D4E900102B462269A0
:1057F00000F0F7FF039004B070BDFFF729FF03A985
:10580000CDE90001208A2B4682B2D4E9001000F0D5
:10581000BBFF012801D00020EDE70398EBE7000073
:105820002DE9F041184C0F460546E6682068001D3A
:1058300000F0BAFA38B9206890F82C10012088409E
:10584000216981432161681C07D137B12168BDE816
:10585000F0410E48091D00F0EBBA20683544B5420E
:105860004560216805D2A06BBDE8F041091D00F03C
:10587000C7BA606B091D00F0C3FAA06A854200D266
:10588000A562BDE8F081000060000020CC0D002082
:105890002DE9F041054600F0D7FA2E4CA068401CD7
:1058A000A06020682C4F10B1606940B32DE02560E6
:1058B000A068012829D1002606EB860007EB8000AE
:1058C00000F090FA761C072EF6D323488C3000F0B7
:1058D00089FA2148A03000F085FA1F48B43000F062
:1058E00081FA1D48C83000F07DFA1B48DC3000F01A
:1058F00079FA19488C3060631430A06305E02068A1
:10590000E96AC06A884200D82560606A401C60620B
:10591000E96A0120226988401043206101EB81007F
:1059200007EB8000291D00F083FA00F0ADFA6069F2
:1059300000280CD02068E96AC06A884207D207496B
:105940004FF080500860BFF34F8FBFF36F8FBDE8FB
:10595000F081000060000020F00C002004ED00E069
:1059600030B4026C0B46002A0BD0C1681144C160F0
:105970008468A14201D30168C16030BC1846FAF7BF
:10598000A4BD30BC70472DE9F041856B1746044635
:105990000026026C82B1C7B1E068FAF796FDE168B3
:1059A000206C091AE1602268914202D2A168081AAB
:1059B000E060022F16D017E02068A8B9A06800F0B8
:1059C000AFFF06460020A0600EE06068FAF77DFD9C
:1059D000216C606808446060A168884204D3206834
:1059E000606001E005B16D1E6D1CA5633046BDE829
:1059F000F08110B5044690F8510058B101280CD040
:105A000002280FD0502080F31188BFF34F8FBFF3CF
:105A10006F8FFEE7206B00F04BFA2046BDE8104088
:105A200000F046BA10BD000010484FF47051420714
:105A300006D0C01D0D4920F00700411AC1F5705174
:105A40000B4A00230144C2E900030839183A21F047
:105A5000070111604B600B600B1AC0E900139360E3
:105A60004FF000405360506170470000E00D00208F
:105A7000B4000020144E154CA6F1C8074FF0805812
:105A8000DFF84C9012E000BF00F0DEF9F068C56866
:105A9000281D00F089F9A068401EA0606068401EC3
:105AA000606000F0F1F92846FFF7A3FF6068002866
:105AB000EAD138680128F9D9C9F80080BFF34F8FBF
:105AC000BFF36F8FF2E70000B80D002060000020E8
:105AD00004ED00E00346009829B10260C0E90F31EF
:105AE000012100F0D9BB0060F8E72DE9F0479A46A4
:105AF000DDE9098481466FF00303206B03EB82022A
:105B00001044089E20F00707780707D0502080F344
:105B10001188BFF34F8FBFF36F8FFEE7002561B190
:105B2000002023180A5C83F834200A5C12B1401C60
:105B30001028F6D384F8435001E084F83450072E3F
:105B400000D30626E662C4E91165201D00F055F970
:105B500004F1180000F051F92461C6F107006462F5
:105B6000A061E56484F8505052464946384600F03A
:105B700005F92060B8F1000F01D0C8F80040BDE879
:105B8000F087000030B5114900E011460A688242F2
:105B9000FBD34B685C18844203D1406818444860CA
:105BA000084643681C18944209D1084C183C2468E4
:105BB000A24209D052681A4442600A681268026020
:105BC000814200D0086030BD0460F9E7B4000020D5
:105BD00010B5044600F038F9A06B28B15FF000045E
:105BE00000F052F9204610BD0124F9E70648416B48
:105BF000096829B1416BC968C96849688162704701
:105C00004FF0FF31FAE700006000002008484068CC
:105C1000401C4FF0500080F3118804D0BFF34F8F29
:105C2000BFF36F8FFEE7BFF34F8FBFF36F8FFEE7BA
:105C3000BC0000202DE9F041044600F005F994F97C
:105C4000455004F1240609E0606A48B1304600F08E
:105C5000B3FE08B100F0C8F96D1E6DB2002DF3DC83
:105C60004FF0FF3684F8456000F00EF900F0ECF8D4
:105C700094F9445004F1100709E0206948B138460E
:105C800000F09AFE08B100F0AFF96D1E6DB2002D64
:105C9000F3DC84F84460BDE8F04100F0F5B80000A2
:105CA0002DE9F0410546002700F0F2F9324E306848
:105CB00008B9FFF7B9FE706905424ED1C5B3083582
:105CC00068070ED005F00700C0F10800054468071A
:105CD00007D0502080F31188BFF34F8FBFF36F8F31
:105CE000FEE72DB37068854237D823481830014647
:105CF0000C6801E020460C466168A94202D2216886
:105D00000029F7D131688C4227D0076821680160EB
:105D100060680837411B10290FD96019420708D065
:105D2000502080F31188BFF34F8FBFF36F8FFEE7D2
:105D300013E041606560FFF725FF61687068401AF5
:105D40007060B268904200D2B06070690143002078
:105D5000C4E90001F068401CF06000F067FE7807BD
:105D600007D0502080F31188BFF34F8FBFF36F8FA0
:105D7000FEE73846BDE8F0819C00002010B5031F07
:105D80004FF080741C601B1F21F001011960191F66
:105D9000044B0B6014390A60091F6FF0020244388B
:105DA0000A6010BD0D5C0008D0E9013201699A60FB
:105DB000D0E901235A604A68824201D182684A6070
:105DC000002202610868401E0860086870470000F1
:105DD000034B036003F1540008608020106070479B
:105DE000E800002000F108014FF0FF32C0E9011285
:105DF000C1600161002101607047002101617047AD
:105E000030B50B685A1C02D000F1080202E00269AA
:105E100004E02246546825689D42FAD953684B60D5
:105E200099608A60516008610168491C016030BD59
:105E300042684A6093688B6093685960916008611A
:105E40000168491C01607047502080F31188BFF33E
:105E50004F8FBFF36F8F0A494868401C4860012884
:105E60000CD10848006810F0FF0F07D0502080F3D5
:105E70001188BFF34F8FBFF36F8FFEE770470000AD
:105E8000BC00002004ED00E00849486828B1401E2D
:105E9000486001D180F311887047502080F3118849
:105EA000BFF34F8FBFF36F8FFEE70000BC000020F1
:105EB00070B500282AD0164DA0F108046068696901
:105EC000084207D1502080F31188BFF34F8FBFF3F2
:105ED0006F8FFEE722683AB1502080F31188BFF33C
:105EE0004F8FBFF36F8FFEE78843606000F0D0F8FC
:105EF00060686968084468602046FFF743FE2869C7
:105F0000401C2861BDE8704000F090BD70BD0000ED
:105F10009C0000204FF0E0200021016181610549D3
:105F20004FF47A720968B1FBF2F1491E4161072111
:105F3000016170475C00002010B5FAF7D5F91149EE
:105F400010280ED300F1E02090F8F0030A78904278
:105F500007D2502080F31188BFF34F8FBFF36F8FAC
:105F6000FEE709480068896800F4E060884207D9C4
:105F7000502080F31188BFF34F8FBFF36F8FFEE780
:105F800010BD0000BC0000200CED00E010B50200C8
:105F900014D00F48006B38B1502080F31188BFF344
:105FA0004F8FBFF36F8FFEE700F072F800211046AD
:105FB000FFF736FC00F03AFD002807D105494FF005
:105FC00080500860BFF34F8FBFF36F8F10BD00008C
:105FD0006000002004ED00E002490A6A0260C9681E
:105FE000416070476000002001490120C86170478E
:105FF0006000002010B50C4650B1094909681831FD
:10600000FFF7FEFE2046BDE810400121FFF708BC67
:10601000502080F31188BFF34F8FBFF36F8FFEE7DF
:106020006000002010B586B00024039405AA04A9DE
:1060300003A80494FFF7CCFEDDE903010094CDE949
:10604000011000230EA11048059A00F0CAFB0F4969
:106050000028C86211D0502080F31188BFF34F8F01
:10606000BFF36F8F4FF0FF30886201204861CC6032
:1060700006B0BDE8104000F041B806B010BD000009
:1060800049444C4500000000755A0008600000209B
:106090000248016B491C016370470000600000204A
:1060A0001448016B11B10121C16170470021C16128
:1060B0000169B1FA81F1C1F11F0101EB81020E49C1
:1060C00051F822306BB101EB820101F108034A68FB
:1060D00052684A609A4201D152684A60D1680160B0
:1060E0007047502080F31188BFF34F8FBFF36F8F3D
:1060F000FEE7000060000020F00C00201CB53748CF
:106100000168374A914207D1502080F31188BFF3CC
:106110004F8FBFF36F8FFEE700683149491E8842F9
:1061200007D1502080F31188BFF34F8FBFF36F8FDB
:10613000FEE72C4908780190FF20087008788DF858
:1061400000009DF800009DF8002000F0F000904253
:1061500007D0502080F31188BFF34F8FBFF36F8FAC
:10616000FEE79DF80000204C00F050002070072052
:10617000A06005E09DF8002052008DF80020401E30
:106180009DF800201206F5D4A060032807D0502007
:1061900080F31188BFF34F8FBFF36F8FFEE74FF48B
:1061A0004070A060019808700C482030016841F4EC
:1061B00070010160016841F070410160FFF7AAFEC3
:1061C00000206060FAF758F80848016841F0404143
:1061D0000160FAF73DF800201CBD000000ED00E072
:1061E00071C20F4100E400E0BC00002034EF00E089
:1061F000F8B517460E46050013D005FB06F04830EB
:10620000FFF74EFD04000AD0002084F8460004F198
:1062100048023B46314628460094FFF75BFC204687
:10622000F8BD502080F31188BFF34F8FBFF36F8FFD
:10623000FEE738B5049D18B153B1CAB181B120E071
:10624000502080F31188BFF34F8FBFF36F8FFEE7AD
:10625000502080F31188BFF34F8FBFF36F8FFEE79D
:10626000502080F31188BFF34F8FBFF36F8FFEE78D
:1062700039B1502080F31188BFF34F8FBFF36F8F78
:10628000FEE748241C46012384F846302B46009440
:10629000FFF720FC204638BD70B50D46040025D020
:1062A000FFF7D2FDD4E90F20216802FB0011A160A5
:1062B0000021A163216861600A46D4E90F01401EF4
:1062C00000FB0121E16021464FF0FF3001F8440F4F
:1062D000487004F110008DB1FFF784FD04F1240033
:1062E000FFF780FDFFF7D0FD012070BD502080F347
:1062F0001188BFF34F8FBFF36F8FFEE7216900292D
:10630000F0D000F059FB0028ECD004494FF0805049
:106310000860BFF34F8FBFF36F8FE3E704ED00E03A
:106320002DE9FF4782B01D468A464FF00008040061
:1063300003D0BAF1000F08D011E0502080F311888B
:10634000BFF34F8FBFF36F8FFEE7206C38B1502043
:1063500080F31188BFF34F8FBFF36F8FFEE7022DDD
:106360000AD1E06B012807D0502080F31188BFF3D9
:106370004F8FBFF36F8FFEE700F05EFA3F4F4FF095
:1063800000094FF0805648B9049838B1502080F386
:106390001188BFF34F8FBFF36F8FFEE7FFF754FDF8
:1063A000A06BE16B884207D3022D05D00498D0B1D1
:1063B000B8F1000F1AD01EE02A4651462046FFF7DA
:1063C000E2FA616A19B104F1240000F0F5FA20B193
:1063D0003E60BFF34F8FBFF36F8FFFF755FD012076
:1063E00006B0BDE8F087FFF74FFD22E06846FFF7F3
:1063F000F3FD4FF00108FFF747FDFFF749FEFFF7F8
:1064000023FD94F94400401C01D184F8449094F990
:106410004500401C01D184F84590FFF735FD04A9E3
:10642000684600F077F930B12046FFF703FC00F032
:10643000FDFA0020D4E7FFF707FDA06BE16B88426F
:1064400013D1FFF721FD04F110000499FFF7D2FDED
:106450002046FFF7EFFB00F0E9FA00289ED13E60EE
:10646000BFF34F8FBFF36F8F98E7FFF70DFD204607
:10647000FFF7E0FB00F0DAFA90E7000004ED00E03F
:106480002DE9F0471F4690468946040003D0B9F134
:10649000000F08D011E0502080F31188BFF34F8F18
:1064A000BFF36F8FFEE7206C38B1502080F3118866
:1064B000BFF34F8FBFF36F8FFEE7022F0AD1E06B60
:1064C000012807D0502080F31188BFF34F8FBFF30E
:1064D0006F8FFEE7FFF730FD5020EFF3118680F35A
:1064E0001188BFF34F8FBFF36F8FA06BE16B8842B2
:1064F00006D3022F04D0002086F31188BDE8F08770
:1065000094F94550A06B3A4649462046FFF73BFABE
:10651000681C04D06D1C84F845500120ECE7606ACB
:106520000028FAD004F1240000F046FA0028F4D044
:10653000B8F1000FF1D00121C8F80010EDE700001C
:106540002DE9F747002683B08A46040003D0BAF14C
:10655000000F08D011E0502080F31188BFF34F8F57
:10656000BFF36F8FFEE7206C38B1502080F31188A5
:10657000BFF34F8FBFF36F8FFEE700F05DF9DFF8D9
:10658000F4804FF000094FF0805748B9059838B1B2
:10659000502080F31188BFF34F8FBFF36F8FFEE75A
:1065A000FFF752FCA56BC5B151462046FFF7D8F95D
:1065B0006D1EA563206950B104F1100000F0FCF9D4
:1065C00028B1C8F80070BFF34F8FBFF36F8FFFF78C
:1065D0005BFC012006B0BDE8F087059808B11EB14C
:1065E00006E0FFF751FC27E06846FFF7F5FC0126BF
:1065F000FFF74AFCFFF74CFDFFF726FC94F9440037
:10660000401C01D184F8449094F94500401C01D10C
:1066100084F84590FFF738FC05A9684600F07AF841
:10662000002820460AD0FFF705FB00F0FFF92046BE
:10663000FFF7CEFA0028B3D00020CBE7FFF7C8FA67
:1066400090B104F124000599FFF7D4FC2046FFF730
:10665000F1FA00F0EBF90028A2D1C8F80070BFF3FE
:106660004F8FBFF36F8F9BE72046FFF7E3FA00F0F1
:10667000DDF995E704ED00E02DE9F0479046894605
:10668000040003D0B9F1000F08D011E0502080F3CE
:106690001188BFF34F8FBFF36F8FFEE7206C38B1C7
:1066A000502080F31188BFF34F8FBFF36F8FFEE749
:1066B000FFF742FC5020EFF3118680F31188BFF3FF
:1066C0004F8FBFF36F8FA76BF7B194F944504946D2
:1066D0002046FFF745F97F1EA763681C04D06D1C98
:1066E00084F84450012010E020690028FAD004F119
:1066F000100000F061F90028F4D0B8F1000FF1D0DB
:106700000121C8F80010EDE7002086F31188BDE8EC
:10671000F08700002DE9F0410C46050011D0C4B10E
:10672000FFF792FB174BDA686E682068911B471CD5
:1067300017D02F681B6A9F4219D0964217D80124A0
:1067400010E0502080F31188BFF34F8FBFF36F8F9D
:10675000FEE7502080F31188BFF34F8FBFF36F8F98
:10676000FEE70024FFF790FB2046BDE8F081884259
:1067700005D9401A20602846FFF72EFCF1E70020DB
:106780002060DCE7600000202DE9FF5F8346DDE943
:106790000E87994616468A469000FFF781FA050053
:1067A0001CD05420FFF77CFA040014D0002025638D
:1067B00084F85100CDE90240CDE900874B463246CE
:1067C00051465846FFF791F92046FFF761F801203E
:1067D00004B0BDE8F09F2846FFF76AFB4FF0FF309A
:1067E000F6E7F0B585B0DDE90B640A9DA6B1DCB132
:1067F000542700972663022684F85160002604AFD0
:10680000CDE90246CDE90057FFF76FF92046FFF7C3
:106810003FF8049805B0F0BD502080F31188BFF315
:106820004F8FBFF36F8FFEE7502080F31188BFF3C7
:106830004F8FBFF36F8FFEE70548416919B1006BB9
:1068400018B10020704701207047022070470000F7
:10685000600000202DE9F0412F4C0026206B28B16C
:10686000A069401CA0613046BDE8F081E5686D1C60
:10687000E56013D1606B006838B1502080F3118857
:10688000BFF34F8FBFF36F8FFEE7606BA16B616348
:10689000A063206A401C2062FFF7A8F9A06ADFF815
:1068A0007C80854209D3606B0068A0B1606BC068D2
:1068B000C7687868854211D2A0622068C06A00EB80
:1068C000800158F82100012800D90126E06900283C
:1068D000C9D00126C7E74FF0FF30EDE7381DFFF7BD
:1068E00063FAB86A18B107F11800FFF75DFAF96AA0
:1068F0000120226988401043206101EB810108EBEF
:106900008100391DFFF794FAF86A2168C96A884244
:10691000C9D30126C7E7000060000020F00C00206A
:1069200070B504004FF0000140D0214D286884422A
:1069300007D0502080F31188BFF34F8FBFF36F8FC4
:10694000FEE7A06C38B1401EA064636CE26A9A4214
:106950002CD040B12AE0502080F31188BFF34F8F34
:10696000BFF36F8FFEE7201DFFF71EFA114A0121CA
:1069700050B9E06A00EB800352F8233023B92B6949
:1069800001FA00F083432B61606CE062C0F1070004
:10699000A061E06A2B6981401943296100EB800006
:1069A00002EB8000211DFFF743FA0121084670BD6C
:1069B00060000020F00C00202DE9F041C068C468A0
:1069C000ACB104F118000746FFF7EEF9154D286B3E
:1069D0000126A0B139461448FFF72AFAE06A29686F
:1069E000C96A88421CD90120EE61BDE8F0815020BF
:1069F00080F31188BFF34F8FBFF36F8FFEE7201D29
:106A0000FFF7D2F9E16A2A6906FA01F0104328611A
:106A100001EB81000449B43901EB8000211DDBE763
:106A20000020E2E760000020A40D00202DE9F047DF
:106A30002C4D00242746286B38B1FFF705FA286B48
:106A4000401E2863286B40B146E0502080F3118837
:106A5000BFF34F8FBFF36F8FFEE7A968224E01206F
:106A6000D1B3A6F1B40980463068E8B1F068C468D3
:106A700004F11800FFF798F9201DFFF795F9E06A77
:106A80002A6908FA00F11143296100EB800109EB42
:106A90008100211DFFF7CCF9E06A2968C96A8842A4
:106AA000E2D3C5F81C80DFE70CB1FFF79FF8AC69B3
:106AB00044B14646FFF7CEFE00B1EE61641EF9D147
:106AC0000020A861E86938B1084901273807086043
:106AD000BFF34F8FBFF36F8FFFF7D6F93846BDE88E
:106AE000F087000060000020A40D002004ED00E00D
:106AF0004FF04070E1EE100A7047000040000000C7
:106B0000010000000000000000000000050000007F
:106B10000400000000000000000000001000000061
:106B20000400000000000000000000000A00000057
:106B3000040000000000000000000000050000004C
:106B4000010000000000000000000000206D0008AF
:106B5000673900080000000000000000800000000D
:106B60000000000000000000A86C0008B339000815
:106B7000FDFF000000000000800000000000000099
:106B800000000000B86C0008AB390008FDFF0000F1
:106B90000000000080000000000000000000000075
:106BA000E46C000893390008FDFF000000000000BD
:106BB000800000000000000000000000106D0008D0
:106BC00083390008FDFF0000000000008000000085
:106BD0000000000000000000C86C00089B3900089D
:106BE000FDFF000000000000800000000000000029
:106BF00000000000D86C00087B390008FDFF000091
:106C00000000000080000000000000000000000004
:106C1000046D00088B390008FDFF00000000000033
:106C2000800000000000000000000000F46C00087C
:106C300073390008FDFF0000000000008000000024
:106C400000000000000000002C6D0008A3390008BF
:106C5000FDFF0000000000008000000000000000B8
:106C6000000000000000000000000000010203041A
:106C700006070809000000000102030410000000DC
:106C80000200000000000000000000003C6D000851
:106C9000A14D00080000000000000000800000007E
:106CA000000000000000000054656D705F48756DC5
:106CB00069646974795F540050574D5F4472697616
:106CC000655F5461736B00004C6F6767696E675F47
:106CD0005461736B0000000044656275675F546126
:106CE000736B00004C6F636174696F6E5F54617306
:106CF0006B000000436F6E74726F6C735F5461734E
:106D00006B0000004C69676874735F5461736B00BB
:106D1000446973706C61795F5461736B00000000AB
:106D200064656661756C745461736B004F7269655C
:106D30006E746174696F6E5F54617300555342489D
:106D40005F54687265616400434443006C6D0008E1
:106D500000000020E8000000C4010008546E000894
:106D6000E8000020584F0000E0010008000000008B
:106D70000000000000000000000000000000000013
:106D80000000000000000000000000000000000003
:106D900000000000000000000000000000000000F3
:106DA00000000000000000000000000000000000E3
:106DB00000000000000000000000000001000000D2
:106DC00010000000000000000024F400000000009B
:106DD00000000000000000000000000000000000B3
:106DE00000000000000000000000000000000000A3
:106DF0000000000000000000000000000000000093
:106E00000000000000000000000000000000000082
:106E10000000000000000000000000000000000072
:106E2000000000000000000000000000AAAAAAAABA
:106E300000000000486D000802000000FB3E000852
:106E40009D3E0008793E000841400008FB400008D4
:046E5000000000003E
:040000050800018965
:00000001FF
