Component: ARM Compiler 5.06 update 6 (build 750) Tool: armlink [4d35ed]

==============================================================================

Section Cross References

    startup_stm32f407xx.o(STACK) refers (Special) to heapauxi.o(.text) for __use_two_region_memory
    startup_stm32f407xx.o(HEAP) refers (Special) to heapauxi.o(.text) for __use_two_region_memory
    startup_stm32f407xx.o(RESET) refers (Special) to heapauxi.o(.text) for __use_two_region_memory
    startup_stm32f407xx.o(RESET) refers to startup_stm32f407xx.o(STACK) for __initial_sp
    startup_stm32f407xx.o(RESET) refers to startup_stm32f407xx.o(.text) for Reset_Handler
    startup_stm32f407xx.o(RESET) refers to stm32f4xx_it.o(i.NMI_Handler) for NMI_Handler
    startup_stm32f407xx.o(RESET) refers to stm32f4xx_it.o(i.HardFault_Handler) for HardFault_Handler
    startup_stm32f407xx.o(RESET) refers to stm32f4xx_it.o(i.MemManage_Handler) for MemManage_Handler
    startup_stm32f407xx.o(RESET) refers to stm32f4xx_it.o(i.BusFault_Handler) for BusFault_Handler
    startup_stm32f407xx.o(RESET) refers to stm32f4xx_it.o(i.UsageFault_Handler) for UsageFault_Handler
    startup_stm32f407xx.o(RESET) refers to port.o(.emb_text) for SVC_Handler
    startup_stm32f407xx.o(RESET) refers to stm32f4xx_it.o(i.DebugMon_Handler) for DebugMon_Handler
    startup_stm32f407xx.o(RESET) refers to port.o(i.SysTick_Handler) for SysTick_Handler
    startup_stm32f407xx.o(RESET) refers to stm32f4xx_it.o(i.TIM2_IRQHandler) for TIM2_IRQHandler
    startup_stm32f407xx.o(RESET) refers to stm32f4xx_it.o(i.OTG_FS_IRQHandler) for OTG_FS_IRQHandler
    startup_stm32f407xx.o(.text) refers (Special) to heapauxi.o(.text) for __use_two_region_memory
    startup_stm32f407xx.o(.text) refers to system_stm32f4xx.o(i.SystemInit) for SystemInit
    startup_stm32f407xx.o(.text) refers to __main.o(!!!main) for __main
==============================================================================

Removing Unused input sections from the image.

    Removing main.o(.rev16_text), (4 bytes).
    Removing main.o(.revsh_text), (4 bytes).
    Removing main.o(.rrx_text), (6 bytes).
    Removing gpio.o(.rev16_text), (4 bytes).
    Removing gpio.o(.revsh_text), (4 bytes).
    Removing gpio.o(.rrx_text), (6 bytes).
    Removing freertos.o(.rev16_text), (4 bytes).
    Removing freertos.o(.revsh_text), (4 bytes).
    Removing freertos.o(.rrx_text), (6 bytes).
    Removing adc.o(.rev16_text), (4 bytes).
    Removing adc.o(.revsh_text), (4 bytes).
    Removing adc.o(.rrx_text), (6 bytes).
    Removing adc.o(i.HAL_ADC_MspDeInit), (60 bytes).
    Removing i2c.o(.rev16_text), (4 bytes).
    Removing i2c.o(.revsh_text), (4 bytes).
    Removing i2c.o(.rrx_text), (6 bytes).
    Removing i2c.o(i.HAL_I2C_MspDeInit), (56 bytes).
    Removing i2s.o(.rev16_text), (4 bytes).
==============================================================================

Image Symbol Table

    Local Symbols

    Symbol Name                              Value     Ov Type        Size  Object(Section)

    ../Core/Src/adc.c                        0x00000000   Number         0  adc.o ABSOLUTE
    ../Core/Src/freertos.c                   0x00000000   Number         0  freertos.o ABSOLUTE
    ../Core/Src/gpio.c                       0x00000000   Number         0  gpio.o ABSOLUTE
    ../Core/Src/i2c.c                        0x00000000   Number         0  i2c.o ABSOLUTE
    ../Core/Src/i2s.c                        0x00000000   Number         0  i2s.o ABSOLUTE
    ../Core/Src/main.c                       0x00000000   Number         0  main.o ABSOLUTE
    ../Core/Src/rtc.c                        0x00000000   Number         0  rtc.o ABSOLUTE
    ../Core/Src/spi.c                        0x00000000   Number         0  spi.o ABSOLUTE
    ../Core/Src/stm32f4xx_hal_msp.c          0x00000000   Number         0  stm32f4xx_hal_msp.o ABSOLUTE
    ../Core/Src/stm32f4xx_hal_timebase_tim.c 0x00000000   Number         0  stm32f4xx_hal_timebase_tim.o ABSOLUTE
    ../Core/Src/stm32f4xx_it.c               0x00000000   Number         0  stm32f4xx_it.o ABSOLUTE
    ../Core/Src/system_stm32f4xx.c           0x00000000   Number         0  system_stm32f4xx.o ABSOLUTE
    ../Core/Src/tim.c                        0x00000000   Number         0  tim.o ABSOLUTE
    ../Core/Src/usart.c                      0x00000000   Number         0  usart.o ABSOLUTE
    ../Drivers/STM32F4xx_HAL_Driver/Src/stm32f4xx_hal.c 0x00000000   Number         0  stm32f4xx_hal.o ABSOLUTE
    ../Drivers/STM32F4xx_HAL_Driver/Src/stm32f4xx_hal_adc.c 0x00000000   Number         0  stm32f4xx_hal_adc.o ABSOLUTE
    ../Drivers/STM32F4xx_HAL_Driver/Src/stm32f4xx_hal_adc_ex.c 0x00000000   Number         0  stm32f4xx_hal_adc_ex.o ABSOLUTE
    ../Drivers/STM32F4xx_HAL_Driver/Src/stm32f4xx_hal_cortex.c 0x00000000   Number         0  stm32f4xx_hal_cortex.o ABSOLUTE
    ../Drivers/STM32F4xx_HAL_Driver/Src/stm32f4xx_hal_dma.c 0x00000000   Number         0  stm32f4xx_hal_dma.o ABSOLUTE
    ../Drivers/STM32F4xx_HAL_Driver/Src/stm32f4xx_hal_dma_ex.c 0x00000000   Number         0  stm32f4xx_hal_dma_ex.o ABSOLUTE
    ../Drivers/STM32F4xx_HAL_Driver/Src/stm32f4xx_hal_exti.c 0x00000000   Number         0  stm32f4xx_hal_exti.o ABSOLUTE
    ../Drivers/STM32F4xx_HAL_Driver/Src/stm32f4xx_hal_flash.c 0x00000000   Number         0  stm32f4xx_hal_flash.o ABSOLUTE
    ../Drivers/STM32F4xx_HAL_Driver/Src/stm32f4xx_hal_flash_ex.c 0x00000000   Number         0  stm32f4xx_hal_flash_ex.o ABSOLUTE
    ../Drivers/STM32F4xx_HAL_Driver/Src/stm32f4xx_hal_flash_ramfunc.c 0x00000000   Number         0  stm32f4xx_hal_flash_ramfunc.o ABSOLUTE
    ../Drivers/STM32F4xx_HAL_Driver/Src/stm32f4xx_hal_gpio.c 0x00000000   Number         0  stm32f4xx_hal_gpio.o ABSOLUTE
    ../Drivers/STM32F4xx_HAL_Driver/Src/stm32f4xx_hal_hcd.c 0x00000000   Number         0  stm32f4xx_hal_hcd.o ABSOLUTE
    ../Drivers/STM32F4xx_HAL_Driver/Src/stm32f4xx_hal_i2c.c 0x00000000   Number         0  stm32f4xx_hal_i2c.o ABSOLUTE
    ../Drivers/STM32F4xx_HAL_Driver/Src/stm32f4xx_hal_i2c_ex.c 0x00000000   Number         0  stm32f4xx_hal_i2c_ex.o ABSOLUTE
    ../Drivers/STM32F4xx_HAL_Driver/Src/stm32f4xx_hal_i2s.c 0x00000000   Number         0  stm32f4xx_hal_i2s.o ABSOLUTE
    ../Drivers/STM32F4xx_HAL_Driver/Src/stm32f4xx_hal_i2s_ex.c 0x00000000   Number         0  stm32f4xx_hal_i2s_ex.o ABSOLUTE
    ../Drivers/STM32F4xx_HAL_Driver/Src/stm32f4xx_hal_pwr.c 0x00000000   Number         0  stm32f4xx_hal_pwr.o ABSOLUTE
    ../Drivers/STM32F4xx_HAL_Driver/Src/stm32f4xx_hal_pwr_ex.c 0x00000000   Number         0  stm32f4xx_hal_pwr_ex.o ABSOLUTE
    ../Drivers/STM32F4xx_HAL_Driver/Src/stm32f4xx_hal_rcc.c 0x00000000   Number         0  stm32f4xx_hal_rcc.o ABSOLUTE
    ../Drivers/STM32F4xx_HAL_Driver/Src/stm32f4xx_hal_rcc_ex.c 0x00000000   Number         0  stm32f4xx_hal_rcc_ex.o ABSOLUTE
    ../Drivers/STM32F4xx_HAL_Driver/Src/stm32f4xx_hal_rtc.c 0x00000000   Number         0  stm32f4xx_hal_rtc.o ABSOLUTE
    ../Drivers/STM32F4xx_HAL_Driver/Src/stm32f4xx_hal_rtc_ex.c 0x00000000   Number         0  stm32f4xx_hal_rtc_ex.o ABSOLUTE
    ../Drivers/STM32F4xx_HAL_Driver/Src/stm32f4xx_hal_spi.c 0x00000000   Number         0  stm32f4xx_hal_spi.o ABSOLUTE
    ../Drivers/STM32F4xx_HAL_Driver/Src/stm32f4xx_hal_tim.c 0x00000000   Number         0  stm32f4xx_hal_tim.o ABSOLUTE
    ../Drivers/STM32F4xx_HAL_Driver/Src/stm32f4xx_hal_tim_ex.c 0x00000000   Number         0  stm32f4xx_hal_tim_ex.o ABSOLUTE
    ../Drivers/STM32F4xx_HAL_Driver/Src/stm32f4xx_hal_uart.c 0x00000000   Number         0  stm32f4xx_hal_uart.o ABSOLUTE
    ../Drivers/STM32F4xx_HAL_Driver/Src/stm32f4xx_ll_adc.c 0x00000000   Number         0  stm32f4xx_ll_adc.o ABSOLUTE
    ../Drivers/STM32F4xx_HAL_Driver/Src/stm32f4xx_ll_usb.c 0x00000000   Number         0  stm32f4xx_ll_usb.o ABSOLUTE
    ../Middlewares/ST/STM32_USB_Host_Library/Class/CDC/Src/usbh_cdc.c 0x00000000   Number         0  usbh_cdc.o ABSOLUTE
    ../Middlewares/ST/STM32_USB_Host_Library/Core/Src/usbh_core.c 0x00000000   Number         0  usbh_core.o ABSOLUTE
    ../Middlewares/ST/STM32_USB_Host_Library/Core/Src/usbh_ctlreq.c 0x00000000   Number         0  usbh_ctlreq.o ABSOLUTE
    ../Middlewares/ST/STM32_USB_Host_Library/Core/Src/usbh_ioreq.c 0x00000000   Number         0  usbh_ioreq.o ABSOLUTE
    ../Middlewares/ST/STM32_USB_Host_Library/Core/Src/usbh_pipes.c 0x00000000   Number         0  usbh_pipes.o ABSOLUTE
    ../Middlewares/Third_Party/FreeRTOS/Source/CMSIS_RTOS/cmsis_os.c 0x00000000   Number         0  cmsis_os.o ABSOLUTE
    ../Middlewares/Third_Party/FreeRTOS/Source/croutine.c 0x00000000   Number         0  croutine.o ABSOLUTE
    ../Middlewares/Third_Party/FreeRTOS/Source/event_groups.c 0x00000000   Number         0  event_groups.o ABSOLUTE
    ../Middlewares/Third_Party/FreeRTOS/Source/list.c 0x00000000   Number         0  list.o ABSOLUTE
    ../Middlewares/Third_Party/FreeRTOS/Source/portable/MemMang/heap_4.c 0x00000000   Number         0  heap_4.o ABSOLUTE
    ../Middlewares/Third_Party/FreeRTOS/Source/portable/RVDS/ARM_CM4F/port.c 0x00000000   Number         0  port.o ABSOLUTE
    ../Middlewares/Third_Party/FreeRTOS/Source/queue.c 0x00000000   Number         0  queue.o ABSOLUTE
    ../Middlewares/Third_Party/FreeRTOS/Source/stream_buffer.c 0x00000000   Number         0  stream_buffer.o ABSOLUTE
    ../Middlewares/Third_Party/FreeRTOS/Source/tasks.c 0x00000000   Number         0  tasks.o ABSOLUTE
    ../Middlewares/Third_Party/FreeRTOS/Source/timers.c 0x00000000   Number         0  timers.o ABSOLUTE
    ../USB_HOST/App/usb_host.c               0x00000000   Number         0  usb_host.o ABSOLUTE
    ../USB_HOST/Target/usbh_conf.c           0x00000000   Number         0  usbh_conf.o ABSOLUTE
    ../USB_HOST/Target/usbh_platform.c       0x00000000   Number         0  usbh_platform.o ABSOLUTE
    ../clib/angel/boardlib.s                 0x00000000   Number         0  boardinit3.o ABSOLUTE
    ../clib/angel/boardlib.s                 0x00000000   Number         0  boardinit2.o ABSOLUTE
    ../clib/angel/boardlib.s                 0x00000000   Number         0  boardinit1.o ABSOLUTE
    ../clib/angel/boardlib.s                 0x00000000   Number         0  boardshut.o ABSOLUTE
    ../clib/angel/handlers.s                 0x00000000   Number         0  __scatter_copy.o ABSOLUTE
    ../clib/angel/handlers.s                 0x00000000   Number         0  __scatter_zi.o ABSOLUTE
    ../clib/angel/kernel.s                   0x00000000   Number         0  __rtentry4.o ABSOLUTE
    ../clib/angel/kernel.s                   0x00000000   Number         0  rtexit.o ABSOLUTE
    ../clib/angel/kernel.s                   0x00000000   Number         0  rtexit2.o ABSOLUTE
    ../clib/angel/kernel.s                   0x00000000   Number         0  __rtentry2.o ABSOLUTE
    ../clib/angel/kernel.s                   0x00000000   Number         0  __rtentry.o ABSOLUTE
    ../clib/angel/rt.s                       0x00000000   Number         0  rt_heap_descriptor.o ABSOLUTE
    ../clib/angel/rt.s                       0x00000000   Number         0  rt_heap_descriptor_intlibspace.o ABSOLUTE
    ../clib/angel/rt.s                       0x00000000   Number         0  aeabi_ldiv0.o ABSOLUTE
    ../clib/angel/rt.s                       0x00000000   Number         0  aeabi_ldiv0_sigfpe.o ABSOLUTE
    ../clib/angel/rt.s                       0x00000000   Number         0  rt_div0.o ABSOLUTE
    ../clib/angel/rt.s                       0x00000000   Number         0  rt_raise.o ABSOLUTE
    ../clib/angel/scatter.s                  0x00000000   Number         0  __scatter.o ABSOLUTE
    ../clib/angel/startup.s                  0x00000000   Number         0  __main.o ABSOLUTE
    ../clib/angel/sys.s                      0x00000000   Number         0  libspace.o ABSOLUTE
    ../clib/angel/sys.s                      0x00000000   Number         0  indicate_semi.o ABSOLUTE
    ../clib/angel/sys.s                      0x00000000   Number         0  mutex_dummy.o ABSOLUTE
    ../clib/angel/sys.s                      0x00000000   Number         0  use_no_semi.o ABSOLUTE
    ../clib/angel/sys.s                      0x00000000   Number         0  sys_stackheap_outer.o ABSOLUTE
    ../clib/angel/sysapp.c                   0x00000000   Number         0  sys_wrch.o ABSOLUTE
    ../clib/angel/sysapp.c                   0x00000000   Number         0  sys_command.o ABSOLUTE
    ../clib/angel/sysapp.c                   0x00000000   Number         0  sys_exit.o ABSOLUTE
    ../clib/armsys.c                         0x00000000   Number         0  _get_argv.o ABSOLUTE
    ../clib/armsys.c                         0x00000000   Number         0  _get_argv_nomalloc.o ABSOLUTE
    ../clib/armsys.c                         0x00000000   Number         0  no_argv.o ABSOLUTE
    ../clib/armsys.c                         0x00000000   Number         0  argv_veneer.o ABSOLUTE
    ../clib/armsys.c                         0x00000000   Number         0  argv_veneer.o ABSOLUTE
    ../clib/heap1.c                          0x00000000   Number         0  h1_free_mt.o ABSOLUTE
    ../clib/heap1.c                          0x00000000   Number         0  h1_init_mt.o ABSOLUTE
    ../clib/heap1.c                          0x00000000   Number         0  h1_extend_mt.o ABSOLUTE
    ../clib/heap1.c                          0x00000000   Number         0  h1_init.o ABSOLUTE
    ../clib/heap1.c                          0x00000000   Number         0  h1_final_mt.o ABSOLUTE
    ../clib/heap1.c                          0x00000000   Number         0  h1_final.o ABSOLUTE
    ../clib/heap1.c                          0x00000000   Number         0  h1_alloc.o ABSOLUTE
    ../clib/heap1.c                          0x00000000   Number         0  h1_free.o ABSOLUTE
    ../clib/heap1.c                          0x00000000   Number         0  h1_alloc_mt.o ABSOLUTE
    ../clib/heap1.c                          0x00000000   Number         0  h1_extend.o ABSOLUTE
    ../clib/heap2.c                          0x00000000   Number         0  heap2.o ABSOLUTE
    ../clib/heap2.c                          0x00000000   Number         0  fdtree.o ABSOLUTE
    ../clib/heap2.c                          0x00000000   Number         0  heap2mt.o ABSOLUTE
    ../clib/heapalloc.c                      0x00000000   Number         0  maybetermalloc2.o ABSOLUTE
    ../clib/heapalloc.c                      0x00000000   Number         0  maybetermalloc1.o ABSOLUTE
    ../clib/heapalloc.c                      0x00000000   Number         0  maybetermalloc1.o ABSOLUTE
    ../clib/heapalloc.c                      0x00000000   Number         0  hrguard.o ABSOLUTE
    ../clib/heapalloc.c                      0x00000000   Number         0  term_alloc.o ABSOLUTE
    ../clib/heapalloc.c                      0x00000000   Number         0  maybetermalloc2.o ABSOLUTE
    ../clib/heapalloc.c                      0x00000000   Number         0  malloc.o ABSOLUTE
    ../clib/heapalloc.c                      0x00000000   Number         0  free.o ABSOLUTE
    ../clib/heapalloc.c                      0x00000000   Number         0  heapstubs.o ABSOLUTE
    ../clib/heapalloc.c                      0x00000000   Number         0  init_alloc.o ABSOLUTE
    ../clib/heapalloc.c                      0x00000000   Number         0  hguard.o ABSOLUTE
    ../clib/heapaux.c                        0x00000000   Number         0  heapauxa.o ABSOLUTE
    ../clib/heapaux.c                        0x00000000   Number         0  heapauxi.o ABSOLUTE
    ../clib/libinit.s                        0x00000000   Number         0  libinit.o ABSOLUTE
    ../clib/libinit.s                        0x00000000   Number         0  libshutdown2.o ABSOLUTE
    ../clib/libinit.s                        0x00000000   Number         0  libinit2.o ABSOLUTE
    ../clib/libinit.s                        0x00000000   Number         0  libshutdown.o ABSOLUTE
    ../clib/longlong.s                       0x00000000   Number         0  lludivv7m.o ABSOLUTE
    ../clib/memcpset.s                       0x00000000   Number         0  rt_memcpy_w.o ABSOLUTE
    ../clib/memcpset.s                       0x00000000   Number         0  rt_memcpy_v6.o ABSOLUTE
    ../clib/memcpset.s                       0x00000000   Number         0  memset.o ABSOLUTE
    ../clib/memcpset.s                       0x00000000   Number         0  rt_memclr_w.o ABSOLUTE
    ../clib/memcpset.s                       0x00000000   Number         0  rt_memclr.o ABSOLUTE
    ../clib/signal.c                         0x00000000   Number         0  defsig_exit.o ABSOLUTE
    ../clib/signal.c                         0x00000000   Number         0  defsig_cppl_inner.o ABSOLUTE
    ../clib/signal.c                         0x00000000   Number         0  defsig_fpe_outer.o ABSOLUTE
    ../clib/signal.c                         0x00000000   Number         0  defsig_rtmem_outer.o ABSOLUTE
    ../clib/signal.c                         0x00000000   Number         0  defsig_rtmem_inner.o ABSOLUTE
    ../clib/signal.c                         0x00000000   Number         0  __raise.o ABSOLUTE
    ../clib/signal.c                         0x00000000   Number         0  defsig_general.o ABSOLUTE
    ../clib/signal.c                         0x00000000   Number         0  defsig_rtmem_formal.o ABSOLUTE
    ../clib/signal.c                         0x00000000   Number         0  defsig_fpe_inner.o ABSOLUTE
    ../clib/signal.c                         0x00000000   Number         0  defsig_fpe_formal.o ABSOLUTE
    ../clib/signal.c                         0x00000000   Number         0  defsig_pvfn_inner.o ABSOLUTE
    ../clib/signal.c                         0x00000000   Number         0  defsig_other.o ABSOLUTE
    ../clib/signal.c                         0x00000000   Number         0  defsig_segv_inner.o ABSOLUTE
    ../clib/signal.c                         0x00000000   Number         0  defsig_abrt_inner.o ABSOLUTE
    ../clib/signal.c                         0x00000000   Number         0  defsig_rtred_inner.o ABSOLUTE
    ../clib/signal.c                         0x00000000   Number         0  defsig_stak_inner.o ABSOLUTE
    ../clib/signal.s                         0x00000000   Number         0  defsig.o ABSOLUTE
    ../clib/stdlib.c                         0x00000000   Number         0  exit.o ABSOLUTE
    ../fplib/fpinit.s                        0x00000000   Number         0  fpinit.o ABSOLUTE
    ..\Core\Src\adc.c                        0x00000000   Number         0  adc.o ABSOLUTE
    ..\Core\Src\freertos.c                   0x00000000   Number         0  freertos.o ABSOLUTE
    ..\Core\Src\gpio.c                       0x00000000   Number         0  gpio.o ABSOLUTE
    ..\Core\Src\i2c.c                        0x00000000   Number         0  i2c.o ABSOLUTE
    ..\Core\Src\i2s.c                        0x00000000   Number         0  i2s.o ABSOLUTE
    ..\Core\Src\main.c                       0x00000000   Number         0  main.o ABSOLUTE
    ..\Core\Src\rtc.c                        0x00000000   Number         0  rtc.o ABSOLUTE
    ..\Core\Src\spi.c                        0x00000000   Number         0  spi.o ABSOLUTE
    ..\Core\Src\stm32f4xx_hal_msp.c          0x00000000   Number         0  stm32f4xx_hal_msp.o ABSOLUTE
    ..\Core\Src\stm32f4xx_hal_timebase_tim.c 0x00000000   Number         0  stm32f4xx_hal_timebase_tim.o ABSOLUTE
    ..\Core\Src\stm32f4xx_it.c               0x00000000   Number         0  stm32f4xx_it.o ABSOLUTE
    ..\Core\Src\system_stm32f4xx.c           0x00000000   Number         0  system_stm32f4xx.o ABSOLUTE
    ..\Core\Src\tim.c                        0x00000000   Number         0  tim.o ABSOLUTE
    ..\Core\Src\usart.c                      0x00000000   Number         0  usart.o ABSOLUTE
    ..\Drivers\STM32F4xx_HAL_Driver\Src\stm32f4xx_hal.c 0x00000000   Number         0  stm32f4xx_hal.o ABSOLUTE
    ..\Drivers\STM32F4xx_HAL_Driver\Src\stm32f4xx_hal_adc.c 0x00000000   Number         0  stm32f4xx_hal_adc.o ABSOLUTE
    ..\Drivers\STM32F4xx_HAL_Driver\Src\stm32f4xx_hal_adc_ex.c 0x00000000   Number         0  stm32f4xx_hal_adc_ex.o ABSOLUTE
    ..\Drivers\STM32F4xx_HAL_Driver\Src\stm32f4xx_hal_cortex.c 0x00000000   Number         0  stm32f4xx_hal_cortex.o ABSOLUTE
    ..\Drivers\STM32F4xx_HAL_Driver\Src\stm32f4xx_hal_dma.c 0x00000000   Number         0  stm32f4xx_hal_dma.o ABSOLUTE
    ..\Drivers\STM32F4xx_HAL_Driver\Src\stm32f4xx_hal_dma_ex.c 0x00000000   Number         0  stm32f4xx_hal_dma_ex.o ABSOLUTE
    ..\Drivers\STM32F4xx_HAL_Driver\Src\stm32f4xx_hal_exti.c 0x00000000   Number         0  stm32f4xx_hal_exti.o ABSOLUTE
    ..\Drivers\STM32F4xx_HAL_Driver\Src\stm32f4xx_hal_flash.c 0x00000000   Number         0  stm32f4xx_hal_flash.o ABSOLUTE
    ..\Drivers\STM32F4xx_HAL_Driver\Src\stm32f4xx_hal_flash_ex.c 0x00000000   Number         0  stm32f4xx_hal_flash_ex.o ABSOLUTE
    ..\Drivers\STM32F4xx_HAL_Driver\Src\stm32f4xx_hal_flash_ramfunc.c 0x00000000   Number         0  stm32f4xx_hal_flash_ramfunc.o ABSOLUTE
    ..\Drivers\STM32F4xx_HAL_Driver\Src\stm32f4xx_hal_gpio.c 0x00000000   Number         0  stm32f4xx_hal_gpio.o ABSOLUTE
    ..\Drivers\STM32F4xx_HAL_Driver\Src\stm32f4xx_hal_hcd.c 0x00000000   Number         0  stm32f4xx_hal_hcd.o ABSOLUTE
    ..\Drivers\STM32F4xx_HAL_Driver\Src\stm32f4xx_hal_i2c.c 0x00000000   Number         0  stm32f4xx_hal_i2c.o ABSOLUTE
    ..\Drivers\STM32F4xx_HAL_Driver\Src\stm32f4xx_hal_i2c_ex.c 0x00000000   Number         0  stm32f4xx_hal_i2c_ex.o ABSOLUTE
    ..\Drivers\STM32F4xx_HAL_Driver\Src\stm32f4xx_hal_i2s.c 0x00000000   Number         0  stm32f4xx_hal_i2s.o ABSOLUTE
    ..\Drivers\STM32F4xx_HAL_Driver\Src\stm32f4xx_hal_i2s_ex.c 0x00000000   Number         0  stm32f4xx_hal_i2s_ex.o ABSOLUTE
    ..\Drivers\STM32F4xx_HAL_Driver\Src\stm32f4xx_hal_pwr.c 0x00000000   Number         0  stm32f4xx_hal_pwr.o ABSOLUTE
    ..\Drivers\STM32F4xx_HAL_Driver\Src\stm32f4xx_hal_pwr_ex.c 0x00000000   Number         0  stm32f4xx_hal_pwr_ex.o ABSOLUTE
    ..\Drivers\STM32F4xx_HAL_Driver\Src\stm32f4xx_hal_rcc.c 0x00000000   Number         0  stm32f4xx_hal_rcc.o ABSOLUTE
    ..\Drivers\STM32F4xx_HAL_Driver\Src\stm32f4xx_hal_rcc_ex.c 0x00000000   Number         0  stm32f4xx_hal_rcc_ex.o ABSOLUTE
    ..\Drivers\STM32F4xx_HAL_Driver\Src\stm32f4xx_hal_rtc.c 0x00000000   Number         0  stm32f4xx_hal_rtc.o ABSOLUTE
    ..\Drivers\STM32F4xx_HAL_Driver\Src\stm32f4xx_hal_rtc_ex.c 0x00000000   Number         0  stm32f4xx_hal_rtc_ex.o ABSOLUTE
    ..\Drivers\STM32F4xx_HAL_Driver\Src\stm32f4xx_hal_spi.c 0x00000000   Number         0  stm32f4xx_hal_spi.o ABSOLUTE
    ..\Drivers\STM32F4xx_HAL_Driver\Src\stm32f4xx_hal_tim.c 0x00000000   Number         0  stm32f4xx_hal_tim.o ABSOLUTE
    ..\Drivers\STM32F4xx_HAL_Driver\Src\stm32f4xx_hal_tim_ex.c 0x00000000   Number         0  stm32f4xx_hal_tim_ex.o ABSOLUTE
    ..\Drivers\STM32F4xx_HAL_Driver\Src\stm32f4xx_hal_uart.c 0x00000000   Number         0  stm32f4xx_hal_uart.o ABSOLUTE
    ..\Drivers\STM32F4xx_HAL_Driver\Src\stm32f4xx_ll_usb.c 0x00000000   Number         0  stm32f4xx_ll_usb.o ABSOLUTE
    ..\Middlewares\ST\STM32_USB_Host_Library\Class\CDC\Src\usbh_cdc.c 0x00000000   Number         0  usbh_cdc.o ABSOLUTE
    ..\Middlewares\ST\STM32_USB_Host_Library\Core\Src\usbh_core.c 0x00000000   Number         0  usbh_core.o ABSOLUTE
    ..\Middlewares\ST\STM32_USB_Host_Library\Core\Src\usbh_ctlreq.c 0x00000000   Number         0  usbh_ctlreq.o ABSOLUTE
    ..\Middlewares\ST\STM32_USB_Host_Library\Core\Src\usbh_ioreq.c 0x00000000   Number         0  usbh_ioreq.o ABSOLUTE
    ..\Middlewares\ST\STM32_USB_Host_Library\Core\Src\usbh_pipes.c 0x00000000   Number         0  usbh_pipes.o ABSOLUTE
    ..\Middlewares\Third_Party\FreeRTOS\Source\CMSIS_RTOS\cmsis_os.c 0x00000000   Number         0  cmsis_os.o ABSOLUTE
    ..\Middlewares\Third_Party\FreeRTOS\Source\portable\RVDS\ARM_CM4F\port.c 0x00000000   Number         0  port.o ABSOLUTE
    ..\USB_HOST\App\usb_host.c               0x00000000   Number         0  usb_host.o ABSOLUTE
    ..\USB_HOST\Target\usbh_conf.c           0x00000000   Number         0  usbh_conf.o ABSOLUTE
    ..\USB_HOST\Target\usbh_platform.c       0x00000000   Number         0  usbh_platform.o ABSOLUTE
    dc.s                                     0x00000000   Number         0  dc.o ABSOLUTE
    startup_stm32f407xx.s                    0x00000000   Number         0  startup_stm32f407xx.o ABSOLUTE
    RESET                                    0x08000000   Section      392  startup_stm32f407xx.o(RESET)
    !!!main                                  0x08000188   Section        8  __main.o(!!!main)
    !!!scatter                               0x08000190   Section       52  __scatter.o(!!!scatter)
    !!handler_copy                           0x080001c4   Section       26  __scatter_copy.o(!!handler_copy)
    !!handler_zi                             0x080001e0   Section       28  __scatter_zi.o(!!handler_zi)
    .ARM.Collect$$libinit$$00000000          0x080001fc   Section        2  libinit.o(.ARM.Collect$$libinit$$00000000)
    .ARM.Collect$$libinit$$00000001          0x080001fe   Section        4  libinit2.o(.ARM.Collect$$libinit$$00000001)
    .ARM.Collect$$libinit$$00000004          0x08000202   Section        0  libinit2.o(.ARM.Collect$$libinit$$00000004)
    .ARM.Collect$$libinit$$00000005          0x08000202   Section        8  libinit2.o(.ARM.Collect$$libinit$$00000005)
    .ARM.Collect$$libinit$$0000000A          0x0800020a   Section        0  libinit2.o(.ARM.Collect$$libinit$$0000000A)
    .ARM.Collect$$libinit$$0000000C          0x0800020a   Section        0  libinit2.o(.ARM.Collect$$libinit$$0000000C)
    .ARM.Collect$$libinit$$0000000E          0x0800020a   Section        0  libinit2.o(.ARM.Collect$$libinit$$0000000E)
    .ARM.Collect$$libinit$$00000011          0x0800020a   Section        0  libinit2.o(.ARM.Collect$$libinit$$00000011)
    .ARM.Collect$$libinit$$00000013          0x0800020a   Section        0  libinit2.o(.ARM.Collect$$libinit$$00000013)
    .ARM.Collect$$libinit$$00000015          0x0800020a   Section        0  libinit2.o(.ARM.Collect$$libinit$$00000015)
    .ARM.Collect$$libinit$$00000017          0x0800020a   Section        0  libinit2.o(.ARM.Collect$$libinit$$00000017)
    .ARM.Collect$$libinit$$00000019          0x0800020a   Section        0  libinit2.o(.ARM.Collect$$libinit$$00000019)
    .ARM.Collect$$libinit$$0000001B          0x0800020a   Section        0  libinit2.o(.ARM.Collect$$libinit$$0000001B)
    .ARM.Collect$$libinit$$0000001D          0x0800020a   Section        0  libinit2.o(.ARM.Collect$$libinit$$0000001D)
    .ARM.Collect$$libinit$$0000001F          0x0800020a   Section        0  libinit2.o(.ARM.Collect$$libinit$$0000001F)
    .ARM.Collect$$libinit$$00000021          0x0800020a   Section        0  libinit2.o(.ARM.Collect$$libinit$$00000021)
    .ARM.Collect$$libinit$$00000023          0x0800020a   Section        0  libinit2.o(.ARM.Collect$$libinit$$00000023)
    .ARM.Collect$$libinit$$00000025          0x0800020a   Section        0  libinit2.o(.ARM.Collect$$libinit$$00000025)
    .ARM.Collect$$libinit$$0000002C          0x0800020a   Section        0  libinit2.o(.ARM.Collect$$libinit$$0000002C)
    .ARM.Collect$$libinit$$0000002E          0x0800020a   Section        0  libinit2.o(.ARM.Collect$$libinit$$0000002E)
    .ARM.Collect$$libinit$$00000030          0x0800020a   Section        0  libinit2.o(.ARM.Collect$$libinit$$00000030)
    .ARM.Collect$$libinit$$00000032          0x0800020a   Section        0  libinit2.o(.ARM.Collect$$libinit$$00000032)
    .ARM.Collect$$libinit$$00000033          0x0800020a   Section        2  libinit2.o(.ARM.Collect$$libinit$$00000033)
    .ARM.Collect$$libshutdown$$00000000      0x0800020c   Section        2  libshutdown.o(.ARM.Collect$$libshutdown$$00000000)
    .ARM.Collect$$libshutdown$$00000002      0x0800020e   Section        0  libshutdown2.o(.ARM.Collect$$libshutdown$$00000002)
    .ARM.Collect$$libshutdown$$00000004      0x0800020e   Section        0  libshutdown2.o(.ARM.Collect$$libshutdown$$00000004)
    .ARM.Collect$$libshutdown$$00000007      0x0800020e   Section        0  libshutdown2.o(.ARM.Collect$$libshutdown$$00000007)
    .ARM.Collect$$libshutdown$$0000000A      0x0800020e   Section        0  libshutdown2.o(.ARM.Collect$$libshutdown$$0000000A)
    .ARM.Collect$$libshutdown$$0000000C      0x0800020e   Section        0  libshutdown2.o(.ARM.Collect$$libshutdown$$0000000C)
    .ARM.Collect$$libshutdown$$0000000F      0x0800020e   Section        0  libshutdown2.o(.ARM.Collect$$libshutdown$$0000000F)
    .ARM.Collect$$libshutdown$$00000010      0x0800020e   Section        2  libshutdown2.o(.ARM.Collect$$libshutdown$$00000010)
    .ARM.Collect$$rtentry$$00000000          0x08000210   Section        0  __rtentry.o(.ARM.Collect$$rtentry$$00000000)
    .ARM.Collect$$rtentry$$00000002          0x08000210   Section        0  __rtentry2.o(.ARM.Collect$$rtentry$$00000002)
    .ARM.Collect$$rtentry$$00000004          0x08000210   Section        6  __rtentry4.o(.ARM.Collect$$rtentry$$00000004)
    .ARM.Collect$$rtentry$$00000009          0x08000216   Section        0  __rtentry2.o(.ARM.Collect$$rtentry$$00000009)
    .ARM.Collect$$rtentry$$0000000A          0x08000216   Section        4  __rtentry2.o(.ARM.Collect$$rtentry$$0000000A)
    .ARM.Collect$$rtentry$$0000000C          0x0800021a   Section        0  __rtentry2.o(.ARM.Collect$$rtentry$$0000000C)
    .ARM.Collect$$rtentry$$0000000D          0x0800021a   Section        8  __rtentry2.o(.ARM.Collect$$rtentry$$0000000D)
    .ARM.Collect$$rtexit$$00000000           0x08000222   Section        2  rtexit.o(.ARM.Collect$$rtexit$$00000000)
    .ARM.Collect$$rtexit$$00000002           0x08000224   Section        0  rtexit2.o(.ARM.Collect$$rtexit$$00000002)
    .ARM.Collect$$rtexit$$00000003           0x08000224   Section        4  rtexit2.o(.ARM.Collect$$rtexit$$00000003)
    .ARM.Collect$$rtexit$$00000004           0x08000228   Section        6  rtexit2.o(.ARM.Collect$$rtexit$$00000004)
    .emb_text                                0x08000230   Section      190  port.o(.emb_text)
    $v0                                      0x08000230   Number         0  port.o(.emb_text)
    .emb_text                                0x080002f0   Section        0  maybetermalloc1.o(.emb_text)
    .text                                    0x080002f0   Section       64  startup_stm32f407xx.o(.text)
    $v0                                      0x080002f0   Number         0  startup_stm32f407xx.o(.text)
    .text                                    0x08000330   Section        0  h1_alloc.o(.text)
    .text                                    0x0800038e   Section        0  h1_free.o(.text)
    .text                                    0x080003dc   Section      238  lludivv7m.o(.text)
    .text                                    0x080004ca   Section      138  rt_memcpy_v6.o(.text)
    .text                                    0x08000554   Section      100  rt_memcpy_w.o(.text)
    .text                                    0x080005b8   Section       78  rt_memclr_w.o(.text)
    .text                                    0x08000606   Section        0  heapauxi.o(.text)
    .text                                    0x0800060c   Section        8  rt_heap_descriptor_intlibspace.o(.text)
    .text                                    0x08000614   Section        0  hguard.o(.text)
    .text                                    0x08000618   Section        0  init_alloc.o(.text)
    .text                                    0x080006a2   Section        0  h1_init.o(.text)
    .text                                    0x080006b0   Section        8  libspace.o(.text)
    .text                                    0x080006b8   Section        0  h1_extend.o(.text)
    .text                                    0x080006ec   Section        0  defsig_rtmem_outer.o(.text)
    .text                                    0x080006fa   Section        2  use_no_semi.o(.text)
    .text                                    0x080006fc   Section       74  sys_stackheap_outer.o(.text)
    .text                                    0x080006fc   Section        0  indicate_semi.o(.text)
    .text                                    0x08000746   Section        0  exit.o(.text)
    .text                                    0x08000758   Section        0  defsig_exit.o(.text)
    .text                                    0x08000764   Section        0  defsig_rtmem_inner.o(.text)
    .text                                    0x080007b4   Section        0  sys_exit.o(.text)
    .text                                    0x080007c0   Section        0  defsig_general.o(.text)
    .text                                    0x080007f2   Section        0  sys_wrch.o(.text)
    i.ADC_Init                               0x08000800   Section        0  stm32f4xx_hal_adc.o(i.ADC_Init)
    ADC_Init                                 0x08000801   Thumb Code   284  stm32f4xx_hal_adc.o(i.ADC_Init)
    i.BusFault_Handler                       0x08000928   Section        0  stm32f4xx_it.o(i.BusFault_Handler)
    i.CDC_ProcessReception                   0x0800092a   Section        0  usbh_cdc.o(i.CDC_ProcessReception)
    CDC_ProcessReception                     0x0800092b   Thumb Code   124  usbh_cdc.o(i.CDC_ProcessReception)
    i.CDC_ProcessTransmission                0x080009a8   Section        0  usbh_cdc.o(i.CDC_ProcessTransmission)
    CDC_ProcessTransmission                  0x080009a9   Thumb Code   136  usbh_cdc.o(i.CDC_ProcessTransmission)
    i.DeInitStateMachine                     0x08000a30   Section        0  usbh_core.o(i.DeInitStateMachine)
    DeInitStateMachine                       0x08000a31   Thumb Code    80  usbh_core.o(i.DeInitStateMachine)
    i.DebugMon_Handler                       0x08000a80   Section        0  stm32f4xx_it.o(i.DebugMon_Handler)
    i.Error_Handler                          0x08000a82   Section        0  main.o(i.Error_Handler)
    i.GetLineCoding                          0x08000a86   Section        0  usbh_cdc.o(i.GetLineCoding)
    GetLineCoding                            0x08000a87   Thumb Code    22  usbh_cdc.o(i.GetLineCoding)
    i.HAL_ADC_ConfigChannel                  0x08000a9c   Section        0  stm32f4xx_hal_adc.o(i.HAL_ADC_ConfigChannel)
    i.HAL_ADC_Init                           0x08000be8   Section        0  stm32f4xx_hal_adc.o(i.HAL_ADC_Init)
    i.HAL_ADC_MspInit                        0x08000c3c   Section        0  adc.o(i.HAL_ADC_MspInit)
    i.HAL_Delay                              0x08000cc0   Section        0  stm32f4xx_hal.o(i.HAL_Delay)
    i.HAL_GPIO_Init                          0x08000ce4   Section        0  stm32f4xx_hal_gpio.o(i.HAL_GPIO_Init)
    i.HAL_GPIO_WritePin                      0x08000ed4   Section        0  stm32f4xx_hal_gpio.o(i.HAL_GPIO_WritePin)
    i.HAL_GetTick                            0x08000ee0   Section        0  stm32f4xx_hal.o(i.HAL_GetTick)
    i.HAL_HCD_Connect_Callback               0x08000eec   Section        0  usbh_conf.o(i.HAL_HCD_Connect_Callback)
    i.HAL_HCD_Disconnect_Callback            0x08000ef4   Section        0  usbh_conf.o(i.HAL_HCD_Disconnect_Callback)
    i.HAL_HCD_GetCurrentFrame                0x08000efc   Section        0  stm32f4xx_hal_hcd.o(i.HAL_HCD_GetCurrentFrame)
    i.HAL_HCD_GetCurrentSpeed                0x08000f02   Section        0  stm32f4xx_hal_hcd.o(i.HAL_HCD_GetCurrentSpeed)
    i.HAL_HCD_HC_GetURBState                 0x08000f08   Section        0  stm32f4xx_hal_hcd.o(i.HAL_HCD_HC_GetURBState)
    i.HAL_HCD_HC_GetXferCount                0x08000f1a   Section        0  stm32f4xx_hal_hcd.o(i.HAL_HCD_HC_GetXferCount)
    i.HAL_HCD_HC_Halt                        0x08000f2a   Section        0  stm32f4xx_hal_hcd.o(i.HAL_HCD_HC_Halt)
    i.HAL_HCD_HC_Init                        0x08000f4e   Section        0  stm32f4xx_hal_hcd.o(i.HAL_HCD_HC_Init)
    i.HAL_HCD_HC_NotifyURBChange_Callback    0x08000fc4   Section        0  usbh_conf.o(i.HAL_HCD_HC_NotifyURBChange_Callback)
    i.HAL_HCD_HC_SubmitRequest               0x08000fcc   Section        0  stm32f4xx_hal_hcd.o(i.HAL_HCD_HC_SubmitRequest)
    i.HAL_HCD_IRQHandler                     0x08001066   Section        0  stm32f4xx_hal_hcd.o(i.HAL_HCD_IRQHandler)
    i.HAL_HCD_Init                           0x080011a0   Section        0  stm32f4xx_hal_hcd.o(i.HAL_HCD_Init)
    i.HAL_HCD_MspInit                        0x08001214   Section        0  usbh_conf.o(i.HAL_HCD_MspInit)
    i.HAL_HCD_PortDisabled_Callback          0x080012a8   Section        0  usbh_conf.o(i.HAL_HCD_PortDisabled_Callback)
    i.HAL_HCD_PortEnabled_Callback           0x080012b0   Section        0  usbh_conf.o(i.HAL_HCD_PortEnabled_Callback)
    i.HAL_HCD_ResetPort                      0x080012b8   Section        0  stm32f4xx_hal_hcd.o(i.HAL_HCD_ResetPort)
    i.HAL_HCD_SOF_Callback                   0x080012be   Section        0  usbh_conf.o(i.HAL_HCD_SOF_Callback)
    i.HAL_HCD_Start                          0x080012c6   Section        0  stm32f4xx_hal_hcd.o(i.HAL_HCD_Start)
    i.HAL_HCD_Stop                           0x080012f2   Section        0  stm32f4xx_hal_hcd.o(i.HAL_HCD_Stop)
    i.HAL_I2C_Init                           0x08001318   Section        0  stm32f4xx_hal_i2c.o(i.HAL_I2C_Init)
    i.HAL_I2C_MspInit                        0x080014a0   Section        0  i2c.o(i.HAL_I2C_MspInit)
    i.HAL_I2SEx_FullDuplex_IRQHandler        0x0800150c   Section        0  stm32f4xx_hal_i2s_ex.o(i.HAL_I2SEx_FullDuplex_IRQHandler)
    i.HAL_I2SEx_TxRxCpltCallback             0x08001700   Section        0  stm32f4xx_hal_i2s_ex.o(i.HAL_I2SEx_TxRxCpltCallback)
    i.HAL_I2S_ErrorCallback                  0x08001702   Section        0  stm32f4xx_hal_i2s.o(i.HAL_I2S_ErrorCallback)
    i.HAL_I2S_Init                           0x08001704   Section        0  stm32f4xx_hal_i2s.o(i.HAL_I2S_Init)
    i.HAL_I2S_MspInit                        0x08001878   Section        0  i2s.o(i.HAL_I2S_MspInit)
    i.HAL_I2S_RxCpltCallback                 0x08001928   Section        0  stm32f4xx_hal_i2s.o(i.HAL_I2S_RxCpltCallback)
    i.HAL_I2S_TxCpltCallback                 0x0800192a   Section        0  stm32f4xx_hal_i2s.o(i.HAL_I2S_TxCpltCallback)
    i.HAL_IncTick                            0x0800192c   Section        0  stm32f4xx_hal.o(i.HAL_IncTick)
    i.HAL_Init                               0x0800193c   Section        0  stm32f4xx_hal.o(i.HAL_Init)
    i.HAL_InitTick                           0x08001970   Section        0  stm32f4xx_hal_timebase_tim.o(i.HAL_InitTick)
    i.HAL_MspInit                            0x08001a08   Section        0  stm32f4xx_hal_msp.o(i.HAL_MspInit)
    i.HAL_NVIC_EnableIRQ                     0x08001a40   Section        0  stm32f4xx_hal_cortex.o(i.HAL_NVIC_EnableIRQ)
    i.HAL_NVIC_SetPriority                   0x08001a5c   Section        0  stm32f4xx_hal_cortex.o(i.HAL_NVIC_SetPriority)
    i.HAL_NVIC_SetPriorityGrouping           0x08001a9c   Section        0  stm32f4xx_hal_cortex.o(i.HAL_NVIC_SetPriorityGrouping)
    i.HAL_RCCEx_GetPeriphCLKFreq             0x08001ac0   Section        0  stm32f4xx_hal_rcc_ex.o(i.HAL_RCCEx_GetPeriphCLKFreq)
    i.HAL_RCCEx_PeriphCLKConfig              0x08001b1c   Section        0  stm32f4xx_hal_rcc_ex.o(i.HAL_RCCEx_PeriphCLKConfig)
    i.HAL_RCC_ClockConfig                    0x08001c58   Section        0  stm32f4xx_hal_rcc.o(i.HAL_RCC_ClockConfig)
    i.HAL_RCC_GetClockConfig                 0x08001d8c   Section        0  stm32f4xx_hal_rcc.o(i.HAL_RCC_GetClockConfig)
    i.HAL_RCC_GetPCLK1Freq                   0x08001dcc   Section        0  stm32f4xx_hal_rcc.o(i.HAL_RCC_GetPCLK1Freq)
    i.HAL_RCC_GetPCLK2Freq                   0x08001dec   Section        0  stm32f4xx_hal_rcc.o(i.HAL_RCC_GetPCLK2Freq)
    i.HAL_RCC_GetSysClockFreq                0x08001e0c   Section        0  stm32f4xx_hal_rcc.o(i.HAL_RCC_GetSysClockFreq)
    i.HAL_RCC_OscConfig                      0x08001e6c   Section        0  stm32f4xx_hal_rcc.o(i.HAL_RCC_OscConfig)
    i.HAL_RTC_Init                           0x080021d8   Section        0  stm32f4xx_hal_rtc.o(i.HAL_RTC_Init)
    i.HAL_RTC_MspInit                        0x08002264   Section        0  rtc.o(i.HAL_RTC_MspInit)
    i.HAL_RTC_WaitForSynchro                 0x0800229c   Section        0  stm32f4xx_hal_rtc.o(i.HAL_RTC_WaitForSynchro)
    i.HAL_SPI_Init                           0x080022d2   Section        0  stm32f4xx_hal_spi.o(i.HAL_SPI_Init)
    i.HAL_SPI_MspInit                        0x08002390   Section        0  spi.o(i.HAL_SPI_MspInit)
    i.HAL_TIMEx_BreakCallback                0x08002468   Section        0  stm32f4xx_hal_tim_ex.o(i.HAL_TIMEx_BreakCallback)
    i.HAL_TIMEx_CommutCallback               0x0800246a   Section        0  stm32f4xx_hal_tim_ex.o(i.HAL_TIMEx_CommutCallback)
    i.HAL_TIMEx_ConfigBreakDeadTime          0x0800246c   Section        0  stm32f4xx_hal_tim_ex.o(i.HAL_TIMEx_ConfigBreakDeadTime)
    i.HAL_TIMEx_MasterConfigSynchronization  0x080024c0   Section        0  stm32f4xx_hal_tim_ex.o(i.HAL_TIMEx_MasterConfigSynchronization)
    i.HAL_TIM_Base_Init                      0x08002550   Section        0  stm32f4xx_hal_tim.o(i.HAL_TIM_Base_Init)
    i.HAL_TIM_Base_MspInit                   0x080025aa   Section        0  stm32f4xx_hal_tim.o(i.HAL_TIM_Base_MspInit)
    i.HAL_TIM_Base_Start_IT                  0x080025ac   Section        0  stm32f4xx_hal_tim.o(i.HAL_TIM_Base_Start_IT)
    i.HAL_TIM_IC_CaptureCallback             0x0800262c   Section        0  stm32f4xx_hal_tim.o(i.HAL_TIM_IC_CaptureCallback)
    i.HAL_TIM_IRQHandler                     0x0800262e   Section        0  stm32f4xx_hal_tim.o(i.HAL_TIM_IRQHandler)
    i.HAL_TIM_MspPostInit                    0x08002794   Section        0  tim.o(i.HAL_TIM_MspPostInit)
    i.HAL_TIM_OC_ConfigChannel               0x080027e8   Section        0  stm32f4xx_hal_tim.o(i.HAL_TIM_OC_ConfigChannel)
    i.HAL_TIM_OC_DelayElapsedCallback        0x0800283a   Section        0  stm32f4xx_hal_tim.o(i.HAL_TIM_OC_DelayElapsedCallback)
    i.HAL_TIM_OC_Init                        0x0800283c   Section        0  stm32f4xx_hal_tim.o(i.HAL_TIM_OC_Init)
    i.HAL_TIM_OC_MspInit                     0x08002896   Section        0  stm32f4xx_hal_tim.o(i.HAL_TIM_OC_MspInit)
    i.HAL_TIM_PWM_ConfigChannel              0x08002898   Section        0  stm32f4xx_hal_tim.o(i.HAL_TIM_PWM_ConfigChannel)
    i.HAL_TIM_PWM_Init                       0x08002964   Section        0  stm32f4xx_hal_tim.o(i.HAL_TIM_PWM_Init)
    i.HAL_TIM_PWM_MspInit                    0x080029c0   Section        0  tim.o(i.HAL_TIM_PWM_MspInit)
    i.HAL_TIM_PWM_PulseFinishedCallback      0x080029e8   Section        0  stm32f4xx_hal_tim.o(i.HAL_TIM_PWM_PulseFinishedCallback)
    i.HAL_TIM_PeriodElapsedCallback          0x080029ea   Section        0  main.o(i.HAL_TIM_PeriodElapsedCallback)
    i.HAL_TIM_TriggerCallback                0x080029f8   Section        0  stm32f4xx_hal_tim.o(i.HAL_TIM_TriggerCallback)
    i.HAL_UART_Init                          0x080029fa   Section        0  stm32f4xx_hal_uart.o(i.HAL_UART_Init)
    i.HAL_UART_MspInit                       0x08002a5c   Section        0  usart.o(i.HAL_UART_MspInit)
    i.HCD_HC_IN_IRQHandler                   0x08002b4c   Section        0  stm32f4xx_hal_hcd.o(i.HCD_HC_IN_IRQHandler)
    HCD_HC_IN_IRQHandler                     0x08002b4d   Thumb Code   490  stm32f4xx_hal_hcd.o(i.HCD_HC_IN_IRQHandler)
    i.HCD_HC_OUT_IRQHandler                  0x08002d36   Section        0  stm32f4xx_hal_hcd.o(i.HCD_HC_OUT_IRQHandler)
    HCD_HC_OUT_IRQHandler                    0x08002d37   Thumb Code   540  stm32f4xx_hal_hcd.o(i.HCD_HC_OUT_IRQHandler)
    i.HCD_Port_IRQHandler                    0x08002f52   Section        0  stm32f4xx_hal_hcd.o(i.HCD_Port_IRQHandler)
    HCD_Port_IRQHandler                      0x08002f53   Thumb Code   148  stm32f4xx_hal_hcd.o(i.HCD_Port_IRQHandler)
    i.HCD_RXQLVL_IRQHandler                  0x08002fe6   Section        0  stm32f4xx_hal_hcd.o(i.HCD_RXQLVL_IRQHandler)
    HCD_RXQLVL_IRQHandler                    0x08002fe7   Thumb Code   140  stm32f4xx_hal_hcd.o(i.HCD_RXQLVL_IRQHandler)
    i.HardFault_Handler                      0x08003072   Section        0  stm32f4xx_it.o(i.HardFault_Handler)
    i.I2SEx_RxISR_I2SExt                     0x08003074   Section        0  stm32f4xx_hal_i2s_ex.o(i.I2SEx_RxISR_I2SExt)
    I2SEx_RxISR_I2SExt                       0x08003075   Thumb Code    88  stm32f4xx_hal_i2s_ex.o(i.I2SEx_RxISR_I2SExt)
    i.I2SEx_TxISR_I2SExt                     0x080030d4   Section        0  stm32f4xx_hal_i2s_ex.o(i.I2SEx_TxISR_I2SExt)
    I2SEx_TxISR_I2SExt                       0x080030d5   Thumb Code    88  stm32f4xx_hal_i2s_ex.o(i.I2SEx_TxISR_I2SExt)
    i.I2S_IRQHandler                         0x08003134   Section        0  stm32f4xx_hal_i2s.o(i.I2S_IRQHandler)
    I2S_IRQHandler                           0x08003135   Thumb Code   242  stm32f4xx_hal_i2s.o(i.I2S_IRQHandler)
    i.MX_ADC1_Init                           0x08003228   Section        0  adc.o(i.MX_ADC1_Init)
    i.MX_DriverVbusFS                        0x0800328c   Section        0  usbh_platform.o(i.MX_DriverVbusFS)
    i.MX_FREERTOS_Init                       0x080032a0   Section        0  freertos.o(i.MX_FREERTOS_Init)
    i.MX_GPIO_Init                           0x08003448   Section        0  gpio.o(i.MX_GPIO_Init)
    i.MX_I2C1_Init                           0x08003610   Section        0  i2c.o(i.MX_I2C1_Init)
    i.MX_I2S3_Init                           0x08003650   Section        0  i2s.o(i.MX_I2S3_Init)
    i.MX_RTC_Init                            0x0800368c   Section        0  rtc.o(i.MX_RTC_Init)
    i.MX_SPI1_Init                           0x080036c4   Section        0  spi.o(i.MX_SPI1_Init)
    i.MX_SPI2_Init                           0x0800370c   Section        0  spi.o(i.MX_SPI2_Init)
    i.MX_TIM1_Init                           0x08003754   Section        0  tim.o(i.MX_TIM1_Init)
    i.MX_USART2_UART_Init                    0x08003834   Section        0  usart.o(i.MX_USART2_UART_Init)
    i.MX_USART3_UART_Init                    0x0800386c   Section        0  usart.o(i.MX_USART3_UART_Init)
    i.MX_USB_HOST_Init                       0x080038a4   Section        0  usb_host.o(i.MX_USB_HOST_Init)
    i.MemManage_Handler                      0x080038e4   Section        0  stm32f4xx_it.o(i.MemManage_Handler)
    i.NMI_Handler                            0x080038e6   Section        0  stm32f4xx_it.o(i.NMI_Handler)
    i.OTG_FS_IRQHandler                      0x080038e8   Section        0  stm32f4xx_it.o(i.OTG_FS_IRQHandler)
    i.RTC_EnterInitMode                      0x080038f4   Section        0  stm32f4xx_hal_rtc.o(i.RTC_EnterInitMode)
    i.RTC_ExitInitMode                       0x0800393c   Section        0  stm32f4xx_hal_rtc.o(i.RTC_ExitInitMode)
    i.StartDefaultTask                       0x08003966   Section        0  freertos.o(i.StartDefaultTask)
    i.Start_Controls_Task                    0x08003972   Section        0  freertos.o(i.Start_Controls_Task)
    i.Start_Debug_Task                       0x0800397a   Section        0  freertos.o(i.Start_Debug_Task)
    i.Start_Display_Task                     0x08003982   Section        0  freertos.o(i.Start_Display_Task)
    i.Start_Lights_Task                      0x0800398a   Section        0  freertos.o(i.Start_Lights_Task)
    i.Start_Location_Task                    0x08003992   Section        0  freertos.o(i.Start_Location_Task)
    i.Start_Logging_Task                     0x0800399a   Section        0  freertos.o(i.Start_Logging_Task)
    i.Start_Orientation_Task                 0x080039a2   Section        0  freertos.o(i.Start_Orientation_Task)
    i.Start_PWMDrive_Task                    0x080039aa   Section        0  freertos.o(i.Start_PWMDrive_Task)
    i.Start_TempHumidity_Task                0x080039b2   Section        0  freertos.o(i.Start_TempHumidity_Task)
    i.SysTick_Handler                        0x080039bc   Section        0  port.o(i.SysTick_Handler)
    i.SystemClock_Config                     0x080039e8   Section        0  main.o(i.SystemClock_Config)
    i.SystemInit                             0x08003a84   Section        0  system_stm32f4xx.o(i.SystemInit)
    i.TIM2_IRQHandler                        0x08003a94   Section        0  stm32f4xx_it.o(i.TIM2_IRQHandler)
    i.TIM_Base_SetConfig                     0x08003aa0   Section        0  stm32f4xx_hal_tim.o(i.TIM_Base_SetConfig)
    i.TIM_OC1_SetConfig                      0x08003b68   Section        0  stm32f4xx_hal_tim.o(i.TIM_OC1_SetConfig)
    TIM_OC1_SetConfig                        0x08003b69   Thumb Code    88  stm32f4xx_hal_tim.o(i.TIM_OC1_SetConfig)
    i.TIM_OC2_SetConfig                      0x08003bc8   Section        0  stm32f4xx_hal_tim.o(i.TIM_OC2_SetConfig)
    i.TIM_OC3_SetConfig                      0x08003c34   Section        0  stm32f4xx_hal_tim.o(i.TIM_OC3_SetConfig)
    TIM_OC3_SetConfig                        0x08003c35   Thumb Code    96  stm32f4xx_hal_tim.o(i.TIM_OC3_SetConfig)
    i.TIM_OC4_SetConfig                      0x08003c9c   Section        0  stm32f4xx_hal_tim.o(i.TIM_OC4_SetConfig)
    TIM_OC4_SetConfig                        0x08003c9d   Thumb Code    70  stm32f4xx_hal_tim.o(i.TIM_OC4_SetConfig)
    i.UART_SetConfig                         0x08003cec   Section        0  stm32f4xx_hal_uart.o(i.UART_SetConfig)
    UART_SetConfig                           0x08003ced   Thumb Code   258  stm32f4xx_hal_uart.o(i.UART_SetConfig)
    i.USBH_AllocPipe                         0x08003df8   Section        0  usbh_pipes.o(i.USBH_AllocPipe)
    i.USBH_BulkReceiveData                   0x08003e30   Section        0  usbh_ioreq.o(i.USBH_BulkReceiveData)
    i.USBH_BulkSendData                      0x08003e50   Section        0  usbh_ioreq.o(i.USBH_BulkSendData)
    i.USBH_CDC_ClassRequest                  0x08003e78   Section        0  usbh_cdc.o(i.USBH_CDC_ClassRequest)
    USBH_CDC_ClassRequest                    0x08003e79   Thumb Code    36  usbh_cdc.o(i.USBH_CDC_ClassRequest)
    i.USBH_CDC_InterfaceDeInit               0x08003e9c   Section        0  usbh_cdc.o(i.USBH_CDC_InterfaceDeInit)
    USBH_CDC_InterfaceDeInit                 0x08003e9d   Thumb Code    94  usbh_cdc.o(i.USBH_CDC_InterfaceDeInit)
    i.USBH_CDC_InterfaceInit                 0x08003efa   Section        0  usbh_cdc.o(i.USBH_CDC_InterfaceInit)
    USBH_CDC_InterfaceInit                   0x08003efb   Thumb Code   324  usbh_cdc.o(i.USBH_CDC_InterfaceInit)
    i.USBH_CDC_LineCodingChanged             0x0800403e   Section        0  usbh_cdc.o(i.USBH_CDC_LineCodingChanged)
    i.USBH_CDC_Process                       0x08004040   Section        0  usbh_cdc.o(i.USBH_CDC_Process)
    USBH_CDC_Process                         0x08004041   Thumb Code   184  usbh_cdc.o(i.USBH_CDC_Process)
    i.USBH_CDC_ReceiveCallback               0x080040f8   Section        0  usbh_cdc.o(i.USBH_CDC_ReceiveCallback)
    i.USBH_CDC_SOFProcess                    0x080040fa   Section        0  usbh_cdc.o(i.USBH_CDC_SOFProcess)
    USBH_CDC_SOFProcess                      0x080040fb   Thumb Code     4  usbh_cdc.o(i.USBH_CDC_SOFProcess)
    i.USBH_CDC_TransmitCallback              0x080040fe   Section        0  usbh_cdc.o(i.USBH_CDC_TransmitCallback)
    i.USBH_ClosePipe                         0x08004100   Section        0  usbh_pipes.o(i.USBH_ClosePipe)
    i.USBH_ClrFeature                        0x0800410a   Section        0  usbh_ctlreq.o(i.USBH_ClrFeature)
    i.USBH_CtlReceiveData                    0x08004128   Section        0  usbh_ioreq.o(i.USBH_CtlReceiveData)
    i.USBH_CtlReq                            0x08004146   Section        0  usbh_ctlreq.o(i.USBH_CtlReq)
    i.USBH_CtlSendData                       0x0800419e   Section        0  usbh_ioreq.o(i.USBH_CtlSendData)
    i.USBH_CtlSendSetup                      0x080041c6   Section        0  usbh_ioreq.o(i.USBH_CtlSendSetup)
    i.USBH_Delay                             0x080041e4   Section        0  usbh_conf.o(i.USBH_Delay)
    i.USBH_FindInterface                     0x080041e8   Section        0  usbh_core.o(i.USBH_FindInterface)
    i.USBH_FreePipe                          0x0800422c   Section        0  usbh_pipes.o(i.USBH_FreePipe)
    i.USBH_GetDescriptor                     0x08004244   Section        0  usbh_ctlreq.o(i.USBH_GetDescriptor)
    i.USBH_GetNextDesc                       0x08004278   Section        0  usbh_ctlreq.o(i.USBH_GetNextDesc)
    i.USBH_Get_CfgDesc                       0x08004286   Section        0  usbh_ctlreq.o(i.USBH_Get_CfgDesc)
    i.USBH_Get_DevDesc                       0x080042b2   Section        0  usbh_ctlreq.o(i.USBH_Get_DevDesc)
    i.USBH_Get_StringDesc                    0x0800435a   Section        0  usbh_ctlreq.o(i.USBH_Get_StringDesc)
    i.USBH_Get_USB_Status                    0x080043a2   Section        0  usbh_conf.o(i.USBH_Get_USB_Status)
    i.USBH_HandleControl                     0x080043bc   Section        0  usbh_ctlreq.o(i.USBH_HandleControl)
    USBH_HandleControl                       0x080043bd   Thumb Code   422  usbh_ctlreq.o(i.USBH_HandleControl)
    i.USBH_HandleEnum                        0x08004564   Section        0  usbh_core.o(i.USBH_HandleEnum)
    USBH_HandleEnum                          0x08004565   Thumb Code   400  usbh_core.o(i.USBH_HandleEnum)
    i.USBH_Init                              0x080046f4   Section        0  usbh_core.o(i.USBH_Init)
    i.USBH_LL_ClosePipe                      0x08004768   Section        0  usbh_conf.o(i.USBH_LL_ClosePipe)
    i.USBH_LL_Connect                        0x0800477a   Section        0  usbh_core.o(i.USBH_LL_Connect)
    i.USBH_LL_Disconnect                     0x0800479c   Section        0  usbh_core.o(i.USBH_LL_Disconnect)
    i.USBH_LL_DriverVBUS                     0x080047da   Section        0  usbh_conf.o(i.USBH_LL_DriverVBUS)
    i.USBH_LL_GetLastXferSize                0x080047f4   Section        0  usbh_conf.o(i.USBH_LL_GetLastXferSize)
    i.USBH_LL_GetSpeed                       0x080047fc   Section        0  usbh_conf.o(i.USBH_LL_GetSpeed)
    i.USBH_LL_GetURBState                    0x0800481e   Section        0  usbh_conf.o(i.USBH_LL_GetURBState)
    i.USBH_LL_IncTimer                       0x08004826   Section        0  usbh_core.o(i.USBH_LL_IncTimer)
    i.USBH_LL_Init                           0x08004844   Section        0  usbh_conf.o(i.USBH_LL_Init)
    i.USBH_LL_NotifyURBChange                0x08004894   Section        0  usbh_core.o(i.USBH_LL_NotifyURBChange)
    i.USBH_LL_OpenPipe                       0x080048aa   Section        0  usbh_conf.o(i.USBH_LL_OpenPipe)
    i.USBH_LL_PortDisabled                   0x080048c6   Section        0  usbh_core.o(i.USBH_LL_PortDisabled)
    i.USBH_LL_PortEnabled                    0x080048ce   Section        0  usbh_core.o(i.USBH_LL_PortEnabled)
    i.USBH_LL_ResetPort                      0x080048e2   Section        0  usbh_conf.o(i.USBH_LL_ResetPort)
    i.USBH_LL_SetTimer                       0x080048f4   Section        0  usbh_core.o(i.USBH_LL_SetTimer)
    i.USBH_LL_SetToggle                      0x080048fa   Section        0  usbh_conf.o(i.USBH_LL_SetToggle)
    i.USBH_LL_Start                          0x0800491e   Section        0  usbh_conf.o(i.USBH_LL_Start)
    i.USBH_LL_Stop                           0x08004930   Section        0  usbh_conf.o(i.USBH_LL_Stop)
    i.USBH_LL_SubmitURB                      0x08004942   Section        0  usbh_conf.o(i.USBH_LL_SubmitURB)
    i.USBH_OpenPipe                          0x08004964   Section        0  usbh_pipes.o(i.USBH_OpenPipe)
    i.USBH_ParseCfgDesc                      0x08004978   Section        0  usbh_ctlreq.o(i.USBH_ParseCfgDesc)
    USBH_ParseCfgDesc                        0x08004979   Thumb Code   332  usbh_ctlreq.o(i.USBH_ParseCfgDesc)
    i.USBH_ParseEPDesc                       0x08004ac4   Section        0  usbh_ctlreq.o(i.USBH_ParseEPDesc)
    USBH_ParseEPDesc                         0x08004ac5   Thumb Code   110  usbh_ctlreq.o(i.USBH_ParseEPDesc)
    i.USBH_Process                           0x08004b32   Section        0  usbh_core.o(i.USBH_Process)
    i.USBH_Process_OS                        0x08004da0   Section        0  usbh_core.o(i.USBH_Process_OS)
    USBH_Process_OS                          0x08004da1   Thumb Code    34  usbh_core.o(i.USBH_Process_OS)
    i.USBH_RegisterClass                     0x08004dc2   Section        0  usbh_core.o(i.USBH_RegisterClass)
    i.USBH_SelectInterface                   0x08004dde   Section        0  usbh_core.o(i.USBH_SelectInterface)
    i.USBH_SetAddress                        0x08004df4   Section        0  usbh_ctlreq.o(i.USBH_SetAddress)
    i.USBH_SetCfg                            0x08004e10   Section        0  usbh_ctlreq.o(i.USBH_SetCfg)
    i.USBH_SetFeature                        0x08004e2c   Section        0  usbh_ctlreq.o(i.USBH_SetFeature)
    i.USBH_Start                             0x08004e48   Section        0  usbh_core.o(i.USBH_Start)
    i.USBH_UserProcess                       0x08004e5c   Section        0  usb_host.o(i.USBH_UserProcess)
    USBH_UserProcess                         0x08004e5d   Thumb Code    28  usb_host.o(i.USBH_UserProcess)
    i.USB_CoreInit                           0x08004e7c   Section        0  stm32f4xx_ll_usb.o(i.USB_CoreInit)
    i.USB_CoreReset                          0x08004ef0   Section        0  stm32f4xx_ll_usb.o(i.USB_CoreReset)
    USB_CoreReset                            0x08004ef1   Thumb Code    58  stm32f4xx_ll_usb.o(i.USB_CoreReset)
    i.USB_DisableGlobalInt                   0x08004f30   Section        0  stm32f4xx_ll_usb.o(i.USB_DisableGlobalInt)
    i.USB_DoPing                             0x08004f3c   Section        0  stm32f4xx_ll_usb.o(i.USB_DoPing)
    i.USB_DriveVbus                          0x08004f60   Section        0  stm32f4xx_ll_usb.o(i.USB_DriveVbus)
    i.USB_EnableGlobalInt                    0x08004f8c   Section        0  stm32f4xx_ll_usb.o(i.USB_EnableGlobalInt)
    i.USB_FlushRxFifo                        0x08004f98   Section        0  stm32f4xx_ll_usb.o(i.USB_FlushRxFifo)
    i.USB_FlushTxFifo                        0x08004fd4   Section        0  stm32f4xx_ll_usb.o(i.USB_FlushTxFifo)
    i.USB_GetCurrentFrame                    0x08005014   Section        0  stm32f4xx_ll_usb.o(i.USB_GetCurrentFrame)
    i.USB_GetHostSpeed                       0x0800501c   Section        0  stm32f4xx_ll_usb.o(i.USB_GetHostSpeed)
    i.USB_GetMode                            0x0800502a   Section        0  stm32f4xx_ll_usb.o(i.USB_GetMode)
    i.USB_HC_Halt                            0x08005032   Section        0  stm32f4xx_ll_usb.o(i.USB_HC_Halt)
    i.USB_HC_Init                            0x080050f8   Section        0  stm32f4xx_ll_usb.o(i.USB_HC_Init)
    i.USB_HC_ReadInterrupt                   0x08005202   Section        0  stm32f4xx_ll_usb.o(i.USB_HC_ReadInterrupt)
    i.USB_HC_StartXfer                       0x0800520a   Section        0  stm32f4xx_ll_usb.o(i.USB_HC_StartXfer)
    i.USB_HostInit                           0x0800534c   Section        0  stm32f4xx_ll_usb.o(i.USB_HostInit)
    i.USB_InitFSLSPClkSel                    0x0800541c   Section        0  stm32f4xx_ll_usb.o(i.USB_InitFSLSPClkSel)
    i.USB_ReadInterrupts                     0x08005452   Section        0  stm32f4xx_ll_usb.o(i.USB_ReadInterrupts)
    i.USB_ReadPacket                         0x0800545a   Section        0  stm32f4xx_ll_usb.o(i.USB_ReadPacket)
    i.USB_ResetPort                          0x08005498   Section        0  stm32f4xx_ll_usb.o(i.USB_ResetPort)
    i.USB_SetCurrentMode                     0x080054ca   Section        0  stm32f4xx_ll_usb.o(i.USB_SetCurrentMode)
    i.USB_StopHost                           0x08005526   Section        0  stm32f4xx_ll_usb.o(i.USB_StopHost)
    i.USB_WritePacket                        0x080055b0   Section        0  stm32f4xx_ll_usb.o(i.USB_WritePacket)
    i.UsageFault_Handler                     0x080055d8   Section        0  stm32f4xx_it.o(i.UsageFault_Handler)
    i.__NVIC_SetPriority                     0x080055da   Section        0  stm32f4xx_hal_cortex.o(i.__NVIC_SetPriority)
    __NVIC_SetPriority                       0x080055db   Thumb Code    32  stm32f4xx_hal_cortex.o(i.__NVIC_SetPriority)
    i.inHandlerMode                          0x080055fa   Section        0  cmsis_os.o(i.inHandlerMode)
    inHandlerMode                            0x080055fb   Thumb Code    12  cmsis_os.o(i.inHandlerMode)
    i.main                                   0x08005608   Section        0  main.o(i.main)
    i.makeFreeRtosPriority                   0x08005650   Section        0  cmsis_os.o(i.makeFreeRtosPriority)
    makeFreeRtosPriority                     0x08005651   Thumb Code    12  cmsis_os.o(i.makeFreeRtosPriority)
    i.osDelay                                0x0800565c   Section        0  cmsis_os.o(i.osDelay)
    i.osKernelStart                          0x0800566a   Section        0  cmsis_os.o(i.osKernelStart)
    i.osMessageCreate                        0x08005674   Section        0  cmsis_os.o(i.osMessageCreate)
    i.osMessageGet                           0x0800569c   Section        0  cmsis_os.o(i.osMessageGet)
    i.osMessagePut                           0x08005730   Section        0  cmsis_os.o(i.osMessagePut)
    i.osSemaphoreCreate                      0x0800578c   Section        0  cmsis_os.o(i.osSemaphoreCreate)
    i.osThreadCreate                         0x080057ca   Section        0  cmsis_os.o(i.osThreadCreate)
    i.prvAddCurrentTaskToDelayedList         0x08005820   Section        0  tasks.o(i.prvAddCurrentTaskToDelayedList)
    prvAddCurrentTaskToDelayedList           0x08005821   Thumb Code   102  tasks.o(i.prvAddCurrentTaskToDelayedList)
    i.prvAddNewTaskToReadyList               0x08005890   Section        0  tasks.o(i.prvAddNewTaskToReadyList)
    prvAddNewTaskToReadyList                 0x08005891   Thumb Code   194  tasks.o(i.prvAddNewTaskToReadyList)
    i.prvCopyDataFromQueue                   0x08005960   Section        0  queue.o(i.prvCopyDataFromQueue)
    prvCopyDataFromQueue                     0x08005961   Thumb Code    38  queue.o(i.prvCopyDataFromQueue)
    i.prvCopyDataToQueue                     0x08005986   Section        0  queue.o(i.prvCopyDataToQueue)
    prvCopyDataToQueue                       0x08005987   Thumb Code   108  queue.o(i.prvCopyDataToQueue)
    i.prvDeleteTCB                           0x080059f2   Section        0  tasks.o(i.prvDeleteTCB)
    prvDeleteTCB                             0x080059f3   Thumb Code    52  tasks.o(i.prvDeleteTCB)
    i.prvHeapInit                            0x08005a28   Section        0  heap_4.o(i.prvHeapInit)
    prvHeapInit                              0x08005a29   Thumb Code    66  heap_4.o(i.prvHeapInit)
    i.prvIdleTask                            0x08005a74   Section        0  tasks.o(i.prvIdleTask)
    prvIdleTask                              0x08005a75   Thumb Code    82  tasks.o(i.prvIdleTask)
    i.prvInitialiseNewQueue                  0x08005ad4   Section        0  queue.o(i.prvInitialiseNewQueue)
    prvInitialiseNewQueue                    0x08005ad5   Thumb Code    22  queue.o(i.prvInitialiseNewQueue)
    i.prvInitialiseNewTask                   0x08005aea   Section        0  tasks.o(i.prvInitialiseNewTask)
    prvInitialiseNewTask                     0x08005aeb   Thumb Code   152  tasks.o(i.prvInitialiseNewTask)
    i.prvInsertBlockIntoFreeList             0x08005b84   Section        0  heap_4.o(i.prvInsertBlockIntoFreeList)
    prvInsertBlockIntoFreeList               0x08005b85   Thumb Code    72  heap_4.o(i.prvInsertBlockIntoFreeList)
    i.prvIsQueueEmpty                        0x08005bd0   Section        0  queue.o(i.prvIsQueueEmpty)
    prvIsQueueEmpty                          0x08005bd1   Thumb Code    28  queue.o(i.prvIsQueueEmpty)
    i.prvResetNextTaskUnblockTime            0x08005bec   Section        0  tasks.o(i.prvResetNextTaskUnblockTime)
    prvResetNextTaskUnblockTime              0x08005bed   Thumb Code    26  tasks.o(i.prvResetNextTaskUnblockTime)
    i.prvTaskExitError                       0x08005c0c   Section        0  port.o(i.prvTaskExitError)
    prvTaskExitError                         0x08005c0d   Thumb Code    36  port.o(i.prvTaskExitError)
    i.prvUnlockQueue                         0x08005c34   Section        0  queue.o(i.prvUnlockQueue)
    prvUnlockQueue                           0x08005c35   Thumb Code   106  queue.o(i.prvUnlockQueue)
    i.pvPortMalloc                           0x08005ca0   Section        0  heap_4.o(i.pvPortMalloc)
    i.pxPortInitialiseStack                  0x08005d7c   Section        0  port.o(i.pxPortInitialiseStack)
    i.uxListRemove                           0x08005da8   Section        0  list.o(i.uxListRemove)
    i.vApplicationGetIdleTaskMemory          0x08005dd0   Section        0  freertos.o(i.vApplicationGetIdleTaskMemory)
    i.vListInitialise                        0x08005de4   Section        0  list.o(i.vListInitialise)
    i.vListInitialiseItem                    0x08005dfa   Section        0  list.o(i.vListInitialiseItem)
    i.vListInsert                            0x08005e00   Section        0  list.o(i.vListInsert)
    i.vListInsertEnd                         0x08005e30   Section        0  list.o(i.vListInsertEnd)
    i.vPortEnterCritical                     0x08005e48   Section        0  port.o(i.vPortEnterCritical)
    i.vPortExitCritical                      0x08005e88   Section        0  port.o(i.vPortExitCritical)
    i.vPortFree                              0x08005eb0   Section        0  heap_4.o(i.vPortFree)
    i.vPortSetupTimerInterrupt               0x08005f14   Section        0  port.o(i.vPortSetupTimerInterrupt)
    i.vPortValidateInterruptPriority         0x08005f38   Section        0  port.o(i.vPortValidateInterruptPriority)
    i.vTaskDelay                             0x08005f8c   Section        0  tasks.o(i.vTaskDelay)
    i.vTaskInternalSetTimeOutState           0x08005fd8   Section        0  tasks.o(i.vTaskInternalSetTimeOutState)
    i.vTaskMissedYield                       0x08005fe8   Section        0  tasks.o(i.vTaskMissedYield)
    i.vTaskPlaceOnEventList                  0x08005ff4   Section        0  tasks.o(i.vTaskPlaceOnEventList)
    i.vTaskStartScheduler                    0x08006024   Section        0  tasks.o(i.vTaskStartScheduler)
    i.vTaskSuspendAll                        0x08006090   Section        0  tasks.o(i.vTaskSuspendAll)
    i.vTaskSwitchContext                     0x080060a0   Section        0  tasks.o(i.vTaskSwitchContext)
    i.xPortStartScheduler                    0x080060fc   Section        0  port.o(i.xPortStartScheduler)
    i.xQueueGenericCreate                    0x080061f0   Section        0  queue.o(i.xQueueGenericCreate)
    i.xQueueGenericCreateStatic              0x08006232   Section        0  queue.o(i.xQueueGenericCreateStatic)
    i.xQueueGenericReset                     0x08006298   Section        0  queue.o(i.xQueueGenericReset)
    i.xQueueGenericSend                      0x08006320   Section        0  queue.o(i.xQueueGenericSend)
    i.xQueueGenericSendFromISR               0x08006480   Section        0  queue.o(i.xQueueGenericSendFromISR)
    i.xQueueReceive                          0x08006540   Section        0  queue.o(i.xQueueReceive)
    i.xQueueReceiveFromISR                   0x08006678   Section        0  queue.o(i.xQueueReceiveFromISR)
    i.xTaskCheckForTimeOut                   0x08006714   Section        0  tasks.o(i.xTaskCheckForTimeOut)
    i.xTaskCreate                            0x08006788   Section        0  tasks.o(i.xTaskCreate)
    i.xTaskCreateStatic                      0x080067e2   Section        0  tasks.o(i.xTaskCreateStatic)
    i.xTaskGetSchedulerState                 0x08006838   Section        0  tasks.o(i.xTaskGetSchedulerState)
    i.xTaskIncrementTick                     0x08006854   Section        0  tasks.o(i.xTaskIncrementTick)
    i.xTaskPriorityDisinherit                0x08006920   Section        0  tasks.o(i.xTaskPriorityDisinherit)
    i.xTaskRemoveFromEventList               0x080069b8   Section        0  tasks.o(i.xTaskRemoveFromEventList)
    i.xTaskResumeAll                         0x08006a2c   Section        0  tasks.o(i.xTaskResumeAll)
    x$fpl$fpinit                             0x08006af0   Section       10  fpinit.o(x$fpl$fpinit)
    $v0                                      0x08006af0   Number         0  fpinit.o(x$fpl$fpinit)
    .constdata                               0x08006afc   Section      360  freertos.o(.constdata)
    .constdata                               0x08006c64   Section       16  system_stm32f4xx.o(.constdata)
    .constdata                               0x08006c74   Section        8  system_stm32f4xx.o(.constdata)
    .constdata                               0x08006c7c   Section       44  usbh_core.o(.constdata)
    .conststring                             0x08006ca8   Section      148  freertos.o(.conststring)
    .conststring                             0x08006d3c   Section       12  usbh_core.o(.conststring)
    .conststring                             0x08006d48   Section        4  usbh_cdc.o(.conststring)
    .data                                    0x20000000   Section       76  freertos.o(.data)
    .data                                    0x2000004c   Section        1  usb_host.o(.data)
    .data                                    0x20000050   Section       12  stm32f4xx_hal.o(.data)
    .data                                    0x2000005c   Section        4  system_stm32f4xx.o(.data)
    .data                                    0x20000060   Section       60  tasks.o(.data)
    uxDeletedTasksWaitingCleanUp             0x20000064   Data           4  tasks.o(.data)
    uxCurrentNumberOfTasks                   0x20000068   Data           4  tasks.o(.data)
    xTickCount                               0x2000006c   Data           4  tasks.o(.data)
    uxTopReadyPriority                       0x20000070   Data           4  tasks.o(.data)
    xSchedulerRunning                        0x20000074   Data           4  tasks.o(.data)
    xPendedTicks                             0x20000078   Data           4  tasks.o(.data)
    xYieldPending                            0x2000007c   Data           4  tasks.o(.data)
    xNumOfOverflows                          0x20000080   Data           4  tasks.o(.data)
    uxTaskNumber                             0x20000084   Data           4  tasks.o(.data)
    xNextTaskUnblockTime                     0x20000088   Data           4  tasks.o(.data)
    xIdleTaskHandle                          0x2000008c   Data           4  tasks.o(.data)
    uxSchedulerSuspended                     0x20000090   Data           4  tasks.o(.data)
    pxDelayedTaskList                        0x20000094   Data           4  tasks.o(.data)
    pxOverflowDelayedTaskList                0x20000098   Data           4  tasks.o(.data)
    .data                                    0x2000009c   Section       32  heap_4.o(.data)
    pxEnd                                    0x2000009c   Data           4  heap_4.o(.data)
    xFreeBytesRemaining                      0x200000a0   Data           4  heap_4.o(.data)
    xMinimumEverFreeBytesRemaining           0x200000a4   Data           4  heap_4.o(.data)
    xNumberOfSuccessfulAllocations           0x200000a8   Data           4  heap_4.o(.data)
    xNumberOfSuccessfulFrees                 0x200000ac   Data           4  heap_4.o(.data)
    xBlockAllocatedBit                       0x200000b0   Data           4  heap_4.o(.data)
    xStart                                   0x200000b4   Data           8  heap_4.o(.data)
    .data                                    0x200000bc   Section       12  port.o(.data)
    ucMaxSysCallPriority                     0x200000bc   Data           1  port.o(.data)
    uxCriticalNesting                        0x200000c0   Data           4  port.o(.data)
    ulMaxPRIGROUPValue                       0x200000c4   Data           4  port.o(.data)
    .data                                    0x200000c8   Section       32  usbh_cdc.o(.data)
    .bss                                     0x200000e8   Section      596  freertos.o(.bss)
    xIdleTaskTCBBuffer                       0x200000e8   Data          84  freertos.o(.bss)
    xIdleStack                               0x2000013c   Data         512  freertos.o(.bss)
    .bss                                     0x2000033c   Section       72  adc.o(.bss)
    .bss                                     0x20000384   Section       84  i2c.o(.bss)
    .bss                                     0x200003d8   Section       72  i2s.o(.bss)
    .bss                                     0x20000420   Section       32  rtc.o(.bss)
    .bss                                     0x20000440   Section      176  spi.o(.bss)
    .bss                                     0x200004f0   Section       72  tim.o(.bss)
    .bss                                     0x20000538   Section      136  usart.o(.bss)
    .bss                                     0x200005c0   Section       72  stm32f4xx_hal_timebase_tim.o(.bss)
    .bss                                     0x20000608   Section      996  usb_host.o(.bss)
    .bss                                     0x200009ec   Section      772  usbh_conf.o(.bss)
    .bss                                     0x20000cf0   Section      240  tasks.o(.bss)
    pxReadyTasksLists                        0x20000cf0   Data         140  tasks.o(.bss)
    xDelayedTaskList1                        0x20000d7c   Data          20  tasks.o(.bss)
    xDelayedTaskList2                        0x20000d90   Data          20  tasks.o(.bss)
    xPendingReadyList                        0x20000da4   Data          20  tasks.o(.bss)
    xTasksWaitingTermination                 0x20000db8   Data          20  tasks.o(.bss)
    xSuspendedTaskList                       0x20000dcc   Data          20  tasks.o(.bss)
    .bss                                     0x20000de0   Section    15360  heap_4.o(.bss)
    ucHeap                                   0x20000de0   Data       15360  heap_4.o(.bss)
    .bss                                     0x200049e0   Section       96  libspace.o(.bss)
    HEAP                                     0x20004a40   Section      512  startup_stm32f407xx.o(HEAP)
    Heap_Mem                                 0x20004a40   Data         512  startup_stm32f407xx.o(HEAP)
    STACK                                    0x20004c40   Section     1024  startup_stm32f407xx.o(STACK)
    Stack_Mem                                0x20004c40   Data        1024  startup_stm32f407xx.o(STACK)
    __initial_sp                             0x20005040   Data           0  startup_stm32f407xx.o(STACK)

    Global Symbols

    Symbol Name                              Value     Ov Type        Size  Object(Section)

    BuildAttributes$$THM_ISAv4$E$P$D$K$B$S$7EM$VFPi3$EXTD16$VFPS$VFMA$PE$A:L22UL41UL21$X:L11$S22US41US21$IEEE1$IW$USESV6$~STKCKD$USESV7$~SHL$OTIME$ROPI$EBA8$UX$STANDARDLIB$REQ8$PRES8$EABIv2 0x00000000   Number         0  anon$$obj.o ABSOLUTE
    __ARM_use_no_argv                        0x00000000   Number         0  main.o ABSOLUTE
    __ARM_exceptions_init                     - Undefined Weak Reference
    __alloca_initialize                       - Undefined Weak Reference
    __arm_preinit_                            - Undefined Weak Reference
    __cpp_initialize__aeabi_                  - Undefined Weak Reference
    __cxa_finalize                            - Undefined Weak Reference
    __rt_locale                               - Undefined Weak Reference
    __sigvec_lookup                           - Undefined Weak Reference
    __user_heap_extent                        - Undefined Weak Reference
    _atexit_init                              - Undefined Weak Reference
    _call_atexit_fns                          - Undefined Weak Reference
    _clock_init                               - Undefined Weak Reference
    _fp_trap_init                             - Undefined Weak Reference
    _fp_trap_shutdown                         - Undefined Weak Reference
    _get_lc_collate                           - Undefined Weak Reference
    _get_lc_ctype                             - Undefined Weak Reference
    _get_lc_monetary                          - Undefined Weak Reference
    _get_lc_numeric                           - Undefined Weak Reference
    _get_lc_time                              - Undefined Weak Reference
    _getenv_init                              - Undefined Weak Reference
    _handle_redirection                       - Undefined Weak Reference
    _initio                                   - Undefined Weak Reference
    _mutex_acquire                            - Undefined Weak Reference
    _mutex_free                               - Undefined Weak Reference
    _mutex_release                            - Undefined Weak Reference
    _rand_init                                - Undefined Weak Reference
    _signal_finish                            - Undefined Weak Reference
    _signal_init                              - Undefined Weak Reference
    _terminateio                              - Undefined Weak Reference
    __Vectors_Size                           0x00000188   Number         0  startup_stm32f407xx.o ABSOLUTE
    __Vectors                                0x08000000   Data           4  startup_stm32f407xx.o(RESET)
    __Vectors_End                            0x08000188   Data           0  startup_stm32f407xx.o(RESET)
    __main                                   0x08000189   Thumb Code     8  __main.o(!!!main)
    __scatterload                            0x08000191   Thumb Code     0  __scatter.o(!!!scatter)
    __scatterload_rt2                        0x08000191   Thumb Code    44  __scatter.o(!!!scatter)
    __scatterload_rt2_thumb_only             0x08000191   Thumb Code     0  __scatter.o(!!!scatter)
    __scatterload_null                       0x0800019f   Thumb Code     0  __scatter.o(!!!scatter)
    __scatterload_copy                       0x080001c5   Thumb Code    26  __scatter_copy.o(!!handler_copy)
    __scatterload_zeroinit                   0x080001e1   Thumb Code    28  __scatter_zi.o(!!handler_zi)
    __rt_lib_init                            0x080001fd   Thumb Code     0  libinit.o(.ARM.Collect$$libinit$$00000000)
    __rt_lib_init_fp_1                       0x080001ff   Thumb Code     0  libinit2.o(.ARM.Collect$$libinit$$00000001)
    __rt_lib_init_heap_2                     0x08000203   Thumb Code     0  libinit2.o(.ARM.Collect$$libinit$$00000005)
    __rt_lib_init_preinit_1                  0x08000203   Thumb Code     0  libinit2.o(.ARM.Collect$$libinit$$00000004)
    __rt_lib_init_alloca_1                   0x0800020b   Thumb Code     0  libinit2.o(.ARM.Collect$$libinit$$0000002E)
    __rt_lib_init_argv_1                     0x0800020b   Thumb Code     0  libinit2.o(.ARM.Collect$$libinit$$0000002C)
    __rt_lib_init_atexit_1                   0x0800020b   Thumb Code     0  libinit2.o(.ARM.Collect$$libinit$$0000001B)
    __rt_lib_init_clock_1                    0x0800020b   Thumb Code     0  libinit2.o(.ARM.Collect$$libinit$$00000021)
    __rt_lib_init_cpp_1                      0x0800020b   Thumb Code     0  libinit2.o(.ARM.Collect$$libinit$$00000032)
    __rt_lib_init_exceptions_1               0x0800020b   Thumb Code     0  libinit2.o(.ARM.Collect$$libinit$$00000030)
    __rt_lib_init_fp_trap_1                  0x0800020b   Thumb Code     0  libinit2.o(.ARM.Collect$$libinit$$0000001F)
    __rt_lib_init_getenv_1                   0x0800020b   Thumb Code     0  libinit2.o(.ARM.Collect$$libinit$$00000023)
    __rt_lib_init_heap_1                     0x0800020b   Thumb Code     0  libinit2.o(.ARM.Collect$$libinit$$0000000A)
    __rt_lib_init_lc_collate_1               0x0800020b   Thumb Code     0  libinit2.o(.ARM.Collect$$libinit$$00000011)
    __rt_lib_init_lc_ctype_1                 0x0800020b   Thumb Code     0  libinit2.o(.ARM.Collect$$libinit$$00000013)
    __rt_lib_init_lc_monetary_1              0x0800020b   Thumb Code     0  libinit2.o(.ARM.Collect$$libinit$$00000015)
    __rt_lib_init_lc_numeric_1               0x0800020b   Thumb Code     0  libinit2.o(.ARM.Collect$$libinit$$00000017)
    __rt_lib_init_lc_time_1                  0x0800020b   Thumb Code     0  libinit2.o(.ARM.Collect$$libinit$$00000019)
    __rt_lib_init_rand_1                     0x0800020b   Thumb Code     0  libinit2.o(.ARM.Collect$$libinit$$0000000E)
    __rt_lib_init_return                     0x0800020b   Thumb Code     0  libinit2.o(.ARM.Collect$$libinit$$00000033)
    __rt_lib_init_signal_1                   0x0800020b   Thumb Code     0  libinit2.o(.ARM.Collect$$libinit$$0000001D)
    __rt_lib_init_stdio_1                    0x0800020b   Thumb Code     0  libinit2.o(.ARM.Collect$$libinit$$00000025)
    __rt_lib_init_user_alloc_1               0x0800020b   Thumb Code     0  libinit2.o(.ARM.Collect$$libinit$$0000000C)
    __rt_lib_shutdown                        0x0800020d   Thumb Code     0  libshutdown.o(.ARM.Collect$$libshutdown$$00000000)
    __rt_lib_shutdown_cpp_1                  0x0800020f   Thumb Code     0  libshutdown2.o(.ARM.Collect$$libshutdown$$00000002)
    __rt_lib_shutdown_fp_trap_1              0x0800020f   Thumb Code     0  libshutdown2.o(.ARM.Collect$$libshutdown$$00000007)
    __rt_lib_shutdown_heap_1                 0x0800020f   Thumb Code     0  libshutdown2.o(.ARM.Collect$$libshutdown$$0000000F)
    __rt_lib_shutdown_return                 0x0800020f   Thumb Code     0  libshutdown2.o(.ARM.Collect$$libshutdown$$00000010)
    __rt_lib_shutdown_signal_1               0x0800020f   Thumb Code     0  libshutdown2.o(.ARM.Collect$$libshutdown$$0000000A)
    __rt_lib_shutdown_stdio_1                0x0800020f   Thumb Code     0  libshutdown2.o(.ARM.Collect$$libshutdown$$00000004)
    __rt_lib_shutdown_user_alloc_1           0x0800020f   Thumb Code     0  libshutdown2.o(.ARM.Collect$$libshutdown$$0000000C)
    __rt_entry                               0x08000211   Thumb Code     0  __rtentry.o(.ARM.Collect$$rtentry$$00000000)
    __rt_entry_presh_1                       0x08000211   Thumb Code     0  __rtentry2.o(.ARM.Collect$$rtentry$$00000002)
    __rt_entry_sh                            0x08000211   Thumb Code     0  __rtentry4.o(.ARM.Collect$$rtentry$$00000004)
    __rt_entry_li                            0x08000217   Thumb Code     0  __rtentry2.o(.ARM.Collect$$rtentry$$0000000A)
    __rt_entry_postsh_1                      0x08000217   Thumb Code     0  __rtentry2.o(.ARM.Collect$$rtentry$$00000009)
    __rt_entry_main                          0x0800021b   Thumb Code     0  __rtentry2.o(.ARM.Collect$$rtentry$$0000000D)
    __rt_entry_postli_1                      0x0800021b   Thumb Code     0  __rtentry2.o(.ARM.Collect$$rtentry$$0000000C)
    __rt_exit                                0x08000223   Thumb Code     0  rtexit.o(.ARM.Collect$$rtexit$$00000000)
    __rt_exit_ls                             0x08000225   Thumb Code     0  rtexit2.o(.ARM.Collect$$rtexit$$00000003)
    __rt_exit_prels_1                        0x08000225   Thumb Code     0  rtexit2.o(.ARM.Collect$$rtexit$$00000002)
    __rt_exit_exit                           0x08000229   Thumb Code     0  rtexit2.o(.ARM.Collect$$rtexit$$00000004)
    SVC_Handler                              0x08000231   Thumb Code    28  port.o(.emb_text)
    __asm___6_port_c_39a90d8d__prvStartFirstTask 0x08000251   Thumb Code    36  port.o(.emb_text)
    __asm___6_port_c_39a90d8d__prvEnableVFP  0x08000279   Thumb Code    16  port.o(.emb_text)
    PendSV_Handler                           0x0800028d   Thumb Code    88  port.o(.emb_text)
    vPortGetIPSR                             0x080002e9   Thumb Code     6  port.o(.emb_text)
    Reset_Handler                            0x080002f1   Thumb Code     8  startup_stm32f407xx.o(.text)
    _maybe_terminate_alloc                   0x080002f1   Thumb Code     0  maybetermalloc1.o(.emb_text)
    ADC_IRQHandler                           0x0800030b   Thumb Code     0  startup_stm32f407xx.o(.text)
    CAN1_RX0_IRQHandler                      0x0800030b   Thumb Code     0  startup_stm32f407xx.o(.text)
    CAN1_RX1_IRQHandler                      0x0800030b   Thumb Code     0  startup_stm32f407xx.o(.text)
    CAN1_SCE_IRQHandler                      0x0800030b   Thumb Code     0  startup_stm32f407xx.o(.text)
    CAN1_TX_IRQHandler                       0x0800030b   Thumb Code     0  startup_stm32f407xx.o(.text)
    CAN2_RX0_IRQHandler                      0x0800030b   Thumb Code     0  startup_stm32f407xx.o(.text)
    CAN2_RX1_IRQHandler                      0x0800030b   Thumb Code     0  startup_stm32f407xx.o(.text)
    CAN2_SCE_IRQHandler                      0x0800030b   Thumb Code     0  startup_stm32f407xx.o(.text)
    CAN2_TX_IRQHandler                       0x0800030b   Thumb Code     0  startup_stm32f407xx.o(.text)
    DCMI_IRQHandler                          0x0800030b   Thumb Code     0  startup_stm32f407xx.o(.text)
    DMA1_Stream0_IRQHandler                  0x0800030b   Thumb Code     0  startup_stm32f407xx.o(.text)
    DMA1_Stream1_IRQHandler                  0x0800030b   Thumb Code     0  startup_stm32f407xx.o(.text)
    DMA1_Stream2_IRQHandler                  0x0800030b   Thumb Code     0  startup_stm32f407xx.o(.text)
    DMA1_Stream3_IRQHandler                  0x0800030b   Thumb Code     0  startup_stm32f407xx.o(.text)
    DMA1_Stream4_IRQHandler                  0x0800030b   Thumb Code     0  startup_stm32f407xx.o(.text)
    DMA1_Stream5_IRQHandler                  0x0800030b   Thumb Code     0  startup_stm32f407xx.o(.text)
    DMA1_Stream6_IRQHandler                  0x0800030b   Thumb Code     0  startup_stm32f407xx.o(.text)
    DMA1_Stream7_IRQHandler                  0x0800030b   Thumb Code     0  startup_stm32f407xx.o(.text)
    DMA2_Stream0_IRQHandler                  0x0800030b   Thumb Code     0  startup_stm32f407xx.o(.text)
    DMA2_Stream1_IRQHandler                  0x0800030b   Thumb Code     0  startup_stm32f407xx.o(.text)
    DMA2_Stream2_IRQHandler                  0x0800030b   Thumb Code     0  startup_stm32f407xx.o(.text)
    DMA2_Stream3_IRQHandler                  0x0800030b   Thumb Code     0  startup_stm32f407xx.o(.text)
    DMA2_Stream4_IRQHandler                  0x0800030b   Thumb Code     0  startup_stm32f407xx.o(.text)
    DMA2_Stream5_IRQHandler                  0x0800030b   Thumb Code     0  startup_stm32f407xx.o(.text)
    DMA2_Stream6_IRQHandler                  0x0800030b   Thumb Code     0  startup_stm32f407xx.o(.text)
    DMA2_Stream7_IRQHandler                  0x0800030b   Thumb Code     0  startup_stm32f407xx.o(.text)
    ETH_IRQHandler                           0x0800030b   Thumb Code     0  startup_stm32f407xx.o(.text)
    ETH_WKUP_IRQHandler                      0x0800030b   Thumb Code     0  startup_stm32f407xx.o(.text)
    EXTI0_IRQHandler                         0x0800030b   Thumb Code     0  startup_stm32f407xx.o(.text)
    EXTI15_10_IRQHandler                     0x0800030b   Thumb Code     0  startup_stm32f407xx.o(.text)
    EXTI1_IRQHandler                         0x0800030b   Thumb Code     0  startup_stm32f407xx.o(.text)
    EXTI2_IRQHandler                         0x0800030b   Thumb Code     0  startup_stm32f407xx.o(.text)
    EXTI3_IRQHandler                         0x0800030b   Thumb Code     0  startup_stm32f407xx.o(.text)
    EXTI4_IRQHandler                         0x0800030b   Thumb Code     0  startup_stm32f407xx.o(.text)
    EXTI9_5_IRQHandler                       0x0800030b   Thumb Code     0  startup_stm32f407xx.o(.text)
    FLASH_IRQHandler                         0x0800030b   Thumb Code     0  startup_stm32f407xx.o(.text)
    FMC_IRQHandler                           0x0800030b   Thumb Code     0  startup_stm32f407xx.o(.text)
    FPU_IRQHandler                           0x0800030b   Thumb Code     0  startup_stm32f407xx.o(.text)
    HASH_RNG_IRQHandler                      0x0800030b   Thumb Code     0  startup_stm32f407xx.o(.text)
    I2C1_ER_IRQHandler                       0x0800030b   Thumb Code     0  startup_stm32f407xx.o(.text)
    I2C1_EV_IRQHandler                       0x0800030b   Thumb Code     0  startup_stm32f407xx.o(.text)
    I2C2_ER_IRQHandler                       0x0800030b   Thumb Code     0  startup_stm32f407xx.o(.text)
    I2C2_EV_IRQHandler                       0x0800030b   Thumb Code     0  startup_stm32f407xx.o(.text)
    I2C3_ER_IRQHandler                       0x0800030b   Thumb Code     0  startup_stm32f407xx.o(.text)
    I2C3_EV_IRQHandler                       0x0800030b   Thumb Code     0  startup_stm32f407xx.o(.text)
    OTG_FS_WKUP_IRQHandler                   0x0800030b   Thumb Code     0  startup_stm32f407xx.o(.text)
    OTG_HS_EP1_IN_IRQHandler                 0x0800030b   Thumb Code     0  startup_stm32f407xx.o(.text)
    OTG_HS_EP1_OUT_IRQHandler                0x0800030b   Thumb Code     0  startup_stm32f407xx.o(.text)
    OTG_HS_IRQHandler                        0x0800030b   Thumb Code     0  startup_stm32f407xx.o(.text)
    OTG_HS_WKUP_IRQHandler                   0x0800030b   Thumb Code     0  startup_stm32f407xx.o(.text)
    PVD_IRQHandler                           0x0800030b   Thumb Code     0  startup_stm32f407xx.o(.text)
    RCC_IRQHandler                           0x0800030b   Thumb Code     0  startup_stm32f407xx.o(.text)
    RTC_Alarm_IRQHandler                     0x0800030b   Thumb Code     0  startup_stm32f407xx.o(.text)
    RTC_WKUP_IRQHandler                      0x0800030b   Thumb Code     0  startup_stm32f407xx.o(.text)
    SDIO_IRQHandler                          0x0800030b   Thumb Code     0  startup_stm32f407xx.o(.text)
    SPI1_IRQHandler                          0x0800030b   Thumb Code     0  startup_stm32f407xx.o(.text)
    SPI2_IRQHandler                          0x0800030b   Thumb Code     0  startup_stm32f407xx.o(.text)
    SPI3_IRQHandler                          0x0800030b   Thumb Code     0  startup_stm32f407xx.o(.text)
    TAMP_STAMP_IRQHandler                    0x0800030b   Thumb Code     0  startup_stm32f407xx.o(.text)
    TIM1_BRK_TIM9_IRQHandler                 0x0800030b   Thumb Code     0  startup_stm32f407xx.o(.text)
    TIM1_CC_IRQHandler                       0x0800030b   Thumb Code     0  startup_stm32f407xx.o(.text)
    TIM1_TRG_COM_TIM11_IRQHandler            0x0800030b   Thumb Code     0  startup_stm32f407xx.o(.text)
    TIM1_UP_TIM10_IRQHandler                 0x0800030b   Thumb Code     0  startup_stm32f407xx.o(.text)
    TIM3_IRQHandler                          0x0800030b   Thumb Code     0  startup_stm32f407xx.o(.text)
    TIM4_IRQHandler                          0x0800030b   Thumb Code     0  startup_stm32f407xx.o(.text)
    TIM5_IRQHandler                          0x0800030b   Thumb Code     0  startup_stm32f407xx.o(.text)
    TIM6_DAC_IRQHandler                      0x0800030b   Thumb Code     0  startup_stm32f407xx.o(.text)
    TIM7_IRQHandler                          0x0800030b   Thumb Code     0  startup_stm32f407xx.o(.text)
    TIM8_BRK_TIM12_IRQHandler                0x0800030b   Thumb Code     0  startup_stm32f407xx.o(.text)
    TIM8_CC_IRQHandler                       0x0800030b   Thumb Code     0  startup_stm32f407xx.o(.text)
    TIM8_TRG_COM_TIM14_IRQHandler            0x0800030b   Thumb Code     0  startup_stm32f407xx.o(.text)
    TIM8_UP_TIM13_IRQHandler                 0x0800030b   Thumb Code     0  startup_stm32f407xx.o(.text)
    UART4_IRQHandler                         0x0800030b   Thumb Code     0  startup_stm32f407xx.o(.text)
    UART5_IRQHandler                         0x0800030b   Thumb Code     0  startup_stm32f407xx.o(.text)
    USART1_IRQHandler                        0x0800030b   Thumb Code     0  startup_stm32f407xx.o(.text)
    USART2_IRQHandler                        0x0800030b   Thumb Code     0  startup_stm32f407xx.o(.text)
    USART3_IRQHandler                        0x0800030b   Thumb Code     0  startup_stm32f407xx.o(.text)
    USART6_IRQHandler                        0x0800030b   Thumb Code     0  startup_stm32f407xx.o(.text)
    WWDG_IRQHandler                          0x0800030b   Thumb Code     0  startup_stm32f407xx.o(.text)
    __user_initial_stackheap                 0x0800030d   Thumb Code     0  startup_stm32f407xx.o(.text)
    malloc                                   0x08000331   Thumb Code    94  h1_alloc.o(.text)
    free                                     0x0800038f   Thumb Code    78  h1_free.o(.text)
    __aeabi_uldivmod                         0x080003dd   Thumb Code     0  lludivv7m.o(.text)
    _ll_udiv                                 0x080003dd   Thumb Code   238  lludivv7m.o(.text)
    __aeabi_memcpy                           0x080004cb   Thumb Code     0  rt_memcpy_v6.o(.text)
    __rt_memcpy                              0x080004cb   Thumb Code   138  rt_memcpy_v6.o(.text)
    _memcpy_lastbytes                        0x08000531   Thumb Code     0  rt_memcpy_v6.o(.text)
    __aeabi_memcpy4                          0x08000555   Thumb Code     0  rt_memcpy_w.o(.text)
    __aeabi_memcpy8                          0x08000555   Thumb Code     0  rt_memcpy_w.o(.text)
    __rt_memcpy_w                            0x08000555   Thumb Code   100  rt_memcpy_w.o(.text)
    _memcpy_lastbytes_aligned                0x0800059d   Thumb Code     0  rt_memcpy_w.o(.text)
    __aeabi_memclr4                          0x080005b9   Thumb Code     0  rt_memclr_w.o(.text)
    __aeabi_memclr8                          0x080005b9   Thumb Code     0  rt_memclr_w.o(.text)
    __rt_memclr_w                            0x080005b9   Thumb Code    78  rt_memclr_w.o(.text)
    _memset_w                                0x080005bd   Thumb Code     0  rt_memclr_w.o(.text)
    __use_two_region_memory                  0x08000607   Thumb Code     2  heapauxi.o(.text)
    __rt_heap_escrow                         0x08000609   Thumb Code     2  heapauxi.o(.text)
    __rt_heap_expand                         0x0800060b   Thumb Code     2  heapauxi.o(.text)
    __rt_heap_descriptor                     0x0800060d   Thumb Code     8  rt_heap_descriptor_intlibspace.o(.text)
    __use_no_heap                            0x08000615   Thumb Code     2  hguard.o(.text)
    __heap$guard                             0x08000617   Thumb Code     2  hguard.o(.text)
    _terminate_user_alloc                    0x08000619   Thumb Code     2  init_alloc.o(.text)
    _init_user_alloc                         0x0800061b   Thumb Code     2  init_alloc.o(.text)
    __Heap_Full                              0x0800061d   Thumb Code    34  init_alloc.o(.text)
    __Heap_Broken                            0x0800063f   Thumb Code     6  init_alloc.o(.text)
    _init_alloc                              0x08000645   Thumb Code    94  init_alloc.o(.text)
    __Heap_Initialize                        0x080006a3   Thumb Code    10  h1_init.o(.text)
    __Heap_DescSize                          0x080006ad   Thumb Code     4  h1_init.o(.text)
    __user_libspace                          0x080006b1   Thumb Code     8  libspace.o(.text)
    __user_perproc_libspace                  0x080006b1   Thumb Code     0  libspace.o(.text)
    __user_perthread_libspace                0x080006b1   Thumb Code     0  libspace.o(.text)
    __Heap_ProvideMemory                     0x080006b9   Thumb Code    52  h1_extend.o(.text)
    __rt_SIGRTMEM                            0x080006ed   Thumb Code    14  defsig_rtmem_outer.o(.text)
    __I$use$semihosting                      0x080006fb   Thumb Code     0  use_no_semi.o(.text)
    __use_no_semihosting_swi                 0x080006fb   Thumb Code     2  use_no_semi.o(.text)
    __semihosting_library_function           0x080006fd   Thumb Code     0  indicate_semi.o(.text)
    __user_setup_stackheap                   0x080006fd   Thumb Code    74  sys_stackheap_outer.o(.text)
    exit                                     0x08000747   Thumb Code    18  exit.o(.text)
    __sig_exit                               0x08000759   Thumb Code    10  defsig_exit.o(.text)
    __rt_SIGRTMEM_inner                      0x08000765   Thumb Code    22  defsig_rtmem_inner.o(.text)
    _sys_exit                                0x080007b5   Thumb Code     8  sys_exit.o(.text)
    __default_signal_display                 0x080007c1   Thumb Code    50  defsig_general.o(.text)
    _ttywrch                                 0x080007f3   Thumb Code    14  sys_wrch.o(.text)
    BusFault_Handler                         0x08000929   Thumb Code     2  stm32f4xx_it.o(i.BusFault_Handler)
    DebugMon_Handler                         0x08000a81   Thumb Code     2  stm32f4xx_it.o(i.DebugMon_Handler)
    Error_Handler                            0x08000a83   Thumb Code     4  main.o(i.Error_Handler)
    HAL_ADC_ConfigChannel                    0x08000a9d   Thumb Code   316  stm32f4xx_hal_adc.o(i.HAL_ADC_ConfigChannel)
    HAL_ADC_Init                             0x08000be9   Thumb Code    84  stm32f4xx_hal_adc.o(i.HAL_ADC_Init)
    HAL_ADC_MspInit                          0x08000c3d   Thumb Code   116  adc.o(i.HAL_ADC_MspInit)
    HAL_Delay                                0x08000cc1   Thumb Code    32  stm32f4xx_hal.o(i.HAL_Delay)
    HAL_GPIO_Init                            0x08000ce5   Thumb Code   450  stm32f4xx_hal_gpio.o(i.HAL_GPIO_Init)
    HAL_GPIO_WritePin                        0x08000ed5   Thumb Code    10  stm32f4xx_hal_gpio.o(i.HAL_GPIO_WritePin)
    HAL_GetTick                              0x08000ee1   Thumb Code     6  stm32f4xx_hal.o(i.HAL_GetTick)
    HAL_HCD_Connect_Callback                 0x08000eed   Thumb Code     8  usbh_conf.o(i.HAL_HCD_Connect_Callback)
    HAL_HCD_Disconnect_Callback              0x08000ef5   Thumb Code     8  usbh_conf.o(i.HAL_HCD_Disconnect_Callback)
    HAL_HCD_GetCurrentFrame                  0x08000efd   Thumb Code     6  stm32f4xx_hal_hcd.o(i.HAL_HCD_GetCurrentFrame)
    HAL_HCD_GetCurrentSpeed                  0x08000f03   Thumb Code     6  stm32f4xx_hal_hcd.o(i.HAL_HCD_GetCurrentSpeed)
    HAL_HCD_HC_GetURBState                   0x08000f09   Thumb Code    18  stm32f4xx_hal_hcd.o(i.HAL_HCD_HC_GetURBState)
    HAL_HCD_HC_GetXferCount                  0x08000f1b   Thumb Code    16  stm32f4xx_hal_hcd.o(i.HAL_HCD_HC_GetXferCount)
    HAL_HCD_HC_Halt                          0x08000f2b   Thumb Code    36  stm32f4xx_hal_hcd.o(i.HAL_HCD_HC_Halt)
    HAL_HCD_HC_Init                          0x08000f4f   Thumb Code   118  stm32f4xx_hal_hcd.o(i.HAL_HCD_HC_Init)
    HAL_HCD_HC_NotifyURBChange_Callback      0x08000fc5   Thumb Code     8  usbh_conf.o(i.HAL_HCD_HC_NotifyURBChange_Callback)
    HAL_HCD_HC_SubmitRequest                 0x08000fcd   Thumb Code   154  stm32f4xx_hal_hcd.o(i.HAL_HCD_HC_SubmitRequest)
    HAL_HCD_IRQHandler                       0x08001067   Thumb Code   314  stm32f4xx_hal_hcd.o(i.HAL_HCD_IRQHandler)
    HAL_HCD_Init                             0x080011a1   Thumb Code   114  stm32f4xx_hal_hcd.o(i.HAL_HCD_Init)
    HAL_HCD_MspInit                          0x08001215   Thumb Code   140  usbh_conf.o(i.HAL_HCD_MspInit)
    HAL_HCD_PortDisabled_Callback            0x080012a9   Thumb Code     8  usbh_conf.o(i.HAL_HCD_PortDisabled_Callback)
    HAL_HCD_PortEnabled_Callback             0x080012b1   Thumb Code     8  usbh_conf.o(i.HAL_HCD_PortEnabled_Callback)
    HAL_HCD_ResetPort                        0x080012b9   Thumb Code     6  stm32f4xx_hal_hcd.o(i.HAL_HCD_ResetPort)
    HAL_HCD_SOF_Callback                     0x080012bf   Thumb Code     8  usbh_conf.o(i.HAL_HCD_SOF_Callback)
    HAL_HCD_Start                            0x080012c7   Thumb Code    44  stm32f4xx_hal_hcd.o(i.HAL_HCD_Start)
    HAL_HCD_Stop                             0x080012f3   Thumb Code    36  stm32f4xx_hal_hcd.o(i.HAL_HCD_Stop)
    HAL_I2C_Init                             0x08001319   Thumb Code   376  stm32f4xx_hal_i2c.o(i.HAL_I2C_Init)
    HAL_I2C_MspInit                          0x080014a1   Thumb Code    94  i2c.o(i.HAL_I2C_MspInit)
    HAL_I2SEx_FullDuplex_IRQHandler          0x0800150d   Thumb Code   492  stm32f4xx_hal_i2s_ex.o(i.HAL_I2SEx_FullDuplex_IRQHandler)
    HAL_I2SEx_TxRxCpltCallback               0x08001701   Thumb Code     2  stm32f4xx_hal_i2s_ex.o(i.HAL_I2SEx_TxRxCpltCallback)
    HAL_I2S_ErrorCallback                    0x08001703   Thumb Code     2  stm32f4xx_hal_i2s.o(i.HAL_I2S_ErrorCallback)
    HAL_I2S_Init                             0x08001705   Thumb Code   354  stm32f4xx_hal_i2s.o(i.HAL_I2S_Init)
    HAL_I2S_MspInit                          0x08001879   Thumb Code   158  i2s.o(i.HAL_I2S_MspInit)
    HAL_I2S_RxCpltCallback                   0x08001929   Thumb Code     2  stm32f4xx_hal_i2s.o(i.HAL_I2S_RxCpltCallback)
    HAL_I2S_TxCpltCallback                   0x0800192b   Thumb Code     2  stm32f4xx_hal_i2s.o(i.HAL_I2S_TxCpltCallback)
    HAL_IncTick                              0x0800192d   Thumb Code    12  stm32f4xx_hal.o(i.HAL_IncTick)
    HAL_Init                                 0x0800193d   Thumb Code    48  stm32f4xx_hal.o(i.HAL_Init)
    HAL_InitTick                             0x08001971   Thumb Code   134  stm32f4xx_hal_timebase_tim.o(i.HAL_InitTick)
    HAL_MspInit                              0x08001a09   Thumb Code    52  stm32f4xx_hal_msp.o(i.HAL_MspInit)
    HAL_NVIC_EnableIRQ                       0x08001a41   Thumb Code    26  stm32f4xx_hal_cortex.o(i.HAL_NVIC_EnableIRQ)
    HAL_NVIC_SetPriority                     0x08001a5d   Thumb Code    60  stm32f4xx_hal_cortex.o(i.HAL_NVIC_SetPriority)
    HAL_NVIC_SetPriorityGrouping             0x08001a9d   Thumb Code    26  stm32f4xx_hal_cortex.o(i.HAL_NVIC_SetPriorityGrouping)
    HAL_RCCEx_GetPeriphCLKFreq               0x08001ac1   Thumb Code    76  stm32f4xx_hal_rcc_ex.o(i.HAL_RCCEx_GetPeriphCLKFreq)
    HAL_RCCEx_PeriphCLKConfig                0x08001b1d   Thumb Code   296  stm32f4xx_hal_rcc_ex.o(i.HAL_RCCEx_PeriphCLKConfig)
    HAL_RCC_ClockConfig                      0x08001c59   Thumb Code   288  stm32f4xx_hal_rcc.o(i.HAL_RCC_ClockConfig)
    HAL_RCC_GetClockConfig                   0x08001d8d   Thumb Code    54  stm32f4xx_hal_rcc.o(i.HAL_RCC_GetClockConfig)
    HAL_RCC_GetPCLK1Freq                     0x08001dcd   Thumb Code    20  stm32f4xx_hal_rcc.o(i.HAL_RCC_GetPCLK1Freq)
    HAL_RCC_GetPCLK2Freq                     0x08001ded   Thumb Code    20  stm32f4xx_hal_rcc.o(i.HAL_RCC_GetPCLK2Freq)
    HAL_RCC_GetSysClockFreq                  0x08001e0d   Thumb Code    88  stm32f4xx_hal_rcc.o(i.HAL_RCC_GetSysClockFreq)
    HAL_RCC_OscConfig                        0x08001e6d   Thumb Code   856  stm32f4xx_hal_rcc.o(i.HAL_RCC_OscConfig)
    HAL_RTC_Init                             0x080021d9   Thumb Code   136  stm32f4xx_hal_rtc.o(i.HAL_RTC_Init)
    HAL_RTC_MspInit                          0x08002265   Thumb Code    48  rtc.o(i.HAL_RTC_MspInit)
    HAL_RTC_WaitForSynchro                   0x0800229d   Thumb Code    54  stm32f4xx_hal_rtc.o(i.HAL_RTC_WaitForSynchro)
    HAL_SPI_Init                             0x080022d3   Thumb Code   188  stm32f4xx_hal_spi.o(i.HAL_SPI_Init)
    HAL_SPI_MspInit                          0x08002391   Thumb Code   190  spi.o(i.HAL_SPI_MspInit)
    HAL_TIMEx_BreakCallback                  0x08002469   Thumb Code     2  stm32f4xx_hal_tim_ex.o(i.HAL_TIMEx_BreakCallback)
    HAL_TIMEx_CommutCallback                 0x0800246b   Thumb Code     2  stm32f4xx_hal_tim_ex.o(i.HAL_TIMEx_CommutCallback)
    HAL_TIMEx_ConfigBreakDeadTime            0x0800246d   Thumb Code    84  stm32f4xx_hal_tim_ex.o(i.HAL_TIMEx_ConfigBreakDeadTime)
    HAL_TIMEx_MasterConfigSynchronization    0x080024c1   Thumb Code   116  stm32f4xx_hal_tim_ex.o(i.HAL_TIMEx_MasterConfigSynchronization)
    HAL_TIM_Base_Init                        0x08002551   Thumb Code    90  stm32f4xx_hal_tim.o(i.HAL_TIM_Base_Init)
    HAL_TIM_Base_MspInit                     0x080025ab   Thumb Code     2  stm32f4xx_hal_tim.o(i.HAL_TIM_Base_MspInit)
    HAL_TIM_Base_Start_IT                    0x080025ad   Thumb Code   100  stm32f4xx_hal_tim.o(i.HAL_TIM_Base_Start_IT)
    HAL_TIM_IC_CaptureCallback               0x0800262d   Thumb Code     2  stm32f4xx_hal_tim.o(i.HAL_TIM_IC_CaptureCallback)
    HAL_TIM_IRQHandler                       0x0800262f   Thumb Code   358  stm32f4xx_hal_tim.o(i.HAL_TIM_IRQHandler)
    HAL_TIM_MspPostInit                      0x08002795   Thumb Code    72  tim.o(i.HAL_TIM_MspPostInit)
    HAL_TIM_OC_ConfigChannel                 0x080027e9   Thumb Code    82  stm32f4xx_hal_tim.o(i.HAL_TIM_OC_ConfigChannel)
    HAL_TIM_OC_DelayElapsedCallback          0x0800283b   Thumb Code     2  stm32f4xx_hal_tim.o(i.HAL_TIM_OC_DelayElapsedCallback)
    HAL_TIM_OC_Init                          0x0800283d   Thumb Code    90  stm32f4xx_hal_tim.o(i.HAL_TIM_OC_Init)
    HAL_TIM_OC_MspInit                       0x08002897   Thumb Code     2  stm32f4xx_hal_tim.o(i.HAL_TIM_OC_MspInit)
    HAL_TIM_PWM_ConfigChannel                0x08002899   Thumb Code   204  stm32f4xx_hal_tim.o(i.HAL_TIM_PWM_ConfigChannel)
    HAL_TIM_PWM_Init                         0x08002965   Thumb Code    90  stm32f4xx_hal_tim.o(i.HAL_TIM_PWM_Init)
    HAL_TIM_PWM_MspInit                      0x080029c1   Thumb Code    30  tim.o(i.HAL_TIM_PWM_MspInit)
    HAL_TIM_PWM_PulseFinishedCallback        0x080029e9   Thumb Code     2  stm32f4xx_hal_tim.o(i.HAL_TIM_PWM_PulseFinishedCallback)
    HAL_TIM_PeriodElapsedCallback            0x080029eb   Thumb Code    14  main.o(i.HAL_TIM_PeriodElapsedCallback)
    HAL_TIM_TriggerCallback                  0x080029f9   Thumb Code     2  stm32f4xx_hal_tim.o(i.HAL_TIM_TriggerCallback)
    HAL_UART_Init                            0x080029fb   Thumb Code    98  stm32f4xx_hal_uart.o(i.HAL_UART_Init)
    HAL_UART_MspInit                         0x08002a5d   Thumb Code   216  usart.o(i.HAL_UART_MspInit)
    HardFault_Handler                        0x08003073   Thumb Code     2  stm32f4xx_it.o(i.HardFault_Handler)
    MX_ADC1_Init                             0x08003229   Thumb Code    86  adc.o(i.MX_ADC1_Init)
    MX_DriverVbusFS                          0x0800328d   Thumb Code    16  usbh_platform.o(i.MX_DriverVbusFS)
    MX_FREERTOS_Init                         0x080032a1   Thumb Code   410  freertos.o(i.MX_FREERTOS_Init)
    MX_GPIO_Init                             0x08003449   Thumb Code   430  gpio.o(i.MX_GPIO_Init)
    MX_I2C1_Init                             0x08003611   Thumb Code    50  i2c.o(i.MX_I2C1_Init)
    MX_I2S3_Init                             0x08003651   Thumb Code    48  i2s.o(i.MX_I2S3_Init)
    MX_RTC_Init                              0x0800368d   Thumb Code    46  rtc.o(i.MX_RTC_Init)
    MX_SPI1_Init                             0x080036c5   Thumb Code    62  spi.o(i.MX_SPI1_Init)
    MX_SPI2_Init                             0x0800370d   Thumb Code    62  spi.o(i.MX_SPI2_Init)
    MX_TIM1_Init                             0x08003755   Thumb Code   214  tim.o(i.MX_TIM1_Init)
    MX_USART2_UART_Init                      0x08003835   Thumb Code    48  usart.o(i.MX_USART2_UART_Init)
    MX_USART3_UART_Init                      0x0800386d   Thumb Code    48  usart.o(i.MX_USART3_UART_Init)
    MX_USB_HOST_Init                         0x080038a5   Thumb Code    52  usb_host.o(i.MX_USB_HOST_Init)
    MemManage_Handler                        0x080038e5   Thumb Code     2  stm32f4xx_it.o(i.MemManage_Handler)
    NMI_Handler                              0x080038e7   Thumb Code     2  stm32f4xx_it.o(i.NMI_Handler)
    OTG_FS_IRQHandler                        0x080038e9   Thumb Code     6  stm32f4xx_it.o(i.OTG_FS_IRQHandler)
    RTC_EnterInitMode                        0x080038f5   Thumb Code    72  stm32f4xx_hal_rtc.o(i.RTC_EnterInitMode)
    RTC_ExitInitMode                         0x0800393d   Thumb Code    42  stm32f4xx_hal_rtc.o(i.RTC_ExitInitMode)
    StartDefaultTask                         0x08003967   Thumb Code    12  freertos.o(i.StartDefaultTask)
    Start_Controls_Task                      0x08003973   Thumb Code     8  freertos.o(i.Start_Controls_Task)
    Start_Debug_Task                         0x0800397b   Thumb Code     8  freertos.o(i.Start_Debug_Task)
    Start_Display_Task                       0x08003983   Thumb Code     8  freertos.o(i.Start_Display_Task)
    Start_Lights_Task                        0x0800398b   Thumb Code     8  freertos.o(i.Start_Lights_Task)
    Start_Location_Task                      0x08003993   Thumb Code     8  freertos.o(i.Start_Location_Task)
    Start_Logging_Task                       0x0800399b   Thumb Code     8  freertos.o(i.Start_Logging_Task)
    Start_Orientation_Task                   0x080039a3   Thumb Code     8  freertos.o(i.Start_Orientation_Task)
    Start_PWMDrive_Task                      0x080039ab   Thumb Code     8  freertos.o(i.Start_PWMDrive_Task)
    Start_TempHumidity_Task                  0x080039b3   Thumb Code     8  freertos.o(i.Start_TempHumidity_Task)
    SysTick_Handler                          0x080039bd   Thumb Code    38  port.o(i.SysTick_Handler)
    SystemClock_Config                       0x080039e9   Thumb Code   148  main.o(i.SystemClock_Config)
    SystemInit                               0x08003a85   Thumb Code    12  system_stm32f4xx.o(i.SystemInit)
    TIM2_IRQHandler                          0x08003a95   Thumb Code     6  stm32f4xx_it.o(i.TIM2_IRQHandler)
    TIM_Base_SetConfig                       0x08003aa1   Thumb Code   156  stm32f4xx_hal_tim.o(i.TIM_Base_SetConfig)
    TIM_OC2_SetConfig                        0x08003bc9   Thumb Code    98  stm32f4xx_hal_tim.o(i.TIM_OC2_SetConfig)
    USBH_AllocPipe                           0x08003df9   Thumb Code    56  usbh_pipes.o(i.USBH_AllocPipe)
    USBH_BulkReceiveData                     0x08003e31   Thumb Code    32  usbh_ioreq.o(i.USBH_BulkReceiveData)
    USBH_BulkSendData                        0x08003e51   Thumb Code    40  usbh_ioreq.o(i.USBH_BulkSendData)
    USBH_CDC_LineCodingChanged               0x0800403f   Thumb Code     2  usbh_cdc.o(i.USBH_CDC_LineCodingChanged)
    USBH_CDC_ReceiveCallback                 0x080040f9   Thumb Code     2  usbh_cdc.o(i.USBH_CDC_ReceiveCallback)
    USBH_CDC_TransmitCallback                0x080040ff   Thumb Code     2  usbh_cdc.o(i.USBH_CDC_TransmitCallback)
    USBH_ClosePipe                           0x08004101   Thumb Code    10  usbh_pipes.o(i.USBH_ClosePipe)
    USBH_ClrFeature                          0x0800410b   Thumb Code    30  usbh_ctlreq.o(i.USBH_ClrFeature)
    USBH_CtlReceiveData                      0x08004129   Thumb Code    30  usbh_ioreq.o(i.USBH_CtlReceiveData)
    USBH_CtlReq                              0x08004147   Thumb Code    88  usbh_ctlreq.o(i.USBH_CtlReq)
    USBH_CtlSendData                         0x0800419f   Thumb Code    40  usbh_ioreq.o(i.USBH_CtlSendData)
    USBH_CtlSendSetup                        0x080041c7   Thumb Code    30  usbh_ioreq.o(i.USBH_CtlSendSetup)
    USBH_Delay                               0x080041e5   Thumb Code     4  usbh_conf.o(i.USBH_Delay)
    USBH_FindInterface                       0x080041e9   Thumb Code    68  usbh_core.o(i.USBH_FindInterface)
    USBH_FreePipe                            0x0800422d   Thumb Code    24  usbh_pipes.o(i.USBH_FreePipe)
    USBH_GetDescriptor                       0x08004245   Thumb Code    52  usbh_ctlreq.o(i.USBH_GetDescriptor)
    USBH_GetNextDesc                         0x08004279   Thumb Code    14  usbh_ctlreq.o(i.USBH_GetNextDesc)
    USBH_Get_CfgDesc                         0x08004287   Thumb Code    44  usbh_ctlreq.o(i.USBH_Get_CfgDesc)
    USBH_Get_DevDesc                         0x080042b3   Thumb Code   168  usbh_ctlreq.o(i.USBH_Get_DevDesc)
    USBH_Get_StringDesc                      0x0800435b   Thumb Code    72  usbh_ctlreq.o(i.USBH_Get_StringDesc)
    USBH_Get_USB_Status                      0x080043a3   Thumb Code    24  usbh_conf.o(i.USBH_Get_USB_Status)
    USBH_Init                                0x080046f5   Thumb Code   112  usbh_core.o(i.USBH_Init)
    USBH_LL_ClosePipe                        0x08004769   Thumb Code    18  usbh_conf.o(i.USBH_LL_ClosePipe)
    USBH_LL_Connect                          0x0800477b   Thumb Code    34  usbh_core.o(i.USBH_LL_Connect)
    USBH_LL_Disconnect                       0x0800479d   Thumb Code    62  usbh_core.o(i.USBH_LL_Disconnect)
    USBH_LL_DriverVBUS                       0x080047db   Thumb Code    26  usbh_conf.o(i.USBH_LL_DriverVBUS)
    USBH_LL_GetLastXferSize                  0x080047f5   Thumb Code     8  usbh_conf.o(i.USBH_LL_GetLastXferSize)
    USBH_LL_GetSpeed                         0x080047fd   Thumb Code    34  usbh_conf.o(i.USBH_LL_GetSpeed)
    USBH_LL_GetURBState                      0x0800481f   Thumb Code     8  usbh_conf.o(i.USBH_LL_GetURBState)
    USBH_LL_IncTimer                         0x08004827   Thumb Code    30  usbh_core.o(i.USBH_LL_IncTimer)
    USBH_LL_Init                             0x08004845   Thumb Code    74  usbh_conf.o(i.USBH_LL_Init)
    USBH_LL_NotifyURBChange                  0x08004895   Thumb Code    22  usbh_core.o(i.USBH_LL_NotifyURBChange)
    USBH_LL_OpenPipe                         0x080048ab   Thumb Code    28  usbh_conf.o(i.USBH_LL_OpenPipe)
    USBH_LL_PortDisabled                     0x080048c7   Thumb Code     8  usbh_core.o(i.USBH_LL_PortDisabled)
    USBH_LL_PortEnabled                      0x080048cf   Thumb Code    20  usbh_core.o(i.USBH_LL_PortEnabled)
    USBH_LL_ResetPort                        0x080048e3   Thumb Code    18  usbh_conf.o(i.USBH_LL_ResetPort)
    USBH_LL_SetTimer                         0x080048f5   Thumb Code     6  usbh_core.o(i.USBH_LL_SetTimer)
    USBH_LL_SetToggle                        0x080048fb   Thumb Code    36  usbh_conf.o(i.USBH_LL_SetToggle)
    USBH_LL_Start                            0x0800491f   Thumb Code    18  usbh_conf.o(i.USBH_LL_Start)
    USBH_LL_Stop                             0x08004931   Thumb Code    18  usbh_conf.o(i.USBH_LL_Stop)
    USBH_LL_SubmitURB                        0x08004943   Thumb Code    34  usbh_conf.o(i.USBH_LL_SubmitURB)
    USBH_OpenPipe                            0x08004965   Thumb Code    20  usbh_pipes.o(i.USBH_OpenPipe)
    USBH_Process                             0x08004b33   Thumb Code   622  usbh_core.o(i.USBH_Process)
    USBH_RegisterClass                       0x08004dc3   Thumb Code    28  usbh_core.o(i.USBH_RegisterClass)
    USBH_SelectInterface                     0x08004ddf   Thumb Code    22  usbh_core.o(i.USBH_SelectInterface)
    USBH_SetAddress                          0x08004df5   Thumb Code    28  usbh_ctlreq.o(i.USBH_SetAddress)
    USBH_SetCfg                              0x08004e11   Thumb Code    28  usbh_ctlreq.o(i.USBH_SetCfg)
    USBH_SetFeature                          0x08004e2d   Thumb Code    28  usbh_ctlreq.o(i.USBH_SetFeature)
    USBH_Start                               0x08004e49   Thumb Code    20  usbh_core.o(i.USBH_Start)
    USB_CoreInit                             0x08004e7d   Thumb Code   112  stm32f4xx_ll_usb.o(i.USB_CoreInit)
    USB_DisableGlobalInt                     0x08004f31   Thumb Code    12  stm32f4xx_ll_usb.o(i.USB_DisableGlobalInt)
    USB_DoPing                               0x08004f3d   Thumb Code    30  stm32f4xx_ll_usb.o(i.USB_DoPing)
    USB_DriveVbus                            0x08004f61   Thumb Code    44  stm32f4xx_ll_usb.o(i.USB_DriveVbus)
    USB_EnableGlobalInt                      0x08004f8d   Thumb Code    12  stm32f4xx_ll_usb.o(i.USB_EnableGlobalInt)
    USB_FlushRxFifo                          0x08004f99   Thumb Code    54  stm32f4xx_ll_usb.o(i.USB_FlushRxFifo)
    USB_FlushTxFifo                          0x08004fd5   Thumb Code    58  stm32f4xx_ll_usb.o(i.USB_FlushTxFifo)
    USB_GetCurrentFrame                      0x08005015   Thumb Code     8  stm32f4xx_ll_usb.o(i.USB_GetCurrentFrame)
    USB_GetHostSpeed                         0x0800501d   Thumb Code    14  stm32f4xx_ll_usb.o(i.USB_GetHostSpeed)
    USB_GetMode                              0x0800502b   Thumb Code     8  stm32f4xx_ll_usb.o(i.USB_GetMode)
    USB_HC_Halt                              0x08005033   Thumb Code   196  stm32f4xx_ll_usb.o(i.USB_HC_Halt)
    USB_HC_Init                              0x080050f9   Thumb Code   266  stm32f4xx_ll_usb.o(i.USB_HC_Init)
    USB_HC_ReadInterrupt                     0x08005203   Thumb Code     8  stm32f4xx_ll_usb.o(i.USB_HC_ReadInterrupt)
    USB_HC_StartXfer                         0x0800520b   Thumb Code   320  stm32f4xx_ll_usb.o(i.USB_HC_StartXfer)
    USB_HostInit                             0x0800534d   Thumb Code   188  stm32f4xx_ll_usb.o(i.USB_HostInit)
    USB_InitFSLSPClkSel                      0x0800541d   Thumb Code    54  stm32f4xx_ll_usb.o(i.USB_InitFSLSPClkSel)
    USB_ReadInterrupts                       0x08005453   Thumb Code     8  stm32f4xx_ll_usb.o(i.USB_ReadInterrupts)
    USB_ReadPacket                           0x0800545b   Thumb Code    62  stm32f4xx_ll_usb.o(i.USB_ReadPacket)
    USB_ResetPort                            0x08005499   Thumb Code    50  stm32f4xx_ll_usb.o(i.USB_ResetPort)
    USB_SetCurrentMode                       0x080054cb   Thumb Code    92  stm32f4xx_ll_usb.o(i.USB_SetCurrentMode)
    USB_StopHost                             0x08005527   Thumb Code   138  stm32f4xx_ll_usb.o(i.USB_StopHost)
    USB_WritePacket                          0x080055b1   Thumb Code    40  stm32f4xx_ll_usb.o(i.USB_WritePacket)
    UsageFault_Handler                       0x080055d9   Thumb Code     2  stm32f4xx_it.o(i.UsageFault_Handler)
    main                                     0x08005609   Thumb Code    68  main.o(i.main)
    osDelay                                  0x0800565d   Thumb Code    14  cmsis_os.o(i.osDelay)
    osKernelStart                            0x0800566b   Thumb Code    10  cmsis_os.o(i.osKernelStart)
    osMessageCreate                          0x08005675   Thumb Code    38  cmsis_os.o(i.osMessageCreate)
    osMessageGet                             0x0800569d   Thumb Code   144  cmsis_os.o(i.osMessageGet)
    osMessagePut                             0x08005731   Thumb Code    86  cmsis_os.o(i.osMessagePut)
    osSemaphoreCreate                        0x0800578d   Thumb Code    62  cmsis_os.o(i.osSemaphoreCreate)
    osThreadCreate                           0x080057cb   Thumb Code    84  cmsis_os.o(i.osThreadCreate)
    pvPortMalloc                             0x08005ca1   Thumb Code   216  heap_4.o(i.pvPortMalloc)
    pxPortInitialiseStack                    0x08005d7d   Thumb Code    40  port.o(i.pxPortInitialiseStack)
    uxListRemove                             0x08005da9   Thumb Code    38  list.o(i.uxListRemove)
    vApplicationGetIdleTaskMemory            0x08005dd1   Thumb Code    16  freertos.o(i.vApplicationGetIdleTaskMemory)
    vListInitialise                          0x08005de5   Thumb Code    22  list.o(i.vListInitialise)
    vListInitialiseItem                      0x08005dfb   Thumb Code     6  list.o(i.vListInitialiseItem)
    vListInsert                              0x08005e01   Thumb Code    48  list.o(i.vListInsert)
    vListInsertEnd                           0x08005e31   Thumb Code    24  list.o(i.vListInsertEnd)
    vPortEnterCritical                       0x08005e49   Thumb Code    54  port.o(i.vPortEnterCritical)
    vPortExitCritical                        0x08005e89   Thumb Code    34  port.o(i.vPortExitCritical)
    vPortFree                                0x08005eb1   Thumb Code    94  heap_4.o(i.vPortFree)
    vPortSetupTimerInterrupt                 0x08005f15   Thumb Code    32  port.o(i.vPortSetupTimerInterrupt)
    vPortValidateInterruptPriority           0x08005f39   Thumb Code    74  port.o(i.vPortValidateInterruptPriority)
    vTaskDelay                               0x08005f8d   Thumb Code    66  tasks.o(i.vTaskDelay)
    vTaskInternalSetTimeOutState             0x08005fd9   Thumb Code    12  tasks.o(i.vTaskInternalSetTimeOutState)
    vTaskMissedYield                         0x08005fe9   Thumb Code     8  tasks.o(i.vTaskMissedYield)
    vTaskPlaceOnEventList                    0x08005ff5   Thumb Code    44  tasks.o(i.vTaskPlaceOnEventList)
    vTaskStartScheduler                      0x08006025   Thumb Code    90  tasks.o(i.vTaskStartScheduler)
    vTaskSuspendAll                          0x08006091   Thumb Code    10  tasks.o(i.vTaskSuspendAll)
    vTaskSwitchContext                       0x080060a1   Thumb Code    82  tasks.o(i.vTaskSwitchContext)
    xPortStartScheduler                      0x080060fd   Thumb Code   222  port.o(i.xPortStartScheduler)
    xQueueGenericCreate                      0x080061f1   Thumb Code    66  queue.o(i.xQueueGenericCreate)
    xQueueGenericCreateStatic                0x08006233   Thumb Code   102  queue.o(i.xQueueGenericCreateStatic)
    xQueueGenericReset                       0x08006299   Thumb Code   132  queue.o(i.xQueueGenericReset)
    xQueueGenericSend                        0x08006321   Thumb Code   346  queue.o(i.xQueueGenericSend)
    xQueueGenericSendFromISR                 0x08006481   Thumb Code   190  queue.o(i.xQueueGenericSendFromISR)
    xQueueReceive                            0x08006541   Thumb Code   308  queue.o(i.xQueueReceive)
    xQueueReceiveFromISR                     0x08006679   Thumb Code   154  queue.o(i.xQueueReceiveFromISR)
    xTaskCheckForTimeOut                     0x08006715   Thumb Code   112  tasks.o(i.xTaskCheckForTimeOut)
    xTaskCreate                              0x08006789   Thumb Code    90  tasks.o(i.xTaskCreate)
    xTaskCreateStatic                        0x080067e3   Thumb Code    86  tasks.o(i.xTaskCreateStatic)
    xTaskGetSchedulerState                   0x08006839   Thumb Code    22  tasks.o(i.xTaskGetSchedulerState)
    xTaskIncrementTick                       0x08006855   Thumb Code   194  tasks.o(i.xTaskIncrementTick)
    xTaskPriorityDisinherit                  0x08006921   Thumb Code   144  tasks.o(i.xTaskPriorityDisinherit)
    xTaskRemoveFromEventList                 0x080069b9   Thumb Code   108  tasks.o(i.xTaskRemoveFromEventList)
    xTaskResumeAll                           0x08006a2d   Thumb Code   182  tasks.o(i.xTaskResumeAll)
    _fp_init                                 0x08006af1   Thumb Code    10  fpinit.o(x$fpl$fpinit)
    __fplib_config_fpu_vfp                   0x08006af9   Thumb Code     0  fpinit.o(x$fpl$fpinit)
    __fplib_config_pureend_doubles           0x08006af9   Thumb Code     0  fpinit.o(x$fpl$fpinit)
    AHBPrescTable                            0x08006c64   Data          16  system_stm32f4xx.o(.constdata)
    APBPrescTable                            0x08006c74   Data           8  system_stm32f4xx.o(.constdata)
    Region$$Table$$Base                      0x08006d4c   Number         0  anon$$obj.o(Region$$Table)
    Region$$Table$$Limit                     0x08006d6c   Number         0  anon$$obj.o(Region$$Table)
    defaultTaskHandle                        0x20000000   Data           4  freertos.o(.data)
    Temp_Humidity_THandle                    0x20000004   Data           4  freertos.o(.data)
    PWM_Drive_TaskHandle                     0x20000008   Data           4  freertos.o(.data)
    Location_TaskHandle                      0x2000000c   Data           4  freertos.o(.data)
    Display_TaskHandle                       0x20000010   Data           4  freertos.o(.data)
    Logging_TaskHandle                       0x20000014   Data           4  freertos.o(.data)
    Debug_TaskHandle                         0x20000018   Data           4  freertos.o(.data)
    Lights_TaskHandle                        0x2000001c   Data           4  freertos.o(.data)
    Controls_TaskHandle                      0x20000020   Data           4  freertos.o(.data)
    Orientation_TasHandle                    0x20000024   Data           4  freertos.o(.data)
    Location_DisplayHandle                   0x20000028   Data           4  freertos.o(.data)
    TempHumid_DisplayHandle                  0x2000002c   Data           4  freertos.o(.data)
    Orient_DisplayHandle                     0x20000030   Data           4  freertos.o(.data)
    Contol_PwmHandle                         0x20000034   Data           4  freertos.o(.data)
    Lights_DisplayHandle                     0x20000038   Data           4  freertos.o(.data)
    I2C1_SemHandle                           0x2000003c   Data           4  freertos.o(.data)
    I2C2_SemHandle                           0x20000040   Data           4  freertos.o(.data)
    SPI1_SemHandle                           0x20000044   Data           4  freertos.o(.data)
    SPI2_SemHandle                           0x20000048   Data           4  freertos.o(.data)
    Appli_state                              0x2000004c   Data           1  usb_host.o(.data)
    uwTickFreq                               0x20000050   Data           1  stm32f4xx_hal.o(.data)
    uwTickPrio                               0x20000054   Data           4  stm32f4xx_hal.o(.data)
    uwTick                                   0x20000058   Data           4  stm32f4xx_hal.o(.data)
    SystemCoreClock                          0x2000005c   Data           4  system_stm32f4xx.o(.data)
    pxCurrentTCB                             0x20000060   Data           4  tasks.o(.data)
    CDC_Class                                0x200000c8   Data          32  usbh_cdc.o(.data)
    hadc1                                    0x2000033c   Data          72  adc.o(.bss)
    hi2c1                                    0x20000384   Data          84  i2c.o(.bss)
    hi2s3                                    0x200003d8   Data          72  i2s.o(.bss)
    hrtc                                     0x20000420   Data          32  rtc.o(.bss)
    hspi1                                    0x20000440   Data          88  spi.o(.bss)
    hspi2                                    0x20000498   Data          88  spi.o(.bss)
    htim1                                    0x200004f0   Data          72  tim.o(.bss)
    huart2                                   0x20000538   Data          68  usart.o(.bss)
    huart3                                   0x2000057c   Data          68  usart.o(.bss)
    htim2                                    0x200005c0   Data          72  stm32f4xx_hal_timebase_tim.o(.bss)
    hUsbHostFS                               0x20000608   Data         996  usb_host.o(.bss)
    hhcd_USB_OTG_FS                          0x200009ec   Data         772  usbh_conf.o(.bss)
    __libspace_start                         0x200049e0   Data          96  libspace.o(.bss)
    __temporary_stack_top$libspace           0x20004a40   Data           0  libspace.o(.bss)



==============================================================================

Memory Map of the image

  Image Entry point : 0x08000189

  Load Region LR_IROM1 (Base: 0x08000000, Size: 0x00006e54, Max: 0x00100000, ABSOLUTE)

    Execution Region ER_IROM1 (Exec base: 0x08000000, Load base: 0x08000000, Size: 0x00006d6c, Max: 0x00100000, ABSOLUTE)

    Exec Addr    Load Addr    Size         Type   Attr      Idx    E Section Name        Object

    0x08000000   0x08000000   0x00000188   Data   RO            3    RESET               startup_stm32f407xx.o
    0x08000188   0x08000188   0x00000008   Code   RO         7671  * !!!main             c_w.l(__main.o)
    0x08000190   0x08000190   0x00000034   Code   RO         7884    !!!scatter          c_w.l(__scatter.o)
    0x080001c4   0x080001c4   0x0000001a   Code   RO         7886    !!handler_copy      c_w.l(__scatter_copy.o)
    0x080001de   0x080001de   0x00000002   PAD
    0x080001e0   0x080001e0   0x0000001c   Code   RO         7888    !!handler_zi        c_w.l(__scatter_zi.o)
    0x080001fc   0x080001fc   0x00000002   Code   RO         7823    .ARM.Collect$$libinit$$00000000  c_w.l(libinit.o)
    0x080001fe   0x080001fe   0x00000004   Code   RO         7709    .ARM.Collect$$libinit$$00000001  c_w.l(libinit2.o)
    0x08000202   0x08000202   0x00000000   Code   RO         7712    .ARM.Collect$$libinit$$00000004  c_w.l(libinit2.o)
    0x08000202   0x08000202   0x00000008   Code   RO         7713    .ARM.Collect$$libinit$$00000005  c_w.l(libinit2.o)
    0x0800020a   0x0800020a   0x00000000   Code   RO         7715    .ARM.Collect$$libinit$$0000000A  c_w.l(libinit2.o)
    0x0800020a   0x0800020a   0x00000000   Code   RO         7717    .ARM.Collect$$libinit$$0000000C  c_w.l(libinit2.o)
    0x0800020a   0x0800020a   0x00000000   Code   RO         7719    .ARM.Collect$$libinit$$0000000E  c_w.l(libinit2.o)
    0x0800020a   0x0800020a   0x00000000   Code   RO         7722    .ARM.Collect$$libinit$$00000011  c_w.l(libinit2.o)
    0x0800020a   0x0800020a   0x00000000   Code   RO         7724    .ARM.Collect$$libinit$$00000013  c_w.l(libinit2.o)
    0x0800020a   0x0800020a   0x00000000   Code   RO         7726    .ARM.Collect$$libinit$$00000015  c_w.l(libinit2.o)
    0x0800020a   0x0800020a   0x00000000   Code   RO         7728    .ARM.Collect$$libinit$$00000017  c_w.l(libinit2.o)
    0x0800020a   0x0800020a   0x00000000   Code   RO         7730    .ARM.Collect$$libinit$$00000019  c_w.l(libinit2.o)
    0x0800020a   0x0800020a   0x00000000   Code   RO         7732    .ARM.Collect$$libinit$$0000001B  c_w.l(libinit2.o)
    0x0800020a   0x0800020a   0x00000000   Code   RO         7734    .ARM.Collect$$libinit$$0000001D  c_w.l(libinit2.o)
    0x0800020a   0x0800020a   0x00000000   Code   RO         7736    .ARM.Collect$$libinit$$0000001F  c_w.l(libinit2.o)
    0x0800020a   0x0800020a   0x00000000   Code   RO         7738    .ARM.Collect$$libinit$$00000021  c_w.l(libinit2.o)
    0x0800020a   0x0800020a   0x00000000   Code   RO         7740    .ARM.Collect$$libinit$$00000023  c_w.l(libinit2.o)
    0x0800020a   0x0800020a   0x00000000   Code   RO         7742    .ARM.Collect$$libinit$$00000025  c_w.l(libinit2.o)
    0x0800020a   0x0800020a   0x00000000   Code   RO         7746    .ARM.Collect$$libinit$$0000002C  c_w.l(libinit2.o)
    0x0800020a   0x0800020a   0x00000000   Code   RO         7748    .ARM.Collect$$libinit$$0000002E  c_w.l(libinit2.o)
    0x0800020a   0x0800020a   0x00000000   Code   RO         7750    .ARM.Collect$$libinit$$00000030  c_w.l(libinit2.o)
    0x0800020a   0x0800020a   0x00000000   Code   RO         7752    .ARM.Collect$$libinit$$00000032  c_w.l(libinit2.o)
    0x0800020a   0x0800020a   0x00000002   Code   RO         7753    .ARM.Collect$$libinit$$00000033  c_w.l(libinit2.o)
    0x0800020c   0x0800020c   0x00000002   Code   RO         7881    .ARM.Collect$$libshutdown$$00000000  c_w.l(libshutdown.o)
    0x0800020e   0x0800020e   0x00000000   Code   RO         7839    .ARM.Collect$$libshutdown$$00000002  c_w.l(libshutdown2.o)
    0x0800020e   0x0800020e   0x00000000   Code   RO         7841    .ARM.Collect$$libshutdown$$00000004  c_w.l(libshutdown2.o)
    0x0800020e   0x0800020e   0x00000000   Code   RO         7844    .ARM.Collect$$libshutdown$$00000007  c_w.l(libshutdown2.o)
    0x0800020e   0x0800020e   0x00000000   Code   RO         7847    .ARM.Collect$$libshutdown$$0000000A  c_w.l(libshutdown2.o)
    0x0800020e   0x0800020e   0x00000000   Code   RO         7849    .ARM.Collect$$libshutdown$$0000000C  c_w.l(libshutdown2.o)
    0x0800020e   0x0800020e   0x00000000   Code   RO         7852    .ARM.Collect$$libshutdown$$0000000F  c_w.l(libshutdown2.o)
    0x0800020e   0x0800020e   0x00000002   Code   RO         7853    .ARM.Collect$$libshutdown$$00000010  c_w.l(libshutdown2.o)
    0x08000210   0x08000210   0x00000000   Code   RO         7675    .ARM.Collect$$rtentry$$00000000  c_w.l(__rtentry.o)
    0x08000210   0x08000210   0x00000000   Code   RO         7760    .ARM.Collect$$rtentry$$00000002  c_w.l(__rtentry2.o)
    0x08000210   0x08000210   0x00000006   Code   RO         7772    .ARM.Collect$$rtentry$$00000004  c_w.l(__rtentry4.o)
    0x08000216   0x08000216   0x00000000   Code   RO         7762    .ARM.Collect$$rtentry$$00000009  c_w.l(__rtentry2.o)
    0x08000216   0x08000216   0x00000004   Code   RO         7763    .ARM.Collect$$rtentry$$0000000A  c_w.l(__rtentry2.o)
    0x0800021a   0x0800021a   0x00000000   Code   RO         7765    .ARM.Collect$$rtentry$$0000000C  c_w.l(__rtentry2.o)
    0x0800021a   0x0800021a   0x00000008   Code   RO         7766    .ARM.Collect$$rtentry$$0000000D  c_w.l(__rtentry2.o)
    0x08000222   0x08000222   0x00000002   Code   RO         7826    .ARM.Collect$$rtexit$$00000000  c_w.l(rtexit.o)
    0x08000224   0x08000224   0x00000000   Code   RO         7857    .ARM.Collect$$rtexit$$00000002  c_w.l(rtexit2.o)
    0x08000224   0x08000224   0x00000004   Code   RO         7858    .ARM.Collect$$rtexit$$00000003  c_w.l(rtexit2.o)
    0x08000228   0x08000228   0x00000006   Code   RO         7859    .ARM.Collect$$rtexit$$00000004  c_w.l(rtexit2.o)
    0x0800022e   0x0800022e   0x00000002   PAD
    0x08000230   0x08000230   0x000000be   Code   RO         7038    .emb_text           port.o
    0x080002ee   0x080002ee   0x00000002   PAD
    0x080002f0   0x080002f0   0x00000000   Code   RO         7778    .emb_text           c_w.l(maybetermalloc1.o)
    0x080002f0   0x080002f0   0x00000040   Code   RO            4    .text               startup_stm32f407xx.o
    0x08000330   0x08000330   0x0000005e   Code   RO         7601    .text               c_w.l(h1_alloc.o)
    0x0800038e   0x0800038e   0x0000004e   Code   RO         7603    .text               c_w.l(h1_free.o)
    0x080003dc   0x080003dc   0x000000ee   Code   RO         7659    .text               c_w.l(lludivv7m.o)
    0x080004ca   0x080004ca   0x0000008a   Code   RO         7661    .text               c_w.l(rt_memcpy_v6.o)
    0x08000554   0x08000554   0x00000064   Code   RO         7663    .text               c_w.l(rt_memcpy_w.o)
    0x080005b8   0x080005b8   0x0000004e   Code   RO         7667    .text               c_w.l(rt_memclr_w.o)
    0x08000606   0x08000606   0x00000006   Code   RO         7669    .text               c_w.l(heapauxi.o)
    0x0800060c   0x0800060c   0x00000008   Code   RO         7683    .text               c_w.l(rt_heap_descriptor_intlibspace.o)
    0x08000614   0x08000614   0x00000004   Code   RO         7685    .text               c_w.l(hguard.o)
    0x08000618   0x08000618   0x0000008a   Code   RO         7687    .text               c_w.l(init_alloc.o)
    0x080006a2   0x080006a2   0x0000000e   Code   RO         7691    .text               c_w.l(h1_init.o)
    0x080006b0   0x080006b0   0x00000008   Code   RO         7756    .text               c_w.l(libspace.o)
    0x080006b8   0x080006b8   0x00000034   Code   RO         7780    .text               c_w.l(h1_extend.o)
    0x080006ec   0x080006ec   0x0000000e   Code   RO         7784    .text               c_w.l(defsig_rtmem_outer.o)
    0x080006fa   0x080006fa   0x00000002   Code   RO         7795    .text               c_w.l(use_no_semi.o)
    0x080006fc   0x080006fc   0x00000000   Code   RO         7797    .text               c_w.l(indicate_semi.o)
    0x080006fc   0x080006fc   0x0000004a   Code   RO         7798    .text               c_w.l(sys_stackheap_outer.o)
    0x08000746   0x08000746   0x00000012   Code   RO         7804    .text               c_w.l(exit.o)
    0x08000758   0x08000758   0x0000000a   Code   RO         7806    .text               c_w.l(defsig_exit.o)
    0x08000762   0x08000762   0x00000002   PAD
    0x08000764   0x08000764   0x00000050   Code   RO         7812    .text               c_w.l(defsig_rtmem_inner.o)
    0x080007b4   0x080007b4   0x0000000c   Code   RO         7824    .text               c_w.l(sys_exit.o)
    0x080007c0   0x080007c0   0x00000032   Code   RO         7834    .text               c_w.l(defsig_general.o)
    0x080007f2   0x080007f2   0x0000000e   Code   RO         7854    .text               c_w.l(sys_wrch.o)
    0x08000800   0x08000800   0x00000128   Code   RO         2742    i.ADC_Init          stm32f4xx_hal_adc.o
    0x08000928   0x08000928   0x00000002   Code   RO          704    i.BusFault_Handler  stm32f4xx_it.o
    0x0800092a   0x0800092a   0x0000007c   Code   RO         7479    i.CDC_ProcessReception  usbh_cdc.o
    0x080009a6   0x080009a6   0x00000002   PAD
    0x080009a8   0x080009a8   0x00000088   Code   RO         7480    i.CDC_ProcessTransmission  usbh_cdc.o
    0x08000a30   0x08000a30   0x00000050   Code   RO         7118    i.DeInitStateMachine  usbh_core.o
    0x08000a80   0x08000a80   0x00000002   Code   RO          705    i.DebugMon_Handler  stm32f4xx_it.o
    0x08000a82   0x08000a82   0x00000004   Code   RO           13    i.Error_Handler     main.o
    0x08000a86   0x08000a86   0x00000016   Code   RO         7481    i.GetLineCoding     usbh_cdc.o
    0x08000a9c   0x08000a9c   0x0000014c   Code   RO         2744    i.HAL_ADC_ConfigChannel  stm32f4xx_hal_adc.o
    0x08000be8   0x08000be8   0x00000054   Code   RO         2753    i.HAL_ADC_Init      stm32f4xx_hal_adc.o
    0x08000c3c   0x08000c3c   0x00000084   Code   RO          393    i.HAL_ADC_MspInit   adc.o
    0x08000cc0   0x08000cc0   0x00000024   Code   RO         2488    i.HAL_Delay         stm32f4xx_hal.o
    0x08000ce4   0x08000ce4   0x000001f0   Code   RO         1962    i.HAL_GPIO_Init     stm32f4xx_hal_gpio.o
    0x08000ed4   0x08000ed4   0x0000000a   Code   RO         1966    i.HAL_GPIO_WritePin  stm32f4xx_hal_gpio.o
    0x08000ede   0x08000ede   0x00000002   PAD
    0x08000ee0   0x08000ee0   0x0000000c   Code   RO         2494    i.HAL_GetTick       stm32f4xx_hal.o
    0x08000eec   0x08000eec   0x00000008   Code   RO          903    i.HAL_HCD_Connect_Callback  usbh_conf.o
    0x08000ef4   0x08000ef4   0x00000008   Code   RO          904    i.HAL_HCD_Disconnect_Callback  usbh_conf.o
    0x08000efc   0x08000efc   0x00000006   Code   RO         1123    i.HAL_HCD_GetCurrentFrame  stm32f4xx_hal_hcd.o
    0x08000f02   0x08000f02   0x00000006   Code   RO         1124    i.HAL_HCD_GetCurrentSpeed  stm32f4xx_hal_hcd.o
    0x08000f08   0x08000f08   0x00000012   Code   RO         1127    i.HAL_HCD_HC_GetURBState  stm32f4xx_hal_hcd.o
    0x08000f1a   0x08000f1a   0x00000010   Code   RO         1128    i.HAL_HCD_HC_GetXferCount  stm32f4xx_hal_hcd.o
    0x08000f2a   0x08000f2a   0x00000024   Code   RO         1129    i.HAL_HCD_HC_Halt   stm32f4xx_hal_hcd.o
    0x08000f4e   0x08000f4e   0x00000076   Code   RO         1130    i.HAL_HCD_HC_Init   stm32f4xx_hal_hcd.o
    0x08000fc4   0x08000fc4   0x00000008   Code   RO          905    i.HAL_HCD_HC_NotifyURBChange_Callback  usbh_conf.o
    0x08000fcc   0x08000fcc   0x0000009a   Code   RO         1132    i.HAL_HCD_HC_SubmitRequest  stm32f4xx_hal_hcd.o
    0x08001066   0x08001066   0x0000013a   Code   RO         1133    i.HAL_HCD_IRQHandler  stm32f4xx_hal_hcd.o
    0x080011a0   0x080011a0   0x00000072   Code   RO         1134    i.HAL_HCD_Init      stm32f4xx_hal_hcd.o
    0x08001212   0x08001212   0x00000002   PAD
    0x08001214   0x08001214   0x00000094   Code   RO          907    i.HAL_HCD_MspInit   usbh_conf.o
    0x080012a8   0x080012a8   0x00000008   Code   RO          908    i.HAL_HCD_PortDisabled_Callback  usbh_conf.o
    0x080012b0   0x080012b0   0x00000008   Code   RO          909    i.HAL_HCD_PortEnabled_Callback  usbh_conf.o
    0x080012b8   0x080012b8   0x00000006   Code   RO         1139    i.HAL_HCD_ResetPort  stm32f4xx_hal_hcd.o
    0x080012be   0x080012be   0x00000008   Code   RO          910    i.HAL_HCD_SOF_Callback  usbh_conf.o
    0x080012c6   0x080012c6   0x0000002c   Code   RO         1141    i.HAL_HCD_Start     stm32f4xx_hal_hcd.o
    0x080012f2   0x080012f2   0x00000024   Code   RO         1142    i.HAL_HCD_Stop      stm32f4xx_hal_hcd.o
    0x08001316   0x08001316   0x00000002   PAD
    0x08001318   0x08001318   0x00000188   Code   RO         3028    i.HAL_I2C_Init      stm32f4xx_hal_i2c.o
    0x080014a0   0x080014a0   0x0000006c   Code   RO          435    i.HAL_I2C_MspInit   i2c.o
    0x0800150c   0x0800150c   0x000001f4   Code   RO         3646    i.HAL_I2SEx_FullDuplex_IRQHandler  stm32f4xx_hal_i2s_ex.o
    0x08001700   0x08001700   0x00000002   Code   RO         3650    i.HAL_I2SEx_TxRxCpltCallback  stm32f4xx_hal_i2s_ex.o
    0x08001702   0x08001702   0x00000002   Code   RO         3471    i.HAL_I2S_ErrorCallback  stm32f4xx_hal_i2s.o
    0x08001704   0x08001704   0x00000174   Code   RO         3475    i.HAL_I2S_Init      stm32f4xx_hal_i2s.o
    0x08001878   0x08001878   0x000000b0   Code   RO          477    i.HAL_I2S_MspInit   i2s.o
    0x08001928   0x08001928   0x00000002   Code   RO         3481    i.HAL_I2S_RxCpltCallback  stm32f4xx_hal_i2s.o
    0x0800192a   0x0800192a   0x00000002   Code   RO         3486    i.HAL_I2S_TxCpltCallback  stm32f4xx_hal_i2s.o
    0x0800192c   0x0800192c   0x00000010   Code   RO         2500    i.HAL_IncTick       stm32f4xx_hal.o
    0x0800193c   0x0800193c   0x00000034   Code   RO         2501    i.HAL_Init          stm32f4xx_hal.o
    0x08001970   0x08001970   0x00000098   Code   RO          798    i.HAL_InitTick      stm32f4xx_hal_timebase_tim.o
    0x08001a08   0x08001a08   0x00000038   Code   RO          774    i.HAL_MspInit       stm32f4xx_hal_msp.o
    0x08001a40   0x08001a40   0x0000001a   Code   RO         2351    i.HAL_NVIC_EnableIRQ  stm32f4xx_hal_cortex.o
    0x08001a5a   0x08001a5a   0x00000002   PAD
    0x08001a5c   0x08001a5c   0x00000040   Code   RO         2357    i.HAL_NVIC_SetPriority  stm32f4xx_hal_cortex.o
    0x08001a9c   0x08001a9c   0x00000024   Code   RO         2358    i.HAL_NVIC_SetPriorityGrouping  stm32f4xx_hal_cortex.o
    0x08001ac0   0x08001ac0   0x0000005c   Code   RO         1712    i.HAL_RCCEx_GetPeriphCLKFreq  stm32f4xx_hal_rcc_ex.o
    0x08001b1c   0x08001b1c   0x0000013c   Code   RO         1713    i.HAL_RCCEx_PeriphCLKConfig  stm32f4xx_hal_rcc_ex.o
    0x08001c58   0x08001c58   0x00000134   Code   RO         1608    i.HAL_RCC_ClockConfig  stm32f4xx_hal_rcc.o
    0x08001d8c   0x08001d8c   0x00000040   Code   RO         1612    i.HAL_RCC_GetClockConfig  stm32f4xx_hal_rcc.o
    0x08001dcc   0x08001dcc   0x00000020   Code   RO         1615    i.HAL_RCC_GetPCLK1Freq  stm32f4xx_hal_rcc.o
    0x08001dec   0x08001dec   0x00000020   Code   RO         1616    i.HAL_RCC_GetPCLK2Freq  stm32f4xx_hal_rcc.o
    0x08001e0c   0x08001e0c   0x00000060   Code   RO         1617    i.HAL_RCC_GetSysClockFreq  stm32f4xx_hal_rcc.o
    0x08001e6c   0x08001e6c   0x0000036c   Code   RO         1620    i.HAL_RCC_OscConfig  stm32f4xx_hal_rcc.o
    0x080021d8   0x080021d8   0x0000008c   Code   RO         3743    i.HAL_RTC_Init      stm32f4xx_hal_rtc.o
    0x08002264   0x08002264   0x00000038   Code   RO          519    i.HAL_RTC_MspInit   rtc.o
    0x0800229c   0x0800229c   0x00000036   Code   RO         3751    i.HAL_RTC_WaitForSynchro  stm32f4xx_hal_rtc.o
    0x080022d2   0x080022d2   0x000000bc   Code   RO         4142    i.HAL_SPI_Init      stm32f4xx_hal_spi.o
    0x0800238e   0x0800238e   0x00000002   PAD
    0x08002390   0x08002390   0x000000d8   Code   RO          561    i.HAL_SPI_MspInit   spi.o
    0x08002468   0x08002468   0x00000002   Code   RO         5159    i.HAL_TIMEx_BreakCallback  stm32f4xx_hal_tim_ex.o
    0x0800246a   0x0800246a   0x00000002   Code   RO         5160    i.HAL_TIMEx_CommutCallback  stm32f4xx_hal_tim_ex.o
    0x0800246c   0x0800246c   0x00000054   Code   RO         5162    i.HAL_TIMEx_ConfigBreakDeadTime  stm32f4xx_hal_tim_ex.o
    0x080024c0   0x080024c0   0x00000090   Code   RO         5178    i.HAL_TIMEx_MasterConfigSynchronization  stm32f4xx_hal_tim_ex.o
    0x08002550   0x08002550   0x0000005a   Code   RO         4455    i.HAL_TIM_Base_Init  stm32f4xx_hal_tim.o
    0x080025aa   0x080025aa   0x00000002   Code   RO         4457    i.HAL_TIM_Base_MspInit  stm32f4xx_hal_tim.o
    0x080025ac   0x080025ac   0x00000080   Code   RO         4460    i.HAL_TIM_Base_Start_IT  stm32f4xx_hal_tim.o
    0x0800262c   0x0800262c   0x00000002   Code   RO         4489    i.HAL_TIM_IC_CaptureCallback  stm32f4xx_hal_tim.o
    0x0800262e   0x0800262e   0x00000166   Code   RO         4503    i.HAL_TIM_IRQHandler  stm32f4xx_hal_tim.o
    0x08002794   0x08002794   0x00000054   Code   RO          608    i.HAL_TIM_MspPostInit  tim.o
    0x080027e8   0x080027e8   0x00000052   Code   RO         4504    i.HAL_TIM_OC_ConfigChannel  stm32f4xx_hal_tim.o
    0x0800283a   0x0800283a   0x00000002   Code   RO         4506    i.HAL_TIM_OC_DelayElapsedCallback  stm32f4xx_hal_tim.o
    0x0800283c   0x0800283c   0x0000005a   Code   RO         4508    i.HAL_TIM_OC_Init   stm32f4xx_hal_tim.o
    0x08002896   0x08002896   0x00000002   Code   RO         4510    i.HAL_TIM_OC_MspInit  stm32f4xx_hal_tim.o
    0x08002898   0x08002898   0x000000cc   Code   RO         4527    i.HAL_TIM_PWM_ConfigChannel  stm32f4xx_hal_tim.o
    0x08002964   0x08002964   0x0000005a   Code   RO         4530    i.HAL_TIM_PWM_Init  stm32f4xx_hal_tim.o
    0x080029be   0x080029be   0x00000002   PAD
    0x080029c0   0x080029c0   0x00000028   Code   RO          610    i.HAL_TIM_PWM_MspInit  tim.o
    0x080029e8   0x080029e8   0x00000002   Code   RO         4533    i.HAL_TIM_PWM_PulseFinishedCallback  stm32f4xx_hal_tim.o
    0x080029ea   0x080029ea   0x0000000e   Code   RO           14    i.HAL_TIM_PeriodElapsedCallback  main.o
    0x080029f8   0x080029f8   0x00000002   Code   RO         4546    i.HAL_TIM_TriggerCallback  stm32f4xx_hal_tim.o
    0x080029fa   0x080029fa   0x00000062   Code   RO         5455    i.HAL_UART_Init     stm32f4xx_hal_uart.o
    0x08002a5c   0x08002a5c   0x000000f0   Code   RO          657    i.HAL_UART_MspInit  usart.o
    0x08002b4c   0x08002b4c   0x000001ea   Code   RO         1144    i.HCD_HC_IN_IRQHandler  stm32f4xx_hal_hcd.o
    0x08002d36   0x08002d36   0x0000021c   Code   RO         1145    i.HCD_HC_OUT_IRQHandler  stm32f4xx_hal_hcd.o
    0x08002f52   0x08002f52   0x00000094   Code   RO         1146    i.HCD_Port_IRQHandler  stm32f4xx_hal_hcd.o
    0x08002fe6   0x08002fe6   0x0000008c   Code   RO         1147    i.HCD_RXQLVL_IRQHandler  stm32f4xx_hal_hcd.o
    0x08003072   0x08003072   0x00000002   Code   RO          706    i.HardFault_Handler  stm32f4xx_it.o
    0x08003074   0x08003074   0x00000060   Code   RO         3653    i.I2SEx_RxISR_I2SExt  stm32f4xx_hal_i2s_ex.o
    0x080030d4   0x080030d4   0x00000060   Code   RO         3654    i.I2SEx_TxISR_I2SExt  stm32f4xx_hal_i2s_ex.o
    0x08003134   0x08003134   0x000000f2   Code   RO         3493    i.I2S_IRQHandler    stm32f4xx_hal_i2s.o
    0x08003226   0x08003226   0x00000002   PAD
    0x08003228   0x08003228   0x00000064   Code   RO          394    i.MX_ADC1_Init      adc.o
    0x0800328c   0x0800328c   0x00000014   Code   RO         1096    i.MX_DriverVbusFS   usbh_platform.o
    0x080032a0   0x080032a0   0x000001a8   Code   RO          288    i.MX_FREERTOS_Init  freertos.o
    0x08003448   0x08003448   0x000001c8   Code   RO          264    i.MX_GPIO_Init      gpio.o
    0x08003610   0x08003610   0x00000040   Code   RO          436    i.MX_I2C1_Init      i2c.o
    0x08003650   0x08003650   0x0000003c   Code   RO          478    i.MX_I2S3_Init      i2s.o
    0x0800368c   0x0800368c   0x00000038   Code   RO          520    i.MX_RTC_Init       rtc.o
    0x080036c4   0x080036c4   0x00000048   Code   RO          562    i.MX_SPI1_Init      spi.o
    0x0800370c   0x0800370c   0x00000048   Code   RO          563    i.MX_SPI2_Init      spi.o
    0x08003754   0x08003754   0x000000e0   Code   RO          611    i.MX_TIM1_Init      tim.o
    0x08003834   0x08003834   0x00000038   Code   RO          658    i.MX_USART2_UART_Init  usart.o
    0x0800386c   0x0800386c   0x00000038   Code   RO          659    i.MX_USART3_UART_Init  usart.o
    0x080038a4   0x080038a4   0x00000040   Code   RO          837    i.MX_USB_HOST_Init  usb_host.o
    0x080038e4   0x080038e4   0x00000002   Code   RO          707    i.MemManage_Handler  stm32f4xx_it.o
    0x080038e6   0x080038e6   0x00000002   Code   RO          708    i.NMI_Handler       stm32f4xx_it.o
    0x080038e8   0x080038e8   0x0000000c   Code   RO          709    i.OTG_FS_IRQHandler  stm32f4xx_it.o
    0x080038f4   0x080038f4   0x00000048   Code   RO         3754    i.RTC_EnterInitMode  stm32f4xx_hal_rtc.o
    0x0800393c   0x0800393c   0x0000002a   Code   RO         3755    i.RTC_ExitInitMode  stm32f4xx_hal_rtc.o
    0x08003966   0x08003966   0x0000000c   Code   RO          289    i.StartDefaultTask  freertos.o
    0x08003972   0x08003972   0x00000008   Code   RO          290    i.Start_Controls_Task  freertos.o
    0x0800397a   0x0800397a   0x00000008   Code   RO          291    i.Start_Debug_Task  freertos.o
    0x08003982   0x08003982   0x00000008   Code   RO          292    i.Start_Display_Task  freertos.o
    0x0800398a   0x0800398a   0x00000008   Code   RO          293    i.Start_Lights_Task  freertos.o
    0x08003992   0x08003992   0x00000008   Code   RO          294    i.Start_Location_Task  freertos.o
    0x0800399a   0x0800399a   0x00000008   Code   RO          295    i.Start_Logging_Task  freertos.o
    0x080039a2   0x080039a2   0x00000008   Code   RO          296    i.Start_Orientation_Task  freertos.o
    0x080039aa   0x080039aa   0x00000008   Code   RO          297    i.Start_PWMDrive_Task  freertos.o
    0x080039b2   0x080039b2   0x00000008   Code   RO          298    i.Start_TempHumidity_Task  freertos.o
    0x080039ba   0x080039ba   0x00000002   PAD
    0x080039bc   0x080039bc   0x0000002c   Code   RO         7039    i.SysTick_Handler   port.o
    0x080039e8   0x080039e8   0x0000009c   Code   RO           15    i.SystemClock_Config  main.o
    0x08003a84   0x08003a84   0x00000010   Code   RO         5784    i.SystemInit        system_stm32f4xx.o
    0x08003a94   0x08003a94   0x0000000c   Code   RO          710    i.TIM2_IRQHandler   stm32f4xx_it.o
    0x08003aa0   0x08003aa0   0x000000c8   Code   RO         4548    i.TIM_Base_SetConfig  stm32f4xx_hal_tim.o
    0x08003b68   0x08003b68   0x00000060   Code   RO         4561    i.TIM_OC1_SetConfig  stm32f4xx_hal_tim.o
    0x08003bc8   0x08003bc8   0x0000006c   Code   RO         4562    i.TIM_OC2_SetConfig  stm32f4xx_hal_tim.o
    0x08003c34   0x08003c34   0x00000068   Code   RO         4563    i.TIM_OC3_SetConfig  stm32f4xx_hal_tim.o
    0x08003c9c   0x08003c9c   0x00000050   Code   RO         4564    i.TIM_OC4_SetConfig  stm32f4xx_hal_tim.o
    0x08003cec   0x08003cec   0x0000010c   Code   RO         5481    i.UART_SetConfig    stm32f4xx_hal_uart.o
    0x08003df8   0x08003df8   0x00000038   Code   RO         7437    i.USBH_AllocPipe    usbh_pipes.o
    0x08003e30   0x08003e30   0x00000020   Code   RO         7365    i.USBH_BulkReceiveData  usbh_ioreq.o
    0x08003e50   0x08003e50   0x00000028   Code   RO         7366    i.USBH_BulkSendData  usbh_ioreq.o
    0x08003e78   0x08003e78   0x00000024   Code   RO         7482    i.USBH_CDC_ClassRequest  usbh_cdc.o
    0x08003e9c   0x08003e9c   0x0000005e   Code   RO         7485    i.USBH_CDC_InterfaceDeInit  usbh_cdc.o
    0x08003efa   0x08003efa   0x00000144   Code   RO         7486    i.USBH_CDC_InterfaceInit  usbh_cdc.o
    0x0800403e   0x0800403e   0x00000002   Code   RO         7487    i.USBH_CDC_LineCodingChanged  usbh_cdc.o
    0x08004040   0x08004040   0x000000b8   Code   RO         7488    i.USBH_CDC_Process  usbh_cdc.o
    0x080040f8   0x080040f8   0x00000002   Code   RO         7490    i.USBH_CDC_ReceiveCallback  usbh_cdc.o
    0x080040fa   0x080040fa   0x00000004   Code   RO         7491    i.USBH_CDC_SOFProcess  usbh_cdc.o
    0x080040fe   0x080040fe   0x00000002   Code   RO         7495    i.USBH_CDC_TransmitCallback  usbh_cdc.o
    0x08004100   0x08004100   0x0000000a   Code   RO         7438    i.USBH_ClosePipe    usbh_pipes.o
    0x0800410a   0x0800410a   0x0000001e   Code   RO         7266    i.USBH_ClrFeature   usbh_ctlreq.o
    0x08004128   0x08004128   0x0000001e   Code   RO         7367    i.USBH_CtlReceiveData  usbh_ioreq.o
    0x08004146   0x08004146   0x00000058   Code   RO         7267    i.USBH_CtlReq       usbh_ctlreq.o
    0x0800419e   0x0800419e   0x00000028   Code   RO         7368    i.USBH_CtlSendData  usbh_ioreq.o
    0x080041c6   0x080041c6   0x0000001e   Code   RO         7369    i.USBH_CtlSendSetup  usbh_ioreq.o
    0x080041e4   0x080041e4   0x00000004   Code   RO          911    i.USBH_Delay        usbh_conf.o
    0x080041e8   0x080041e8   0x00000044   Code   RO         7120    i.USBH_FindInterface  usbh_core.o
    0x0800422c   0x0800422c   0x00000018   Code   RO         7439    i.USBH_FreePipe     usbh_pipes.o
    0x08004244   0x08004244   0x00000034   Code   RO         7268    i.USBH_GetDescriptor  usbh_ctlreq.o
    0x08004278   0x08004278   0x0000000e   Code   RO         7269    i.USBH_GetNextDesc  usbh_ctlreq.o
    0x08004286   0x08004286   0x0000002c   Code   RO         7270    i.USBH_Get_CfgDesc  usbh_ctlreq.o
    0x080042b2   0x080042b2   0x000000a8   Code   RO         7271    i.USBH_Get_DevDesc  usbh_ctlreq.o
    0x0800435a   0x0800435a   0x00000048   Code   RO         7272    i.USBH_Get_StringDesc  usbh_ctlreq.o
    0x080043a2   0x080043a2   0x00000018   Code   RO          912    i.USBH_Get_USB_Status  usbh_conf.o
    0x080043ba   0x080043ba   0x00000002   PAD
    0x080043bc   0x080043bc   0x000001a6   Code   RO         7273    i.USBH_HandleControl  usbh_ctlreq.o
    0x08004562   0x08004562   0x00000002   PAD
    0x08004564   0x08004564   0x00000190   Code   RO         7123    i.USBH_HandleEnum   usbh_core.o
    0x080046f4   0x080046f4   0x00000074   Code   RO         7124    i.USBH_Init         usbh_core.o
    0x08004768   0x08004768   0x00000012   Code   RO          913    i.USBH_LL_ClosePipe  usbh_conf.o
    0x0800477a   0x0800477a   0x00000022   Code   RO         7126    i.USBH_LL_Connect   usbh_core.o
    0x0800479c   0x0800479c   0x0000003e   Code   RO         7127    i.USBH_LL_Disconnect  usbh_core.o
    0x080047da   0x080047da   0x0000001a   Code   RO          915    i.USBH_LL_DriverVBUS  usbh_conf.o
    0x080047f4   0x080047f4   0x00000008   Code   RO          916    i.USBH_LL_GetLastXferSize  usbh_conf.o
    0x080047fc   0x080047fc   0x00000022   Code   RO          917    i.USBH_LL_GetSpeed  usbh_conf.o
    0x0800481e   0x0800481e   0x00000008   Code   RO          919    i.USBH_LL_GetURBState  usbh_conf.o
    0x08004826   0x08004826   0x0000001e   Code   RO         7128    i.USBH_LL_IncTimer  usbh_core.o
    0x08004844   0x08004844   0x00000050   Code   RO          920    i.USBH_LL_Init      usbh_conf.o
    0x08004894   0x08004894   0x00000016   Code   RO         7129    i.USBH_LL_NotifyURBChange  usbh_core.o
    0x080048aa   0x080048aa   0x0000001c   Code   RO          921    i.USBH_LL_OpenPipe  usbh_conf.o
    0x080048c6   0x080048c6   0x00000008   Code   RO         7130    i.USBH_LL_PortDisabled  usbh_core.o
    0x080048ce   0x080048ce   0x00000014   Code   RO         7131    i.USBH_LL_PortEnabled  usbh_core.o
    0x080048e2   0x080048e2   0x00000012   Code   RO          922    i.USBH_LL_ResetPort  usbh_conf.o
    0x080048f4   0x080048f4   0x00000006   Code   RO         7132    i.USBH_LL_SetTimer  usbh_core.o
    0x080048fa   0x080048fa   0x00000024   Code   RO          923    i.USBH_LL_SetToggle  usbh_conf.o
    0x0800491e   0x0800491e   0x00000012   Code   RO          924    i.USBH_LL_Start     usbh_conf.o
    0x08004930   0x08004930   0x00000012   Code   RO          925    i.USBH_LL_Stop      usbh_conf.o
    0x08004942   0x08004942   0x00000022   Code   RO          926    i.USBH_LL_SubmitURB  usbh_conf.o
    0x08004964   0x08004964   0x00000014   Code   RO         7440    i.USBH_OpenPipe     usbh_pipes.o
    0x08004978   0x08004978   0x0000014c   Code   RO         7274    i.USBH_ParseCfgDesc  usbh_ctlreq.o
    0x08004ac4   0x08004ac4   0x0000006e   Code   RO         7275    i.USBH_ParseEPDesc  usbh_ctlreq.o
    0x08004b32   0x08004b32   0x0000026e   Code   RO         7133    i.USBH_Process      usbh_core.o
    0x08004da0   0x08004da0   0x00000022   Code   RO         7134    i.USBH_Process_OS   usbh_core.o
    0x08004dc2   0x08004dc2   0x0000001c   Code   RO         7136    i.USBH_RegisterClass  usbh_core.o
    0x08004dde   0x08004dde   0x00000016   Code   RO         7137    i.USBH_SelectInterface  usbh_core.o
    0x08004df4   0x08004df4   0x0000001c   Code   RO         7276    i.USBH_SetAddress   usbh_ctlreq.o
    0x08004e10   0x08004e10   0x0000001c   Code   RO         7277    i.USBH_SetCfg       usbh_ctlreq.o
    0x08004e2c   0x08004e2c   0x0000001c   Code   RO         7278    i.USBH_SetFeature   usbh_ctlreq.o
    0x08004e48   0x08004e48   0x00000014   Code   RO         7138    i.USBH_Start        usbh_core.o
    0x08004e5c   0x08004e5c   0x00000020   Code   RO          838    i.USBH_UserProcess  usb_host.o
    0x08004e7c   0x08004e7c   0x00000074   Code   RO         1307    i.USB_CoreInit      stm32f4xx_ll_usb.o
    0x08004ef0   0x08004ef0   0x00000040   Code   RO         1308    i.USB_CoreReset     stm32f4xx_ll_usb.o
    0x08004f30   0x08004f30   0x0000000c   Code   RO         1315    i.USB_DisableGlobalInt  stm32f4xx_ll_usb.o
    0x08004f3c   0x08004f3c   0x00000024   Code   RO         1316    i.USB_DoPing        stm32f4xx_ll_usb.o
    0x08004f60   0x08004f60   0x0000002c   Code   RO         1317    i.USB_DriveVbus     stm32f4xx_ll_usb.o
    0x08004f8c   0x08004f8c   0x0000000c   Code   RO         1324    i.USB_EnableGlobalInt  stm32f4xx_ll_usb.o
    0x08004f98   0x08004f98   0x0000003c   Code   RO         1325    i.USB_FlushRxFifo   stm32f4xx_ll_usb.o
    0x08004fd4   0x08004fd4   0x00000040   Code   RO         1326    i.USB_FlushTxFifo   stm32f4xx_ll_usb.o
    0x08005014   0x08005014   0x00000008   Code   RO         1327    i.USB_GetCurrentFrame  stm32f4xx_ll_usb.o
    0x0800501c   0x0800501c   0x0000000e   Code   RO         1329    i.USB_GetHostSpeed  stm32f4xx_ll_usb.o
    0x0800502a   0x0800502a   0x00000008   Code   RO         1330    i.USB_GetMode       stm32f4xx_ll_usb.o
    0x08005032   0x08005032   0x000000c4   Code   RO         1331    i.USB_HC_Halt       stm32f4xx_ll_usb.o
    0x080050f6   0x080050f6   0x00000002   PAD
    0x080050f8   0x080050f8   0x0000010a   Code   RO         1332    i.USB_HC_Init       stm32f4xx_ll_usb.o
    0x08005202   0x08005202   0x00000008   Code   RO         1333    i.USB_HC_ReadInterrupt  stm32f4xx_ll_usb.o
    0x0800520a   0x0800520a   0x00000140   Code   RO         1334    i.USB_HC_StartXfer  stm32f4xx_ll_usb.o
    0x0800534a   0x0800534a   0x00000002   PAD
    0x0800534c   0x0800534c   0x000000d0   Code   RO         1335    i.USB_HostInit      stm32f4xx_ll_usb.o
    0x0800541c   0x0800541c   0x00000036   Code   RO         1336    i.USB_InitFSLSPClkSel  stm32f4xx_ll_usb.o
    0x08005452   0x08005452   0x00000008   Code   RO         1341    i.USB_ReadInterrupts  stm32f4xx_ll_usb.o
    0x0800545a   0x0800545a   0x0000003e   Code   RO         1342    i.USB_ReadPacket    stm32f4xx_ll_usb.o
    0x08005498   0x08005498   0x00000032   Code   RO         1343    i.USB_ResetPort     stm32f4xx_ll_usb.o
    0x080054ca   0x080054ca   0x0000005c   Code   RO         1344    i.USB_SetCurrentMode  stm32f4xx_ll_usb.o
    0x08005526   0x08005526   0x0000008a   Code   RO         1349    i.USB_StopHost      stm32f4xx_ll_usb.o
    0x080055b0   0x080055b0   0x00000028   Code   RO         1350    i.USB_WritePacket   stm32f4xx_ll_usb.o
    0x080055d8   0x080055d8   0x00000002   Code   RO          711    i.UsageFault_Handler  stm32f4xx_it.o
    0x080055da   0x080055da   0x00000020   Code   RO         2364    i.__NVIC_SetPriority  stm32f4xx_hal_cortex.o
    0x080055fa   0x080055fa   0x0000000c   Code   RO         6602    i.inHandlerMode     cmsis_os.o
    0x08005606   0x08005606   0x00000002   PAD
    0x08005608   0x08005608   0x00000048   Code   RO           16    i.main              main.o
    0x08005650   0x08005650   0x0000000c   Code   RO         6604    i.makeFreeRtosPriority  cmsis_os.o
    0x0800565c   0x0800565c   0x0000000e   Code   RO         6606    i.osDelay           cmsis_os.o
    0x0800566a   0x0800566a   0x0000000a   Code   RO         6609    i.osKernelStart     cmsis_os.o
    0x08005674   0x08005674   0x00000026   Code   RO         6618    i.osMessageCreate   cmsis_os.o
    0x0800569a   0x0800569a   0x00000002   PAD
    0x0800569c   0x0800569c   0x00000094   Code   RO         6620    i.osMessageGet      cmsis_os.o
    0x08005730   0x08005730   0x0000005c   Code   RO         6622    i.osMessagePut      cmsis_os.o
    0x0800578c   0x0800578c   0x0000003e   Code   RO         6635    i.osSemaphoreCreate  cmsis_os.o
    0x080057ca   0x080057ca   0x00000054   Code   RO         6643    i.osThreadCreate    cmsis_os.o
    0x0800581e   0x0800581e   0x00000002   PAD
    0x08005820   0x08005820   0x00000070   Code   RO         6286    i.prvAddCurrentTaskToDelayedList  tasks.o
    0x08005890   0x08005890   0x000000d0   Code   RO         6287    i.prvAddNewTaskToReadyList  tasks.o
    0x08005960   0x08005960   0x00000026   Code   RO         5962    i.prvCopyDataFromQueue  queue.o
    0x08005986   0x08005986   0x0000006c   Code   RO         5963    i.prvCopyDataToQueue  queue.o
    0x080059f2   0x080059f2   0x00000034   Code   RO         6288    i.prvDeleteTCB      tasks.o
    0x08005a26   0x08005a26   0x00000002   PAD
    0x08005a28   0x08005a28   0x0000004c   Code   RO         6971    i.prvHeapInit       heap_4.o
    0x08005a74   0x08005a74   0x00000060   Code   RO         6289    i.prvIdleTask       tasks.o
    0x08005ad4   0x08005ad4   0x00000016   Code   RO         5965    i.prvInitialiseNewQueue  queue.o
    0x08005aea   0x08005aea   0x00000098   Code   RO         6290    i.prvInitialiseNewTask  tasks.o
    0x08005b82   0x08005b82   0x00000002   PAD
    0x08005b84   0x08005b84   0x0000004c   Code   RO         6972    i.prvInsertBlockIntoFreeList  heap_4.o
    0x08005bd0   0x08005bd0   0x0000001c   Code   RO         5966    i.prvIsQueueEmpty   queue.o
    0x08005bec   0x08005bec   0x00000020   Code   RO         6291    i.prvResetNextTaskUnblockTime  tasks.o
    0x08005c0c   0x08005c0c   0x00000028   Code   RO         7040    i.prvTaskExitError  port.o
    0x08005c34   0x08005c34   0x0000006a   Code   RO         5967    i.prvUnlockQueue    queue.o
    0x08005c9e   0x08005c9e   0x00000002   PAD
    0x08005ca0   0x08005ca0   0x000000dc   Code   RO         6973    i.pvPortMalloc      heap_4.o
    0x08005d7c   0x08005d7c   0x0000002c   Code   RO         7041    i.pxPortInitialiseStack  port.o
    0x08005da8   0x08005da8   0x00000026   Code   RO         5922    i.uxListRemove      list.o
    0x08005dce   0x08005dce   0x00000002   PAD
    0x08005dd0   0x08005dd0   0x00000014   Code   RO          299    i.vApplicationGetIdleTaskMemory  freertos.o
    0x08005de4   0x08005de4   0x00000016   Code   RO         5923    i.vListInitialise   list.o
    0x08005dfa   0x08005dfa   0x00000006   Code   RO         5924    i.vListInitialiseItem  list.o
    0x08005e00   0x08005e00   0x00000030   Code   RO         5925    i.vListInsert       list.o
    0x08005e30   0x08005e30   0x00000018   Code   RO         5926    i.vListInsertEnd    list.o
    0x08005e48   0x08005e48   0x00000040   Code   RO         7043    i.vPortEnterCritical  port.o
    0x08005e88   0x08005e88   0x00000028   Code   RO         7044    i.vPortExitCritical  port.o
    0x08005eb0   0x08005eb0   0x00000064   Code   RO         6974    i.vPortFree         heap_4.o
    0x08005f14   0x08005f14   0x00000024   Code   RO         7045    i.vPortSetupTimerInterrupt  port.o
    0x08005f38   0x08005f38   0x00000054   Code   RO         7046    i.vPortValidateInterruptPriority  port.o
    0x08005f8c   0x08005f8c   0x0000004c   Code   RO         6300    i.vTaskDelay        tasks.o
    0x08005fd8   0x08005fd8   0x00000010   Code   RO         6303    i.vTaskInternalSetTimeOutState  tasks.o
    0x08005fe8   0x08005fe8   0x0000000c   Code   RO         6304    i.vTaskMissedYield  tasks.o
    0x08005ff4   0x08005ff4   0x00000030   Code   RO         6306    i.vTaskPlaceOnEventList  tasks.o
    0x08006024   0x08006024   0x0000006c   Code   RO         6313    i.vTaskStartScheduler  tasks.o
    0x08006090   0x08006090   0x00000010   Code   RO         6315    i.vTaskSuspendAll   tasks.o
    0x080060a0   0x080060a0   0x0000005c   Code   RO         6316    i.vTaskSwitchContext  tasks.o
    0x080060fc   0x080060fc   0x000000f4   Code   RO         7047    i.xPortStartScheduler  port.o
    0x080061f0   0x080061f0   0x00000042   Code   RO         5976    i.xQueueGenericCreate  queue.o
    0x08006232   0x08006232   0x00000066   Code   RO         5977    i.xQueueGenericCreateStatic  queue.o
    0x08006298   0x08006298   0x00000088   Code   RO         5978    i.xQueueGenericReset  queue.o
    0x08006320   0x08006320   0x00000160   Code   RO         5979    i.xQueueGenericSend  queue.o
    0x08006480   0x08006480   0x000000be   Code   RO         5980    i.xQueueGenericSendFromISR  queue.o
    0x0800653e   0x0800653e   0x00000002   PAD
    0x08006540   0x08006540   0x00000138   Code   RO         5986    i.xQueueReceive     queue.o
    0x08006678   0x08006678   0x0000009a   Code   RO         5987    i.xQueueReceiveFromISR  queue.o
    0x08006712   0x08006712   0x00000002   PAD
    0x08006714   0x08006714   0x00000074   Code   RO         6318    i.xTaskCheckForTimeOut  tasks.o
    0x08006788   0x08006788   0x0000005a   Code   RO         6319    i.xTaskCreate       tasks.o
    0x080067e2   0x080067e2   0x00000056   Code   RO         6320    i.xTaskCreateStatic  tasks.o
    0x08006838   0x08006838   0x0000001c   Code   RO         6324    i.xTaskGetSchedulerState  tasks.o
    0x08006854   0x08006854   0x000000cc   Code   RO         6327    i.xTaskIncrementTick  tasks.o
    0x08006920   0x08006920   0x00000098   Code   RO         6330    i.xTaskPriorityDisinherit  tasks.o
    0x080069b8   0x080069b8   0x00000074   Code   RO         6332    i.xTaskRemoveFromEventList  tasks.o
    0x08006a2c   0x08006a2c   0x000000c4   Code   RO         6333    i.xTaskResumeAll    tasks.o
    0x08006af0   0x08006af0   0x0000000a   Code   RO         7793    x$fpl$fpinit        fz_wm.l(fpinit.o)
    0x08006afa   0x08006afa   0x00000002   PAD
    0x08006afc   0x08006afc   0x00000168   Data   RO          301    .constdata          freertos.o
    0x08006c64   0x08006c64   0x00000010   Data   RO         5785    .constdata          system_stm32f4xx.o
    0x08006c74   0x08006c74   0x00000008   Data   RO         5786    .constdata          system_stm32f4xx.o
    0x08006c7c   0x08006c7c   0x0000002c   Data   RO         7140    .constdata          usbh_core.o
    0x08006ca8   0x08006ca8   0x00000094   Data   RO          302    .conststring        freertos.o
    0x08006d3c   0x08006d3c   0x0000000c   Data   RO         7141    .conststring        usbh_core.o
    0x08006d48   0x08006d48   0x00000004   Data   RO         7496    .conststring        usbh_cdc.o
    0x08006d4c   0x08006d4c   0x00000020   Data   RO         7882    Region$$Table       anon$$obj.o


    Execution Region RW_IRAM1 (Exec base: 0x20000000, Load base: 0x08006d6c, Size: 0x00005040, Max: 0x0001c000, ABSOLUTE)

    Exec Addr    Load Addr    Size         Type   Attr      Idx    E Section Name        Object

    0x20000000   0x08006d6c   0x0000004c   Data   RW          303    .data               freertos.o
    0x2000004c   0x08006db8   0x00000001   Data   RW          840    .data               usb_host.o
    0x2000004d   0x08006db9   0x00000003   PAD
    0x20000050   0x08006dbc   0x0000000c   Data   RW         2508    .data               stm32f4xx_hal.o
    0x2000005c   0x08006dc8   0x00000004   Data   RW         5787    .data               system_stm32f4xx.o
    0x20000060   0x08006dcc   0x0000003c   Data   RW         6336    .data               tasks.o
    0x2000009c   0x08006e08   0x00000020   Data   RW         6980    .data               heap_4.o
    0x200000bc   0x08006e28   0x0000000c   Data   RW         7048    .data               port.o
    0x200000c8   0x08006e34   0x00000020   Data   RW         7497    .data               usbh_cdc.o
    0x200000e8        -       0x00000254   Zero   RW          300    .bss                freertos.o
    0x2000033c        -       0x00000048   Zero   RW          395    .bss                adc.o
    0x20000384        -       0x00000054   Zero   RW          437    .bss                i2c.o
    0x200003d8        -       0x00000048   Zero   RW          479    .bss                i2s.o
    0x20000420        -       0x00000020   Zero   RW          521    .bss                rtc.o
    0x20000440        -       0x000000b0   Zero   RW          564    .bss                spi.o
    0x200004f0        -       0x00000048   Zero   RW          612    .bss                tim.o
    0x20000538        -       0x00000088   Zero   RW          660    .bss                usart.o
    0x200005c0        -       0x00000048   Zero   RW          801    .bss                stm32f4xx_hal_timebase_tim.o
    0x20000608        -       0x000003e4   Zero   RW          839    .bss                usb_host.o
    0x200009ec        -       0x00000304   Zero   RW          927    .bss                usbh_conf.o
    0x20000cf0        -       0x000000f0   Zero   RW         6335    .bss                tasks.o
    0x20000de0        -       0x00003c00   Zero   RW         6979    .bss                heap_4.o
    0x200049e0        -       0x00000060   Zero   RW         7757    .bss                c_w.l(libspace.o)
    0x20004a40        -       0x00000200   Zero   RW            2    HEAP                startup_stm32f407xx.o
    0x20004c40        -       0x00000400   Zero   RW            1    STACK               startup_stm32f407xx.o


    Execution Region RW_IRAM2 (Exec base: 0x2001c000, Load base: 0x08006e54, Size: 0x00000000, Max: 0x00004000, ABSOLUTE)

    **** No section assigned to this execution region ****


==============================================================================

Image component sizes


      Code (inc. data)   RO Data    RW Data    ZI Data      Debug   Object Name

       232         30          0          0         72       1881   adc.o
       472         10          0          0          0      32841   cmsis_os.o
         0          0          0          0          0      20140   event_groups.o
       528         18        508         76        596       9220   freertos.o
       456         26          0          0          0       1243   gpio.o
       472         24          0         32      15360       7647   heap_4.o
       172         28          0          0         84       1805   i2c.o
       236         30          0          0         72       1901   i2s.o
       138          0          0          0          0       3742   list.o
       246         12          0          0          0     779328   main.o
       786         82          0         12          0      12241   port.o
      1614         14          0          0          0      18481   queue.o
       112         18          0          0         32       1691   rtc.o
       360         46          0          0        176       2582   spi.o
        64         26        392          0       1536        876   startup_stm32f407xx.o
       116         18          0         12          0       8954   stm32f4xx_hal.o
       712         28          0          0          0       3011   stm32f4xx_hal_adc.o
       158         14          0          0          0      33322   stm32f4xx_hal_cortex.o
       506         46          0          0          0       2288   stm32f4xx_hal_gpio.o
      2186          0          0          0          0      14377   stm32f4xx_hal_hcd.o
       392         16          0          0          0       3183   stm32f4xx_hal_i2c.o
       620         18          0          0          0       4381   stm32f4xx_hal_i2s.o
       694         24          0          0          0       3911   stm32f4xx_hal_i2s_ex.o
        56          4          0          0          0        934   stm32f4xx_hal_msp.o
      1408         82          0          0          0       6125   stm32f4xx_hal_rcc.o
       408         36          0          0          0       2377   stm32f4xx_hal_rcc_ex.o
       308          4          0          0          0       3723   stm32f4xx_hal_rtc.o
       188          0          0          0          0       1263   stm32f4xx_hal_spi.o
      1642        108          0          0          0      14837   stm32f4xx_hal_tim.o
       232         28          0          0          0       3437   stm32f4xx_hal_tim_ex.o
       152         18          0          0         72       1579   stm32f4xx_hal_timebase_tim.o
       366         10          0          0          0       2128   stm32f4xx_hal_uart.o
        36         12          0          0          0       3983   stm32f4xx_it.o
      1880         48          0          0          0      19489   stm32f4xx_ll_usb.o
         0          0          0          0          0        392   stream_buffer.o
        16          4         24          4          0       1223   system_stm32f4xx.o
      2008        150          0         60        240      25906   tasks.o
       348         32          0          0         72       2575   tim.o
       352         40          0          0        136       2679   usart.o
        96         16          0          1        996       9896   usb_host.o
       930          6          4         32          0      13208   usbh_cdc.o
       550         14          0          0        772      37193   usbh_conf.o
      1572         24         56          0          0      13291   usbh_core.o
      1416         12          0          0          0      12314   usbh_ctlreq.o
       172          0          0          0          0       4544   usbh_ioreq.o
       110          0          0          0          0       3522   usbh_pipes.o
        20          4          0          0          0        574   usbh_platform.o

    ----------------------------------------------------------------------
     25584       1180       1016        232      20216    1156238   Object Totals
         0          0         32          0          0          0   (incl. Generated)
        46          0          0          3          0          0   (incl. Padding)

    ----------------------------------------------------------------------

      Code (inc. data)   RO Data    RW Data    ZI Data      Debug   Library Member Name

         8          0          0          0          0         68   __main.o
         0          0          0          0          0          0   __rtentry.o
        12          0          0          0          0          0   __rtentry2.o
         6          0          0          0          0          0   __rtentry4.o
        52          8          0          0          0          0   __scatter.o
        26          0          0          0          0          0   __scatter_copy.o
        28          0          0          0          0          0   __scatter_zi.o
        10          0          0          0          0         68   defsig_exit.o
        50          0          0          0          0         88   defsig_general.o
        80         58          0          0          0         76   defsig_rtmem_inner.o
        14          0          0          0          0         80   defsig_rtmem_outer.o
        18          0          0          0          0         80   exit.o
        94          0          0          0          0         80   h1_alloc.o
        52          0          0          0          0         68   h1_extend.o
        78          0          0          0          0         80   h1_free.o
        14          0          0          0          0         84   h1_init.o
         6          0          0          0          0        152   heapauxi.o
         4          0          0          0          0        136   hguard.o
         0          0          0          0          0          0   indicate_semi.o
       138          0          0          0          0        168   init_alloc.o
         2          0          0          0          0          0   libinit.o
        14          0          0          0          0          0   libinit2.o
         2          0          0          0          0          0   libshutdown.o
         2          0          0          0          0          0   libshutdown2.o
         8          4          0          0         96         68   libspace.o
       238          0          0          0          0        100   lludivv7m.o
         0          0          0          0          0          0   maybetermalloc1.o
         8          4          0          0          0         68   rt_heap_descriptor_intlibspace.o
        78          0          0          0          0         80   rt_memclr_w.o
       138          0          0          0          0         68   rt_memcpy_v6.o
       100          0          0          0          0         80   rt_memcpy_w.o
         2          0          0          0          0          0   rtexit.o
        10          0          0          0          0          0   rtexit2.o
        12          4          0          0          0         68   sys_exit.o
        74          0          0          0          0         80   sys_stackheap_outer.o
        14          0          0          0          0         76   sys_wrch.o
         2          0          0          0          0         68   use_no_semi.o
        10          0          0          0          0        116   fpinit.o

    ----------------------------------------------------------------------
      1412         78          0          0         96       2100   Library Totals
         8          0          0          0          0          0   (incl. Padding)

    ----------------------------------------------------------------------

      Code (inc. data)   RO Data    RW Data    ZI Data      Debug   Library Name

      1394         78          0          0         96       1984   c_w.l
        10          0          0          0          0        116   fz_wm.l

    ----------------------------------------------------------------------
      1412         78          0          0         96       2100   Library Totals

    ----------------------------------------------------------------------

==============================================================================


      Code (inc. data)   RO Data    RW Data    ZI Data      Debug   

     26996       1258       1016        232      20312    1130498   Grand Totals
     26996       1258       1016        232      20312    1130498   ELF Image Totals
     26996       1258       1016        232          0          0   ROM Totals

==============================================================================

    Total RO  Size (Code + RO Data)                28012 (  27.36kB)
    Total RW  Size (RW Data + ZI Data)             20544 (  20.06kB)
    Total ROM Size (Code + RO Data + RW Data)      28244 (  27.58kB)

==============================================================================

